{"contracts/BlockPass.sol":{"BlockPass":{"abi":[{"inputs":[{"internalType":"address","name":"priceFeedAddress","type":"address"}],"stateMutability":"nonpayable","type":"constructor"},{"anonymous":false,"inputs":[{"indexed":true,"internalType":"address","name":"owner","type":"address"},{"indexed":true,"internalType":"address","name":"approved","type":"address"},{"indexed":true,"internalType":"uint256","name":"tokenId","type":"uint256"}],"name":"Approval","type":"event"},{"anonymous":false,"inputs":[{"indexed":true,"internalType":"address","name":"owner","type":"address"},{"indexed":true,"internalType":"address","name":"operator","type":"address"},{"indexed":false,"internalType":"bool","name":"approved","type":"bool"}],"name":"ApprovalForAll","type":"event"},{"anonymous":false,"inputs":[{"indexed":true,"internalType":"address","name":"from","type":"address"},{"indexed":true,"internalType":"address","name":"to","type":"address"},{"indexed":true,"internalType":"uint256","name":"tokenId","type":"uint256"}],"name":"Transfer","type":"event"},{"anonymous":false,"inputs":[{"indexed":true,"internalType":"address","name":"organizer","type":"address"},{"indexed":true,"internalType":"uint256","name":"creationTime","type":"uint256"},{"indexed":false,"internalType":"uint256","name":"blockPassId","type":"uint256"}],"name":"blockPassCreated","type":"event"},{"anonymous":false,"inputs":[{"indexed":true,"internalType":"address","name":"buyer","type":"address"},{"indexed":false,"internalType":"uint256","name":"tokenId","type":"uint256"},{"indexed":false,"internalType":"uint256","name":"blockPassId","type":"uint256"}],"name":"passBooked","type":"event"},{"inputs":[],"name":"allBlockPassList","outputs":[{"components":[{"internalType":"address","name":"organizer","type":"address"},{"internalType":"string","name":"metadata","type":"string"},{"internalType":"string","name":"category","type":"string"},{"internalType":"uint256","name":"blockPassId","type":"uint256"},{"internalType":"uint256","name":"passesSold","type":"uint256"},{"internalType":"uint256","name":"max_passes","type":"uint256"},{"internalType":"uint256","name":"passPrice","type":"uint256"},{"internalType":"uint256","name":"startTime","type":"uint256"},{"internalType":"uint256","name":"salesEndTime","type":"uint256"},{"internalType":"bool","name":"bpEnded","type":"bool"}],"internalType":"struct BlockPass.BlockPassDetails[]","name":"","type":"tuple[]"}],"stateMutability":"view","type":"function"},{"inputs":[{"internalType":"address","name":"to","type":"address"},{"internalType":"uint256","name":"tokenId","type":"uint256"}],"name":"approve","outputs":[],"stateMutability":"nonpayable","type":"function"},{"inputs":[{"internalType":"address","name":"owner","type":"address"}],"name":"balanceOf","outputs":[{"internalType":"uint256","name":"","type":"uint256"}],"stateMutability":"view","type":"function"},{"inputs":[{"internalType":"uint256","name":"","type":"uint256"}],"name":"blockPassList","outputs":[{"internalType":"address","name":"organizer","type":"address"},{"internalType":"string","name":"metadata","type":"string"},{"internalType":"string","name":"category","type":"string"},{"internalType":"uint256","name":"blockPassId","type":"uint256"},{"internalType":"uint256","name":"passesSold","type":"uint256"},{"internalType":"uint256","name":"max_passes","type":"uint256"},{"internalType":"uint256","name":"passPrice","type":"uint256"},{"internalType":"uint256","name":"startTime","type":"uint256"},{"internalType":"uint256","name":"salesEndTime","type":"uint256"},{"internalType":"bool","name":"bpEnded","type":"bool"}],"stateMutability":"view","type":"function"},{"inputs":[{"internalType":"address","name":"_user","type":"address"}],"name":"blockPassesBookedByUser","outputs":[{"components":[{"internalType":"address","name":"organizer","type":"address"},{"internalType":"string","name":"metadata","type":"string"},{"internalType":"string","name":"category","type":"string"},{"internalType":"uint256","name":"blockPassId","type":"uint256"},{"internalType":"uint256","name":"passesSold","type":"uint256"},{"internalType":"uint256","name":"max_passes","type":"uint256"},{"internalType":"uint256","name":"passPrice","type":"uint256"},{"internalType":"uint256","name":"startTime","type":"uint256"},{"internalType":"uint256","name":"salesEndTime","type":"uint256"},{"internalType":"bool","name":"bpEnded","type":"bool"}],"internalType":"struct BlockPass.BlockPassDetails[]","name":"","type":"tuple[]"}],"stateMutability":"view","type":"function"},{"inputs":[{"internalType":"address","name":"","type":"address"},{"internalType":"uint256","name":"","type":"uint256"}],"name":"bookedPassByUser","outputs":[{"internalType":"address","name":"organizer","type":"address"},{"internalType":"string","name":"metadata","type":"string"},{"internalType":"string","name":"category","type":"string"},{"internalType":"uint256","name":"blockPassId","type":"uint256"},{"internalType":"uint256","name":"passesSold","type":"uint256"},{"internalType":"uint256","name":"max_passes","type":"uint256"},{"internalType":"uint256","name":"passPrice","type":"uint256"},{"internalType":"uint256","name":"startTime","type":"uint256"},{"internalType":"uint256","name":"salesEndTime","type":"uint256"},{"internalType":"bool","name":"bpEnded","type":"bool"}],"stateMutability":"view","type":"function"},{"inputs":[{"internalType":"uint256","name":"_max_pass_count","type":"uint256"},{"internalType":"uint256","name":"_startTime","type":"uint256"},{"internalType":"uint256","name":"_salesEndTime","type":"uint256"},{"internalType":"uint256","name":"_initialPassPrice","type":"uint256"},{"internalType":"string","name":"_metadata","type":"string"},{"internalType":"string","name":"_category","type":"string"}],"name":"createNewPass","outputs":[],"stateMutability":"nonpayable","type":"function"},{"inputs":[{"internalType":"uint256","name":"tokenId","type":"uint256"}],"name":"getApproved","outputs":[{"internalType":"address","name":"","type":"address"}],"stateMutability":"view","type":"function"},{"inputs":[{"internalType":"string","name":"_category","type":"string"}],"name":"getByCategory","outputs":[{"components":[{"internalType":"address","name":"organizer","type":"address"},{"internalType":"string","name":"metadata","type":"string"},{"internalType":"string","name":"category","type":"string"},{"internalType":"uint256","name":"blockPassId","type":"uint256"},{"internalType":"uint256","name":"passesSold","type":"uint256"},{"internalType":"uint256","name":"max_passes","type":"uint256"},{"internalType":"uint256","name":"passPrice","type":"uint256"},{"internalType":"uint256","name":"startTime","type":"uint256"},{"internalType":"uint256","name":"salesEndTime","type":"uint256"},{"internalType":"bool","name":"bpEnded","type":"bool"}],"internalType":"struct BlockPass.BlockPassDetails[]","name":"","type":"tuple[]"}],"stateMutability":"view","type":"function"},{"inputs":[{"internalType":"uint256","name":"","type":"uint256"}],"name":"getPassById","outputs":[{"internalType":"address","name":"organizer","type":"address"},{"internalType":"string","name":"metadata","type":"string"},{"internalType":"string","name":"category","type":"string"},{"internalType":"uint256","name":"blockPassId","type":"uint256"},{"internalType":"uint256","name":"passesSold","type":"uint256"},{"internalType":"uint256","name":"max_passes","type":"uint256"},{"internalType":"uint256","name":"passPrice","type":"uint256"},{"internalType":"uint256","name":"startTime","type":"uint256"},{"internalType":"uint256","name":"salesEndTime","type":"uint256"},{"internalType":"bool","name":"bpEnded","type":"bool"}],"stateMutability":"view","type":"function"},{"inputs":[{"internalType":"address","name":"_user","type":"address"}],"name":"getUserTokens","outputs":[{"internalType":"uint256[]","name":"","type":"uint256[]"}],"stateMutability":"view","type":"function"},{"inputs":[{"internalType":"address","name":"owner","type":"address"},{"internalType":"address","name":"operator","type":"address"}],"name":"isApprovedForAll","outputs":[{"internalType":"bool","name":"","type":"bool"}],"stateMutability":"view","type":"function"},{"inputs":[],"name":"name","outputs":[{"internalType":"string","name":"","type":"string"}],"stateMutability":"view","type":"function"},{"inputs":[{"internalType":"uint256","name":"tokenId","type":"uint256"}],"name":"ownerOf","outputs":[{"internalType":"address","name":"","type":"address"}],"stateMutability":"view","type":"function"},{"inputs":[{"internalType":"uint256","name":"_blockPassId","type":"uint256"}],"name":"purchasePass","outputs":[],"stateMutability":"payable","type":"function"},{"inputs":[],"name":"s_priceFeed","outputs":[{"internalType":"contract AggregatorV3Interface","name":"","type":"address"}],"stateMutability":"view","type":"function"},{"inputs":[{"internalType":"address","name":"from","type":"address"},{"internalType":"address","name":"to","type":"address"},{"internalType":"uint256","name":"tokenId","type":"uint256"}],"name":"safeTransferFrom","outputs":[],"stateMutability":"nonpayable","type":"function"},{"inputs":[{"internalType":"address","name":"from","type":"address"},{"internalType":"address","name":"to","type":"address"},{"internalType":"uint256","name":"tokenId","type":"uint256"},{"internalType":"bytes","name":"data","type":"bytes"}],"name":"safeTransferFrom","outputs":[],"stateMutability":"nonpayable","type":"function"},{"inputs":[{"internalType":"address","name":"operator","type":"address"},{"internalType":"bool","name":"approved","type":"bool"}],"name":"setApprovalForAll","outputs":[],"stateMutability":"nonpayable","type":"function"},{"inputs":[{"internalType":"bytes4","name":"interfaceId","type":"bytes4"}],"name":"supportsInterface","outputs":[{"internalType":"bool","name":"","type":"bool"}],"stateMutability":"view","type":"function"},{"inputs":[],"name":"symbol","outputs":[{"internalType":"string","name":"","type":"string"}],"stateMutability":"view","type":"function"},{"inputs":[{"internalType":"address","name":"","type":"address"},{"internalType":"uint256","name":"","type":"uint256"}],"name":"tokenOfOwnerByIndex","outputs":[{"internalType":"uint256","name":"","type":"uint256"}],"stateMutability":"view","type":"function"},{"inputs":[{"internalType":"uint256","name":"tokenId","type":"uint256"}],"name":"tokenURI","outputs":[{"internalType":"string","name":"","type":"string"}],"stateMutability":"view","type":"function"},{"inputs":[{"internalType":"address","name":"from","type":"address"},{"internalType":"address","name":"to","type":"address"},{"internalType":"uint256","name":"tokenId","type":"uint256"}],"name":"transferFrom","outputs":[],"stateMutability":"nonpayable","type":"function"}],"devdoc":{"author":"Abdulazeez Salihu","details":"The contract implements the Chainlink PriceFeed AggregatorV3Interface ","events":{"Approval(address,address,uint256)":{"details":"Emitted when `owner` enables `approved` to manage the `tokenId` token."},"ApprovalForAll(address,address,bool)":{"details":"Emitted when `owner` enables or disables (`approved`) `operator` to manage all of its assets."},"Transfer(address,address,uint256)":{"details":"Emitted when `tokenId` token is transferred from `from` to `to`."}},"kind":"dev","methods":{"allBlockPassList()":{"details":"Retrieves an array of all blockpasses in the contract.","returns":{"_0":"An array of block passes."}},"approve(address,uint256)":{"details":"See {IERC721-approve}."},"balanceOf(address)":{"details":"See {IERC721-balanceOf}."},"blockPassesBookedByUser(address)":{"details":"Retrieves the block passes booked by a specific user.","params":{"_user":"The address of the user."},"returns":{"_0":"An array of block passes booked by the user."}},"createNewPass(uint256,uint256,uint256,uint256,string,string)":{"details":"Allows an organizer to create a new blockpass.","params":{"_category":"The category of the blockpass.","_initialPassPrice":"The first price for each block pass.","_max_pass_count":"The maximum number of passes available for the new blockpass ticket.","_metadata":"Additional metadata for the blockpass.","_salesEndTime":"The end time of sales for the blockpass.","_startTime":"The start time of the blockpass."}},"getApproved(uint256)":{"details":"See {IERC721-getApproved}."},"getByCategory(string)":{"details":"Retrieves an array of block passes belonging to a specific category.","params":{"_category":"The category of block passes to retrieve."},"returns":{"_0":"An array of block passes in the specified category."}},"getUserTokens(address)":{"details":"Retrieves the NFT tokens owned by a specific user.","params":{"_user":"The address of the user."},"returns":{"_0":"An array of NFT token IDs owned by the user."}},"isApprovedForAll(address,address)":{"details":"See {IERC721-isApprovedForAll}."},"name()":{"details":"See {IERC721Metadata-name}."},"ownerOf(uint256)":{"details":"See {IERC721-ownerOf}."},"purchasePass(uint256)":{"details":"Allows a user to purchase a block pass.","params":{"_blockPassId":"The ID of the block pass to be purchased."}},"safeTransferFrom(address,address,uint256)":{"details":"See {IERC721-safeTransferFrom}."},"safeTransferFrom(address,address,uint256,bytes)":{"details":"See {IERC721-safeTransferFrom}."},"setApprovalForAll(address,bool)":{"details":"See {IERC721-setApprovalForAll}."},"supportsInterface(bytes4)":{"details":"See {IERC165-supportsInterface}."},"symbol()":{"details":"See {IERC721Metadata-symbol}."},"tokenURI(uint256)":{"details":"See {IERC721Metadata-tokenURI}."},"transferFrom(address,address,uint256)":{"details":"See {IERC721-transferFrom}."}},"title":"BlockPass","version":1},"evm":{"bytecode":{"linkReferences":{},"object":"608060405260006008553480156200001657600080fd5b50604051620055bd380380620055bd83398181016040528101906200003c9190620001a8565b6040518060400160405280600981526020017f426c6f636b5061737300000000000000000000000000000000000000000000008152506040518060400160405280600281526020017f42500000000000000000000000000000000000000000000000000000000000008152508160009081620000b9919062000454565b508060019081620000cb919062000454565b505050620000e060076200012860201b60201c565b80600960006101000a81548173ffffffffffffffffffffffffffffffffffffffff021916908373ffffffffffffffffffffffffffffffffffffffff160217905550506200053b565b6001816000016000828254019250508190555050565b600080fd5b600073ffffffffffffffffffffffffffffffffffffffff82169050919050565b6000620001708262000143565b9050919050565b620001828162000163565b81146200018e57600080fd5b50565b600081519050620001a28162000177565b92915050565b600060208284031215620001c157620001c06200013e565b5b6000620001d18482850162000191565b91505092915050565b600081519050919050565b7f4e487b7100000000000000000000000000000000000000000000000000000000600052604160045260246000fd5b7f4e487b7100000000000000000000000000000000000000000000000000000000600052602260045260246000fd5b600060028204905060018216806200025c57607f821691505b60208210810362000272576200027162000214565b5b50919050565b60008190508160005260206000209050919050565b60006020601f8301049050919050565b600082821b905092915050565b600060088302620002dc7fffffffffffffffffffffffffffffffffffffffffffffffffffffffffffffffff826200029d565b620002e886836200029d565b95508019841693508086168417925050509392505050565b6000819050919050565b6000819050919050565b6000620003356200032f620003298462000300565b6200030a565b62000300565b9050919050565b6000819050919050565b620003518362000314565b6200036962000360826200033c565b848454620002aa565b825550505050565b600090565b6200038062000371565b6200038d81848462000346565b505050565b5b81811015620003b557620003a960008262000376565b60018101905062000393565b5050565b601f8211156200040457620003ce8162000278565b620003d9846200028d565b81016020851015620003e9578190505b62000401620003f8856200028d565b83018262000392565b50505b505050565b600082821c905092915050565b6000620004296000198460080262000409565b1980831691505092915050565b600062000444838362000416565b9150826002028217905092915050565b6200045f82620001da565b67ffffffffffffffff8111156200047b576200047a620001e5565b5b62000487825462000243565b62000494828285620003b9565b600060209050601f831160018114620004cc5760008415620004b7578287015190505b620004c3858262000436565b86555062000533565b601f198416620004dc8662000278565b60005b828110156200050657848901518255600182019150602085019450602081019050620004df565b8683101562000526578489015162000522601f89168262000416565b8355505b6001600288020188555050505b505050505050565b615072806200054b6000396000f3fe60806040526004361061014b5760003560e01c806342842e0e116100b657806395d89b411161006f57806395d89b4114610522578063a22cb4651461054d578063b88d4fde14610576578063c87b56dd1461059f578063e985e9c5146105dc578063ed1dde69146106195761014b565b806342842e0e146103bf57806347a9ec57146103e8578063519dc8d21461042e5780636352211e1461046b57806370a08231146104a85780638ea6b9c8146104e55761014b565b80630ec3b027116101085780630ec3b027146102a157806314462eda146102cc5780631be59b75146102e857806323b872dd146103135780632f745c591461033c57806336a5af0d146103795761014b565b806301ffc9a71461015057806303ebd8ad1461018d57806306fdde03146101ca57806307825d3a146101f5578063081812fc1461023b578063095ea7b314610278575b600080fd5b34801561015c57600080fd5b5061017760048036038101906101729190613425565b610642565b604051610184919061346d565b60405180910390f35b34801561019957600080fd5b506101b460048036038101906101af91906134e6565b610724565b6040516101c1919061377d565b60405180910390f35b3480156101d657600080fd5b506101df610994565b6040516101ec91906137e9565b60405180910390f35b34801561020157600080fd5b5061021c60048036038101906102179190613837565b610a26565b6040516102329a99989796959493929190613895565b60405180910390f35b34801561024757600080fd5b50610262600480360381019061025d919061393f565b610bd4565b60405161026f919061396c565b60405180910390f35b34801561028457600080fd5b5061029f600480360381019061029a9190613837565b610c1a565b005b3480156102ad57600080fd5b506102b6610d31565b6040516102c391906139e6565b60405180910390f35b6102e660048036038101906102e1919061393f565b610d57565b005b3480156102f457600080fd5b506102fd6111c1565b60405161030a919061377d565b60405180910390f35b34801561031f57600080fd5b5061033a60048036038101906103359190613a01565b6113f2565b005b34801561034857600080fd5b50610363600480360381019061035e9190613837565b611452565b6040516103709190613a54565b60405180910390f35b34801561038557600080fd5b506103a0600480360381019061039b919061393f565b611483565b6040516103b69a99989796959493929190613895565b60405180910390f35b3480156103cb57600080fd5b506103e660048036038101906103e19190613a01565b611624565b005b3480156103f457600080fd5b5061040f600480360381019061040a919061393f565b611644565b6040516104259a99989796959493929190613895565b60405180910390f35b34801561043a57600080fd5b50610455600480360381019061045091906134e6565b6117d5565b6040516104629190613b1e565b60405180910390f35b34801561047757600080fd5b50610492600480360381019061048d919061393f565b6118d5565b60405161049f919061396c565b60405180910390f35b3480156104b457600080fd5b506104cf60048036038101906104ca91906134e6565b61195b565b6040516104dc9190613a54565b60405180910390f35b3480156104f157600080fd5b5061050c60048036038101906105079190613c75565b611a12565b604051610519919061377d565b60405180910390f35b34801561052e57600080fd5b50610537611d29565b60405161054491906137e9565b60405180910390f35b34801561055957600080fd5b50610574600480360381019061056f9190613cea565b611dbb565b005b34801561058257600080fd5b5061059d60048036038101906105989190613dcb565b611dd1565b005b3480156105ab57600080fd5b506105c660048036038101906105c1919061393f565b611e33565b6040516105d391906137e9565b60405180910390f35b3480156105e857600080fd5b5061060360048036038101906105fe9190613e4e565b611f45565b604051610610919061346d565b60405180910390f35b34801561062557600080fd5b50610640600480360381019061063b9190613e8e565b611fd9565b005b60007f80ac58cd000000000000000000000000000000000000000000000000000000007bffffffffffffffffffffffffffffffffffffffffffffffffffffffff1916827bffffffffffffffffffffffffffffffffffffffffffffffffffffffff1916148061070d57507f5b5e139f000000000000000000000000000000000000000000000000000000007bffffffffffffffffffffffffffffffffffffffffffffffffffffffff1916827bffffffffffffffffffffffffffffffffffffffffffffffffffffffff1916145b8061071d575061071c826122ab565b5b9050919050565b6060600c60008373ffffffffffffffffffffffffffffffffffffffff1673ffffffffffffffffffffffffffffffffffffffff168152602001908152602001600020805480602002602001604051908101604052809291908181526020016000905b8282101561098957838290600052602060002090600a0201604051806101400160405290816000820160009054906101000a900473ffffffffffffffffffffffffffffffffffffffff1673ffffffffffffffffffffffffffffffffffffffff1673ffffffffffffffffffffffffffffffffffffffff16815260200160018201805461080f90613f82565b80601f016020809104026020016040519081016040528092919081815260200182805461083b90613f82565b80156108885780601f1061085d57610100808354040283529160200191610888565b820191906000526020600020905b81548152906001019060200180831161086b57829003601f168201915b505050505081526020016002820180546108a190613f82565b80601f01602080910402602001604051908101604052809291908181526020018280546108cd90613f82565b801561091a5780601f106108ef5761010080835404028352916020019161091a565b820191906000526020600020905b8154815290600101906020018083116108fd57829003601f168201915b505050505081526020016003820154815260200160048201548152602001600582015481526020016006820154815260200160078201548152602001600882015481526020016009820160009054906101000a900460ff16151515158152505081526020019060010190610785565b505050509050919050565b6060600080546109a390613f82565b80601f01602080910402602001604051908101604052809291908181526020018280546109cf90613f82565b8015610a1c5780601f106109f157610100808354040283529160200191610a1c565b820191906000526020600020905b8154815290600101906020018083116109ff57829003601f168201915b5050505050905090565b600c6020528160005260406000208181548110610a4257600080fd5b90600052602060002090600a0201600091509150508060000160009054906101000a900473ffffffffffffffffffffffffffffffffffffffff1690806001018054610a8c90613f82565b80601f0160208091040260200160405190810160405280929190818152602001828054610ab890613f82565b8015610b055780601f10610ada57610100808354040283529160200191610b05565b820191906000526020600020905b815481529060010190602001808311610ae857829003601f168201915b505050505090806002018054610b1a90613f82565b80601f0160208091040260200160405190810160405280929190818152602001828054610b4690613f82565b8015610b935780601f10610b6857610100808354040283529160200191610b93565b820191906000526020600020905b815481529060010190602001808311610b7657829003601f168201915b5050505050908060030154908060040154908060050154908060060154908060070154908060080154908060090160009054906101000a900460ff1690508a565b6000610bdf82612315565b6004600083815260200190815260200160002060009054906101000a900473ffffffffffffffffffffffffffffffffffffffff169050919050565b6000610c25826118d5565b90508073ffffffffffffffffffffffffffffffffffffffff168373ffffffffffffffffffffffffffffffffffffffff1603610c95576040517f08c379a0000000000000000000000000000000000000000000000000000000008152600401610c8c90614025565b60405180910390fd5b8073ffffffffffffffffffffffffffffffffffffffff16610cb4612360565b73ffffffffffffffffffffffffffffffffffffffff161480610ce35750610ce281610cdd612360565b611f45565b5b610d22576040517f08c379a0000000000000000000000000000000000000000000000000000000008152600401610d19906140b7565b60405180910390fd5b610d2c8383612368565b505050565b600960009054906101000a900473ffffffffffffffffffffffffffffffffffffffff1681565b6000600b60008381526020019081526020016000209050610d7781612421565b8060060154341015610dbe576040517f08c379a0000000000000000000000000000000000000000000000000000000008152600401610db590614123565b60405180910390fd5b8060080154421115610e05576040517f08c379a0000000000000000000000000000000000000000000000000000000008152600401610dfc9061418f565b60405180910390fd5b8060050154816004015410610e4f576040517f08c379a0000000000000000000000000000000000000000000000000000000008152600401610e46906141fb565b60405180910390fd5b600081600101604051602001610e6591906142be565b6040516020818303038152906040529050610e8933610e8460076124dd565b6124eb565b610e9c610e9660076124dd565b82612509565b60006103e8600a34610eae9190614304565b610eb89190614375565b905060008134610ec891906143a6565b905060008460000160009054906101000a900473ffffffffffffffffffffffffffffffffffffffff1673ffffffffffffffffffffffffffffffffffffffff1682604051610f149061440b565b60006040518083038185875af1925050503d8060008114610f51576040519150601f19603f3d011682016040523d82523d6000602084013e610f56565b606091505b5050905080610f6457600080fd5b846004016000815480929190610f7990614420565b9190505550600c60003373ffffffffffffffffffffffffffffffffffffffff1673ffffffffffffffffffffffffffffffffffffffff1681526020019081526020016000208590806001815401808255809150506001900390600052602060002090600a02016000909190919091506000820160009054906101000a900473ffffffffffffffffffffffffffffffffffffffff168160000160006101000a81548173ffffffffffffffffffffffffffffffffffffffff021916908373ffffffffffffffffffffffffffffffffffffffff16021790555060018201816001019081611062919061460b565b5060028201816002019081611077919061460b565b506003820154816003015560048201548160040155600582015481600501556006820154816006015560078201548160070155600882015481600801556009820160009054906101000a900460ff168160090160006101000a81548160ff0219169083151502179055505050600d60003373ffffffffffffffffffffffffffffffffffffffff1673ffffffffffffffffffffffffffffffffffffffff16815260200190815260200160002061112c60076124dd565b90806001815401808255809150506001900390600052602060002001600090919091909150553373ffffffffffffffffffffffffffffffffffffffff167f427141b19c671240bd576ba030999ffa6eedc059da43013f1d626fe12be133ef61119460076124dd565b87600301546040516111a79291906146f3565b60405180910390a26111b96007612576565b505050505050565b6060600a805480602002602001604051908101604052809291908181526020016000905b828210156113e957838290600052602060002090600a0201604051806101400160405290816000820160009054906101000a900473ffffffffffffffffffffffffffffffffffffffff1673ffffffffffffffffffffffffffffffffffffffff1673ffffffffffffffffffffffffffffffffffffffff16815260200160018201805461126f90613f82565b80601f016020809104026020016040519081016040528092919081815260200182805461129b90613f82565b80156112e85780601f106112bd576101008083540402835291602001916112e8565b820191906000526020600020905b8154815290600101906020018083116112cb57829003601f168201915b5050505050815260200160028201805461130190613f82565b80601f016020809104026020016040519081016040528092919081815260200182805461132d90613f82565b801561137a5780601f1061134f5761010080835404028352916020019161137a565b820191906000526020600020905b81548152906001019060200180831161135d57829003601f168201915b505050505081526020016003820154815260200160048201548152602001600582015481526020016006820154815260200160078201548152602001600882015481526020016009820160009054906101000a900460ff161515151581525050815260200190600101906111e5565b50505050905090565b6114036113fd612360565b8261258c565b611442576040517f08c379a00000000000000000000000000000000000000000000000000000000081526004016114399061478e565b60405180910390fd5b61144d838383612621565b505050565b600d602052816000526040600020818154811061146e57600080fd5b90600052602060002001600091509150505481565b600a818154811061149357600080fd5b90600052602060002090600a02016000915090508060000160009054906101000a900473ffffffffffffffffffffffffffffffffffffffff16908060010180546114dc90613f82565b80601f016020809104026020016040519081016040528092919081815260200182805461150890613f82565b80156115555780601f1061152a57610100808354040283529160200191611555565b820191906000526020600020905b81548152906001019060200180831161153857829003601f168201915b50505050509080600201805461156a90613f82565b80601f016020809104026020016040519081016040528092919081815260200182805461159690613f82565b80156115e35780601f106115b8576101008083540402835291602001916115e3565b820191906000526020600020905b8154815290600101906020018083116115c657829003601f168201915b5050505050908060030154908060040154908060050154908060060154908060070154908060080154908060090160009054906101000a900460ff1690508a565b61163f83838360405180602001604052806000815250611dd1565b505050565b600b6020528060005260406000206000915090508060000160009054906101000a900473ffffffffffffffffffffffffffffffffffffffff169080600101805461168d90613f82565b80601f01602080910402602001604051908101604052809291908181526020018280546116b990613f82565b80156117065780601f106116db57610100808354040283529160200191611706565b820191906000526020600020905b8154815290600101906020018083116116e957829003601f168201915b50505050509080600201805461171b90613f82565b80601f016020809104026020016040519081016040528092919081815260200182805461174790613f82565b80156117945780601f1061176957610100808354040283529160200191611794565b820191906000526020600020905b81548152906001019060200180831161177757829003601f168201915b5050505050908060030154908060040154908060050154908060060154908060070154908060080154908060090160009054906101000a900460ff1690508a565b606060006117e28361195b565b905060008167ffffffffffffffff811115611800576117ff613b4a565b5b60405190808252806020026020018201604052801561182e5781602001602082028036833780820191505090505b50905060005b828110156118ca57600d60008673ffffffffffffffffffffffffffffffffffffffff1673ffffffffffffffffffffffffffffffffffffffff168152602001908152602001600020818154811061188d5761188c6147ae565b5b90600052602060002001548282815181106118ab576118aa6147ae565b5b60200260200101818152505080806118c290614420565b915050611834565b508092505050919050565b6000806118e18361291a565b9050600073ffffffffffffffffffffffffffffffffffffffff168173ffffffffffffffffffffffffffffffffffffffff1603611952576040517f08c379a000000000000000000000000000000000000000000000000000000000815260040161194990614829565b60405180910390fd5b80915050919050565b60008073ffffffffffffffffffffffffffffffffffffffff168273ffffffffffffffffffffffffffffffffffffffff16036119cb576040517f08c379a00000000000000000000000000000000000000000000000000000000081526004016119c2906148bb565b60405180910390fd5b600360008373ffffffffffffffffffffffffffffffffffffffff1673ffffffffffffffffffffffffffffffffffffffff168152602001908152602001600020549050919050565b60606000806000600a8054905067ffffffffffffffff811115611a3857611a37613b4a565b5b604051908082528060200260200182016040528015611a7157816020015b611a5e61334e565b815260200190600190039081611a565790505b5090505b600a80549050831015611d1e576000600a8481548110611a9857611a976147ae565b5b90600052602060002090600a0201604051806101400160405290816000820160009054906101000a900473ffffffffffffffffffffffffffffffffffffffff1673ffffffffffffffffffffffffffffffffffffffff1673ffffffffffffffffffffffffffffffffffffffff168152602001600182018054611b1890613f82565b80601f0160208091040260200160405190810160405280929190818152602001828054611b4490613f82565b8015611b915780601f10611b6657610100808354040283529160200191611b91565b820191906000526020600020905b815481529060010190602001808311611b7457829003601f168201915b50505050508152602001600282018054611baa90613f82565b80601f0160208091040260200160405190810160405280929190818152602001828054611bd690613f82565b8015611c235780601f10611bf857610100808354040283529160200191611c23565b820191906000526020600020905b815481529060010190602001808311611c0657829003601f168201915b505050505081526020016003820154815260200160048201548152602001600582015481526020016006820154815260200160078201548152602001600882015481526020016009820160009054906101000a900460ff161515151581525050905085604051602001611c96919061490c565b604051602081830303815290604052805190602001208160400151604051602001611cc1919061490c565b6040516020818303038152906040528051906020012003611d0a5780828481518110611cf057611cef6147ae565b5b60200260200101819052508280611d0690614420565b9350505b508280611d1690614420565b935050611a75565b809350505050919050565b606060018054611d3890613f82565b80601f0160208091040260200160405190810160405280929190818152602001828054611d6490613f82565b8015611db15780601f10611d8657610100808354040283529160200191611db1565b820191906000526020600020905b815481529060010190602001808311611d9457829003601f168201915b5050505050905090565b611dcd611dc6612360565b8383612957565b5050565b611de2611ddc612360565b8361258c565b611e21576040517f08c379a0000000000000000000000000000000000000000000000000000000008152600401611e189061478e565b60405180910390fd5b611e2d84848484612ac3565b50505050565b6060611e3e82612315565b6000600660008481526020019081526020016000208054611e5e90613f82565b80601f0160208091040260200160405190810160405280929190818152602001828054611e8a90613f82565b8015611ed75780601f10611eac57610100808354040283529160200191611ed7565b820191906000526020600020905b815481529060010190602001808311611eba57829003601f168201915b505050505090506000611ee8612b1f565b90506000815103611efd578192505050611f40565b600082511115611f32578082604051602001611f1a929190614923565b60405160208183030381529060405292505050611f40565b611f3b84612b36565b925050505b919050565b6000600560008473ffffffffffffffffffffffffffffffffffffffff1673ffffffffffffffffffffffffffffffffffffffff16815260200190815260200160002060008373ffffffffffffffffffffffffffffffffffffffff1673ffffffffffffffffffffffffffffffffffffffff16815260200190815260200160002060009054906101000a900460ff16905092915050565b60006040518061014001604052803373ffffffffffffffffffffffffffffffffffffffff168152602001848152602001838152602001600854815260200160008152602001888152602001858152602001878152602001864261203c9190614947565b815260200160001515815250905080600b6000600854815260200190815260200160002060008201518160000160006101000a81548173ffffffffffffffffffffffffffffffffffffffff021916908373ffffffffffffffffffffffffffffffffffffffff16021790555060208201518160010190816120bc919061497b565b5060408201518160020190816120d2919061497b565b50606082015181600301556080820151816004015560a0820151816005015560c0820151816006015560e0820151816007015561010082015181600801556101208201518160090160006101000a81548160ff021916908315150217905550905050600a8190806001815401808255809150506001900390600052602060002090600a020160009091909190915060008201518160000160006101000a81548173ffffffffffffffffffffffffffffffffffffffff021916908373ffffffffffffffffffffffffffffffffffffffff16021790555060208201518160010190816121bc919061497b565b5060408201518160020190816121d2919061497b565b50606082015181600301556080820151816004015560a0820151816005015560c0820151816006015560e0820151816007015561010082015181600801556101208201518160090160006101000a81548160ff02191690831515021790555050506008600081548092919061224690614420565b919050555042816000015173ffffffffffffffffffffffffffffffffffffffff167faed489f7ce003f6cd396a4f98e2d629422d9227dcb8040b0153f526eabfcf187836060015160405161229a9190613a54565b60405180910390a350505050505050565b60007f01ffc9a7000000000000000000000000000000000000000000000000000000007bffffffffffffffffffffffffffffffffffffffffffffffffffffffff1916827bffffffffffffffffffffffffffffffffffffffffffffffffffffffff1916149050919050565b61231e81612b9e565b61235d576040517f08c379a000000000000000000000000000000000000000000000000000000000815260040161235490614829565b60405180910390fd5b50565b600033905090565b816004600083815260200190815260200160002060006101000a81548173ffffffffffffffffffffffffffffffffffffffff021916908373ffffffffffffffffffffffffffffffffffffffff160217905550808273ffffffffffffffffffffffffffffffffffffffff166123db836118d5565b73ffffffffffffffffffffffffffffffffffffffff167f8c5be1e5ebec7d5bd14f71427d1e84f3dd0314c0f7b2291e5b200ac8c7c3b92560405160405180910390a45050565b6000600960009054906101000a900473ffffffffffffffffffffffffffffffffffffffff1673ffffffffffffffffffffffffffffffffffffffff1663feaf968c6040518163ffffffff1660e01b815260040160a060405180830381865afa158015612490573d6000803e3d6000fd5b505050506040513d601f19601f820116820180604052508101906124b49190614ada565b50505091505060006402540be400826124cd9190614b55565b9050808360060181905550505050565b600081600001549050919050565b612505828260405180602001604052806000815250612bdf565b5050565b61251282612b9e565b612551576040517f08c379a000000000000000000000000000000000000000000000000000000000815260040161254890614c3f565b60405180910390fd5b80600660008481526020019081526020016000209081612571919061497b565b505050565b6001816000016000828254019250508190555050565b600080612598836118d5565b90508073ffffffffffffffffffffffffffffffffffffffff168473ffffffffffffffffffffffffffffffffffffffff1614806125da57506125d98185611f45565b5b8061261857508373ffffffffffffffffffffffffffffffffffffffff1661260084610bd4565b73ffffffffffffffffffffffffffffffffffffffff16145b91505092915050565b8273ffffffffffffffffffffffffffffffffffffffff16612641826118d5565b73ffffffffffffffffffffffffffffffffffffffff1614612697576040517f08c379a000000000000000000000000000000000000000000000000000000000815260040161268e90614cd1565b60405180910390fd5b600073ffffffffffffffffffffffffffffffffffffffff168273ffffffffffffffffffffffffffffffffffffffff1603612706576040517f08c379a00000000000000000000000000000000000000000000000000000000081526004016126fd90614d63565b60405180910390fd5b6127138383836001612c3a565b8273ffffffffffffffffffffffffffffffffffffffff16612733826118d5565b73ffffffffffffffffffffffffffffffffffffffff1614612789576040517f08c379a000000000000000000000000000000000000000000000000000000000815260040161278090614cd1565b60405180910390fd5b6004600082815260200190815260200160002060006101000a81549073ffffffffffffffffffffffffffffffffffffffff02191690556001600360008573ffffffffffffffffffffffffffffffffffffffff1673ffffffffffffffffffffffffffffffffffffffff168152602001908152602001600020600082825403925050819055506001600360008473ffffffffffffffffffffffffffffffffffffffff1673ffffffffffffffffffffffffffffffffffffffff16815260200190815260200160002060008282540192505081905550816002600083815260200190815260200160002060006101000a81548173ffffffffffffffffffffffffffffffffffffffff021916908373ffffffffffffffffffffffffffffffffffffffff160217905550808273ffffffffffffffffffffffffffffffffffffffff168473ffffffffffffffffffffffffffffffffffffffff167fddf252ad1be2c89b69c2b068fc378daa952ba7f163c4a11628f55a4df523b3ef60405160405180910390a46129158383836001612d60565b505050565b60006002600083815260200190815260200160002060009054906101000a900473ffffffffffffffffffffffffffffffffffffffff169050919050565b8173ffffffffffffffffffffffffffffffffffffffff168373ffffffffffffffffffffffffffffffffffffffff16036129c5576040517f08c379a00000000000000000000000000000000000000000000000000000000081526004016129bc90614dcf565b60405180910390fd5b80600560008573ffffffffffffffffffffffffffffffffffffffff1673ffffffffffffffffffffffffffffffffffffffff16815260200190815260200160002060008473ffffffffffffffffffffffffffffffffffffffff1673ffffffffffffffffffffffffffffffffffffffff16815260200190815260200160002060006101000a81548160ff0219169083151502179055508173ffffffffffffffffffffffffffffffffffffffff168373ffffffffffffffffffffffffffffffffffffffff167f17307eab39ab6107e8899845ad3d59bd9653f200f220920489ca2b5937696c3183604051612ab6919061346d565b60405180910390a3505050565b612ace848484612621565b612ada84848484612d66565b612b19576040517f08c379a0000000000000000000000000000000000000000000000000000000008152600401612b1090614e61565b60405180910390fd5b50505050565b606060405180602001604052806000815250905090565b6060612b4182612315565b6000612b4b612b1f565b90506000815111612b6b5760405180602001604052806000815250612b96565b80612b7584612eed565b604051602001612b86929190614923565b6040516020818303038152906040525b915050919050565b60008073ffffffffffffffffffffffffffffffffffffffff16612bc08361291a565b73ffffffffffffffffffffffffffffffffffffffff1614159050919050565b612be98383612fbb565b612bf66000848484612d66565b612c35576040517f08c379a0000000000000000000000000000000000000000000000000000000008152600401612c2c90614e61565b60405180910390fd5b505050565b6001811115612d5a57600073ffffffffffffffffffffffffffffffffffffffff168473ffffffffffffffffffffffffffffffffffffffff1614612cce5780600360008673ffffffffffffffffffffffffffffffffffffffff1673ffffffffffffffffffffffffffffffffffffffff1681526020019081526020016000206000828254612cc691906143a6565b925050819055505b600073ffffffffffffffffffffffffffffffffffffffff168373ffffffffffffffffffffffffffffffffffffffff1614612d595780600360008573ffffffffffffffffffffffffffffffffffffffff1673ffffffffffffffffffffffffffffffffffffffff1681526020019081526020016000206000828254612d519190614947565b925050819055505b5b50505050565b50505050565b6000612d878473ffffffffffffffffffffffffffffffffffffffff166131d8565b15612ee0578373ffffffffffffffffffffffffffffffffffffffff1663150b7a02612db0612360565b8786866040518563ffffffff1660e01b8152600401612dd29493929190614ed6565b6020604051808303816000875af1925050508015612e0e57506040513d601f19601f82011682018060405250810190612e0b9190614f37565b60015b612e90573d8060008114612e3e576040519150601f19603f3d011682016040523d82523d6000602084013e612e43565b606091505b506000815103612e88576040517f08c379a0000000000000000000000000000000000000000000000000000000008152600401612e7f90614e61565b60405180910390fd5b805181602001fd5b63150b7a0260e01b7bffffffffffffffffffffffffffffffffffffffffffffffffffffffff1916817bffffffffffffffffffffffffffffffffffffffffffffffffffffffff191614915050612ee5565b600190505b949350505050565b606060006001612efc846131fb565b01905060008167ffffffffffffffff811115612f1b57612f1a613b4a565b5b6040519080825280601f01601f191660200182016040528015612f4d5781602001600182028036833780820191505090505b509050600082602001820190505b600115612fb0578080600190039150507f3031323334353637383961626364656600000000000000000000000000000000600a86061a8153600a8581612fa457612fa3614346565b5b04945060008503612f5b575b819350505050919050565b600073ffffffffffffffffffffffffffffffffffffffff168273ffffffffffffffffffffffffffffffffffffffff160361302a576040517f08c379a000000000000000000000000000000000000000000000000000000000815260040161302190614fb0565b60405180910390fd5b61303381612b9e565b15613073576040517f08c379a000000000000000000000000000000000000000000000000000000000815260040161306a9061501c565b60405180910390fd5b613081600083836001612c3a565b61308a81612b9e565b156130ca576040517f08c379a00000000000000000000000000000000000000000000000000000000081526004016130c19061501c565b60405180910390fd5b6001600360008473ffffffffffffffffffffffffffffffffffffffff1673ffffffffffffffffffffffffffffffffffffffff16815260200190815260200160002060008282540192505081905550816002600083815260200190815260200160002060006101000a81548173ffffffffffffffffffffffffffffffffffffffff021916908373ffffffffffffffffffffffffffffffffffffffff160217905550808273ffffffffffffffffffffffffffffffffffffffff16600073ffffffffffffffffffffffffffffffffffffffff167fddf252ad1be2c89b69c2b068fc378daa952ba7f163c4a11628f55a4df523b3ef60405160405180910390a46131d4600083836001612d60565b5050565b6000808273ffffffffffffffffffffffffffffffffffffffff163b119050919050565b600080600090507a184f03e93ff9f4daa797ed6e38ed64bf6a1f0100000000000000008310613259577a184f03e93ff9f4daa797ed6e38ed64bf6a1f010000000000000000838161324f5761324e614346565b5b0492506040810190505b6d04ee2d6d415b85acef81000000008310613296576d04ee2d6d415b85acef8100000000838161328c5761328b614346565b5b0492506020810190505b662386f26fc1000083106132c557662386f26fc1000083816132bb576132ba614346565b5b0492506010810190505b6305f5e10083106132ee576305f5e10083816132e4576132e3614346565b5b0492506008810190505b612710831061331357612710838161330957613308614346565b5b0492506004810190505b60648310613336576064838161332c5761332b614346565b5b0492506002810190505b600a8310613345576001810190505b80915050919050565b604051806101400160405280600073ffffffffffffffffffffffffffffffffffffffff16815260200160608152602001606081526020016000815260200160008152602001600081526020016000815260200160008152602001600081526020016000151581525090565b6000604051905090565b600080fd5b600080fd5b60007fffffffff0000000000000000000000000000000000000000000000000000000082169050919050565b613402816133cd565b811461340d57600080fd5b50565b60008135905061341f816133f9565b92915050565b60006020828403121561343b5761343a6133c3565b5b600061344984828501613410565b91505092915050565b60008115159050919050565b61346781613452565b82525050565b6000602082019050613482600083018461345e565b92915050565b600073ffffffffffffffffffffffffffffffffffffffff82169050919050565b60006134b382613488565b9050919050565b6134c3816134a8565b81146134ce57600080fd5b50565b6000813590506134e0816134ba565b92915050565b6000602082840312156134fc576134fb6133c3565b5b600061350a848285016134d1565b91505092915050565b600081519050919050565b600082825260208201905092915050565b6000819050602082019050919050565b613548816134a8565b82525050565b600081519050919050565b600082825260208201905092915050565b60005b8381101561358857808201518184015260208101905061356d565b60008484015250505050565b6000601f19601f8301169050919050565b60006135b08261354e565b6135ba8185613559565b93506135ca81856020860161356a565b6135d381613594565b840191505092915050565b6000819050919050565b6135f1816135de565b82525050565b61360081613452565b82525050565b60006101408301600083015161361f600086018261353f565b506020830151848203602086015261363782826135a5565b9150506040830151848203604086015261365182826135a5565b915050606083015161366660608601826135e8565b50608083015161367960808601826135e8565b5060a083015161368c60a08601826135e8565b5060c083015161369f60c08601826135e8565b5060e08301516136b260e08601826135e8565b506101008301516136c76101008601826135e8565b506101208301516136dc6101208601826135f7565b508091505092915050565b60006136f38383613606565b905092915050565b6000602082019050919050565b600061371382613513565b61371d818561351e565b93508360208202850161372f8561352f565b8060005b8581101561376b578484038952815161374c85826136e7565b9450613757836136fb565b925060208a01995050600181019050613733565b50829750879550505050505092915050565b600060208201905081810360008301526137978184613708565b905092915050565b600082825260208201905092915050565b60006137bb8261354e565b6137c5818561379f565b93506137d581856020860161356a565b6137de81613594565b840191505092915050565b6000602082019050818103600083015261380381846137b0565b905092915050565b613814816135de565b811461381f57600080fd5b50565b6000813590506138318161380b565b92915050565b6000806040838503121561384e5761384d6133c3565b5b600061385c858286016134d1565b925050602061386d85828601613822565b9150509250929050565b613880816134a8565b82525050565b61388f816135de565b82525050565b6000610140820190506138ab600083018d613877565b81810360208301526138bd818c6137b0565b905081810360408301526138d1818b6137b0565b90506138e0606083018a613886565b6138ed6080830189613886565b6138fa60a0830188613886565b61390760c0830187613886565b61391460e0830186613886565b613922610100830185613886565b61393061012083018461345e565b9b9a5050505050505050505050565b600060208284031215613955576139546133c3565b5b600061396384828501613822565b91505092915050565b60006020820190506139816000830184613877565b92915050565b6000819050919050565b60006139ac6139a76139a284613488565b613987565b613488565b9050919050565b60006139be82613991565b9050919050565b60006139d0826139b3565b9050919050565b6139e0816139c5565b82525050565b60006020820190506139fb60008301846139d7565b92915050565b600080600060608486031215613a1a57613a196133c3565b5b6000613a28868287016134d1565b9350506020613a39868287016134d1565b9250506040613a4a86828701613822565b9150509250925092565b6000602082019050613a696000830184613886565b92915050565b600081519050919050565b600082825260208201905092915050565b6000819050602082019050919050565b6000613aa783836135e8565b60208301905092915050565b6000602082019050919050565b6000613acb82613a6f565b613ad58185613a7a565b9350613ae083613a8b565b8060005b83811015613b11578151613af88882613a9b565b9750613b0383613ab3565b925050600181019050613ae4565b5085935050505092915050565b60006020820190508181036000830152613b388184613ac0565b905092915050565b600080fd5b600080fd5b7f4e487b7100000000000000000000000000000000000000000000000000000000600052604160045260246000fd5b613b8282613594565b810181811067ffffffffffffffff82111715613ba157613ba0613b4a565b5b80604052505050565b6000613bb46133b9565b9050613bc08282613b79565b919050565b600067ffffffffffffffff821115613be057613bdf613b4a565b5b613be982613594565b9050602081019050919050565b82818337600083830152505050565b6000613c18613c1384613bc5565b613baa565b905082815260208101848484011115613c3457613c33613b45565b5b613c3f848285613bf6565b509392505050565b600082601f830112613c5c57613c5b613b40565b5b8135613c6c848260208601613c05565b91505092915050565b600060208284031215613c8b57613c8a6133c3565b5b600082013567ffffffffffffffff811115613ca957613ca86133c8565b5b613cb584828501613c47565b91505092915050565b613cc781613452565b8114613cd257600080fd5b50565b600081359050613ce481613cbe565b92915050565b60008060408385031215613d0157613d006133c3565b5b6000613d0f858286016134d1565b9250506020613d2085828601613cd5565b9150509250929050565b600067ffffffffffffffff821115613d4557613d44613b4a565b5b613d4e82613594565b9050602081019050919050565b6000613d6e613d6984613d2a565b613baa565b905082815260208101848484011115613d8a57613d89613b45565b5b613d95848285613bf6565b509392505050565b600082601f830112613db257613db1613b40565b5b8135613dc2848260208601613d5b565b91505092915050565b60008060008060808587031215613de557613de46133c3565b5b6000613df3878288016134d1565b9450506020613e04878288016134d1565b9350506040613e1587828801613822565b925050606085013567ffffffffffffffff811115613e3657613e356133c8565b5b613e4287828801613d9d565b91505092959194509250565b60008060408385031215613e6557613e646133c3565b5b6000613e73858286016134d1565b9250506020613e84858286016134d1565b9150509250929050565b60008060008060008060c08789031215613eab57613eaa6133c3565b5b6000613eb989828a01613822565b9650506020613eca89828a01613822565b9550506040613edb89828a01613822565b9450506060613eec89828a01613822565b935050608087013567ffffffffffffffff811115613f0d57613f0c6133c8565b5b613f1989828a01613c47565b92505060a087013567ffffffffffffffff811115613f3a57613f396133c8565b5b613f4689828a01613c47565b9150509295509295509295565b7f4e487b7100000000000000000000000000000000000000000000000000000000600052602260045260246000fd5b60006002820490506001821680613f9a57607f821691505b602082108103613fad57613fac613f53565b5b50919050565b7f4552433732313a20617070726f76616c20746f2063757272656e74206f776e6560008201527f7200000000000000000000000000000000000000000000000000000000000000602082015250565b600061400f60218361379f565b915061401a82613fb3565b604082019050919050565b6000602082019050818103600083015261403e81614002565b9050919050565b7f4552433732313a20617070726f76652063616c6c6572206973206e6f7420746f60008201527f6b656e206f776e6572206f7220617070726f76656420666f7220616c6c000000602082015250565b60006140a1603d8361379f565b91506140ac82614045565b604082019050919050565b600060208201905081810360008301526140d081614094565b9050919050565b7f496e73756666696369656e74207061796d656e74000000000000000000000000600082015250565b600061410d60148361379f565b9150614118826140d7565b602082019050919050565b6000602082019050818103600083015261413c81614100565b9050919050565b7f53616c657320656e646564000000000000000000000000000000000000000000600082015250565b6000614179600b8361379f565b915061418482614143565b602082019050919050565b600060208201905081810360008301526141a88161416c565b9050919050565b7f536f6c64206f7574000000000000000000000000000000000000000000000000600082015250565b60006141e560088361379f565b91506141f0826141af565b602082019050919050565b60006020820190508181036000830152614214816141d8565b9050919050565b600081905092915050565b60008190508160005260206000209050919050565b6000815461424881613f82565b614252818661421b565b9450600182166000811461426d5760018114614282576142b5565b60ff19831686528115158202860193506142b5565b61428b85614226565b60005b838110156142ad5781548189015260018201915060208101905061428e565b838801955050505b50505092915050565b60006142ca828461423b565b915081905092915050565b7f4e487b7100000000000000000000000000000000000000000000000000000000600052601160045260246000fd5b600061430f826135de565b915061431a836135de565b9250828202614328816135de565b9150828204841483151761433f5761433e6142d5565b5b5092915050565b7f4e487b7100000000000000000000000000000000000000000000000000000000600052601260045260246000fd5b6000614380826135de565b915061438b836135de565b92508261439b5761439a614346565b5b828204905092915050565b60006143b1826135de565b91506143bc836135de565b92508282039050818111156143d4576143d36142d5565b5b92915050565b600081905092915050565b50565b60006143f56000836143da565b9150614400826143e5565b600082019050919050565b6000614416826143e8565b9150819050919050565b600061442b826135de565b91507fffffffffffffffffffffffffffffffffffffffffffffffffffffffffffffffff820361445d5761445c6142d5565b5b600182019050919050565b60008154905061447781613f82565b9050919050565b60006020601f8301049050919050565b600082821b905092915050565b6000600883026144cb7fffffffffffffffffffffffffffffffffffffffffffffffffffffffffffffffff8261448e565b6144d5868361448e565b95508019841693508086168417925050509392505050565b60006145086145036144fe846135de565b613987565b6135de565b9050919050565b6000819050919050565b614522836144ed565b61453661452e8261450f565b84845461449b565b825550505050565b600090565b61454b61453e565b614556818484614519565b505050565b5b8181101561457a5761456f600082614543565b60018101905061455c565b5050565b601f8211156145bf5761459081614226565b6145998461447e565b810160208510156145a8578190505b6145bc6145b48561447e565b83018261455b565b50505b505050565b600082821c905092915050565b60006145e2600019846008026145c4565b1980831691505092915050565b60006145fb83836145d1565b9150826002028217905092915050565b8181036146195750506146f1565b61462282614468565b67ffffffffffffffff81111561463b5761463a613b4a565b5b6146458254613f82565b61465082828561457e565b6000601f83116001811461467f576000841561466d578287015490505b61467785826145ef565b8655506146ea565b601f19841661468d87614226565b965061469886614226565b60005b828110156146c05784890154825560018201915060018501945060208101905061469b565b868310156146dd57848901546146d9601f8916826145d1565b8355505b6001600288020188555050505b5050505050505b565b60006040820190506147086000830185613886565b6147156020830184613886565b9392505050565b7f4552433732313a2063616c6c6572206973206e6f7420746f6b656e206f776e6560008201527f72206f7220617070726f76656400000000000000000000000000000000000000602082015250565b6000614778602d8361379f565b91506147838261471c565b604082019050919050565b600060208201905081810360008301526147a78161476b565b9050919050565b7f4e487b7100000000000000000000000000000000000000000000000000000000600052603260045260246000fd5b7f4552433732313a20696e76616c696420746f6b656e2049440000000000000000600082015250565b600061481360188361379f565b915061481e826147dd565b602082019050919050565b6000602082019050818103600083015261484281614806565b9050919050565b7f4552433732313a2061646472657373207a65726f206973206e6f74206120766160008201527f6c6964206f776e65720000000000000000000000000000000000000000000000602082015250565b60006148a560298361379f565b91506148b082614849565b604082019050919050565b600060208201905081810360008301526148d481614898565b9050919050565b60006148e68261354e565b6148f0818561421b565b935061490081856020860161356a565b80840191505092915050565b600061491882846148db565b915081905092915050565b600061492f82856148db565b915061493b82846148db565b91508190509392505050565b6000614952826135de565b915061495d836135de565b9250828201905080821115614975576149746142d5565b5b92915050565b6149848261354e565b67ffffffffffffffff81111561499d5761499c613b4a565b5b6149a78254613f82565b6149b282828561457e565b600060209050601f8311600181146149e557600084156149d3578287015190505b6149dd85826145ef565b865550614a45565b601f1984166149f386614226565b60005b82811015614a1b578489015182556001820191506020850194506020810190506149f6565b86831015614a385784890151614a34601f8916826145d1565b8355505b6001600288020188555050505b505050505050565b600069ffffffffffffffffffff82169050919050565b614a6c81614a4d565b8114614a7757600080fd5b50565b600081519050614a8981614a63565b92915050565b6000819050919050565b614aa281614a8f565b8114614aad57600080fd5b50565b600081519050614abf81614a99565b92915050565b600081519050614ad48161380b565b92915050565b600080600080600060a08688031215614af657614af56133c3565b5b6000614b0488828901614a7a565b9550506020614b1588828901614ab0565b9450506040614b2688828901614ac5565b9350506060614b3788828901614ac5565b9250506080614b4888828901614a7a565b9150509295509295909350565b6000614b6082614a8f565b9150614b6b83614a8f565b9250828202614b7981614a8f565b91507f80000000000000000000000000000000000000000000000000000000000000008414600084121615614bb157614bb06142d5565b5b8282058414831517614bc657614bc56142d5565b5b5092915050565b7f45524337323155524953746f726167653a2055524920736574206f66206e6f6e60008201527f6578697374656e7420746f6b656e000000000000000000000000000000000000602082015250565b6000614c29602e8361379f565b9150614c3482614bcd565b604082019050919050565b60006020820190508181036000830152614c5881614c1c565b9050919050565b7f4552433732313a207472616e736665722066726f6d20696e636f72726563742060008201527f6f776e6572000000000000000000000000000000000000000000000000000000602082015250565b6000614cbb60258361379f565b9150614cc682614c5f565b604082019050919050565b60006020820190508181036000830152614cea81614cae565b9050919050565b7f4552433732313a207472616e7366657220746f20746865207a65726f2061646460008201527f7265737300000000000000000000000000000000000000000000000000000000602082015250565b6000614d4d60248361379f565b9150614d5882614cf1565b604082019050919050565b60006020820190508181036000830152614d7c81614d40565b9050919050565b7f4552433732313a20617070726f766520746f2063616c6c657200000000000000600082015250565b6000614db960198361379f565b9150614dc482614d83565b602082019050919050565b60006020820190508181036000830152614de881614dac565b9050919050565b7f4552433732313a207472616e7366657220746f206e6f6e20455243373231526560008201527f63656976657220696d706c656d656e7465720000000000000000000000000000602082015250565b6000614e4b60328361379f565b9150614e5682614def565b604082019050919050565b60006020820190508181036000830152614e7a81614e3e565b9050919050565b600081519050919050565b600082825260208201905092915050565b6000614ea882614e81565b614eb28185614e8c565b9350614ec281856020860161356a565b614ecb81613594565b840191505092915050565b6000608082019050614eeb6000830187613877565b614ef86020830186613877565b614f056040830185613886565b8181036060830152614f178184614e9d565b905095945050505050565b600081519050614f31816133f9565b92915050565b600060208284031215614f4d57614f4c6133c3565b5b6000614f5b84828501614f22565b91505092915050565b7f4552433732313a206d696e7420746f20746865207a65726f2061646472657373600082015250565b6000614f9a60208361379f565b9150614fa582614f64565b602082019050919050565b60006020820190508181036000830152614fc981614f8d565b9050919050565b7f4552433732313a20746f6b656e20616c7265616479206d696e74656400000000600082015250565b6000615006601c8361379f565b915061501182614fd0565b602082019050919050565b6000602082019050818103600083015261503581614ff9565b905091905056fea26469706673582212202c346b9c0cdaee8c39050787cb3bb74d094d38ecfbd826c2b88626d1693e963e64736f6c63430008140033","opcodes":"PUSH1 0x80 PUSH1 0x40 MSTORE PUSH1 0x0 PUSH1 0x8 SSTORE CALLVALUE DUP1 ISZERO PUSH3 0x16 JUMPI PUSH1 0x0 DUP1 REVERT JUMPDEST POP PUSH1 0x40 MLOAD PUSH3 0x55BD CODESIZE SUB DUP1 PUSH3 0x55BD DUP4 CODECOPY DUP2 DUP2 ADD PUSH1 0x40 MSTORE DUP2 ADD SWAP1 PUSH3 0x3C SWAP2 SWAP1 PUSH3 0x1A8 JUMP JUMPDEST PUSH1 0x40 MLOAD DUP1 PUSH1 0x40 ADD PUSH1 0x40 MSTORE DUP1 PUSH1 0x9 DUP2 MSTORE PUSH1 0x20 ADD PUSH32 0x426C6F636B506173730000000000000000000000000000000000000000000000 DUP2 MSTORE POP PUSH1 0x40 MLOAD DUP1 PUSH1 0x40 ADD PUSH1 0x40 MSTORE DUP1 PUSH1 0x2 DUP2 MSTORE PUSH1 0x20 ADD PUSH32 0x4250000000000000000000000000000000000000000000000000000000000000 DUP2 MSTORE POP DUP2 PUSH1 0x0 SWAP1 DUP2 PUSH3 0xB9 SWAP2 SWAP1 PUSH3 0x454 JUMP JUMPDEST POP DUP1 PUSH1 0x1 SWAP1 DUP2 PUSH3 0xCB SWAP2 SWAP1 PUSH3 0x454 JUMP JUMPDEST POP POP POP PUSH3 0xE0 PUSH1 0x7 PUSH3 0x128 PUSH1 0x20 SHL PUSH1 0x20 SHR JUMP JUMPDEST DUP1 PUSH1 0x9 PUSH1 0x0 PUSH2 0x100 EXP DUP2 SLOAD DUP2 PUSH20 0xFFFFFFFFFFFFFFFFFFFFFFFFFFFFFFFFFFFFFFFF MUL NOT AND SWAP1 DUP4 PUSH20 0xFFFFFFFFFFFFFFFFFFFFFFFFFFFFFFFFFFFFFFFF AND MUL OR SWAP1 SSTORE POP POP PUSH3 0x53B JUMP JUMPDEST PUSH1 0x1 DUP2 PUSH1 0x0 ADD PUSH1 0x0 DUP3 DUP3 SLOAD ADD SWAP3 POP POP DUP2 SWAP1 SSTORE POP POP JUMP JUMPDEST PUSH1 0x0 DUP1 REVERT JUMPDEST PUSH1 0x0 PUSH20 0xFFFFFFFFFFFFFFFFFFFFFFFFFFFFFFFFFFFFFFFF DUP3 AND SWAP1 POP SWAP2 SWAP1 POP JUMP JUMPDEST PUSH1 0x0 PUSH3 0x170 DUP3 PUSH3 0x143 JUMP JUMPDEST SWAP1 POP SWAP2 SWAP1 POP JUMP JUMPDEST PUSH3 0x182 DUP2 PUSH3 0x163 JUMP JUMPDEST DUP2 EQ PUSH3 0x18E JUMPI PUSH1 0x0 DUP1 REVERT JUMPDEST POP JUMP JUMPDEST PUSH1 0x0 DUP2 MLOAD SWAP1 POP PUSH3 0x1A2 DUP2 PUSH3 0x177 JUMP JUMPDEST SWAP3 SWAP2 POP POP JUMP JUMPDEST PUSH1 0x0 PUSH1 0x20 DUP3 DUP5 SUB SLT ISZERO PUSH3 0x1C1 JUMPI PUSH3 0x1C0 PUSH3 0x13E JUMP JUMPDEST JUMPDEST PUSH1 0x0 PUSH3 0x1D1 DUP5 DUP3 DUP6 ADD PUSH3 0x191 JUMP JUMPDEST SWAP2 POP POP SWAP3 SWAP2 POP POP JUMP JUMPDEST PUSH1 0x0 DUP2 MLOAD SWAP1 POP SWAP2 SWAP1 POP JUMP JUMPDEST PUSH32 0x4E487B7100000000000000000000000000000000000000000000000000000000 PUSH1 0x0 MSTORE PUSH1 0x41 PUSH1 0x4 MSTORE PUSH1 0x24 PUSH1 0x0 REVERT JUMPDEST PUSH32 0x4E487B7100000000000000000000000000000000000000000000000000000000 PUSH1 0x0 MSTORE PUSH1 0x22 PUSH1 0x4 MSTORE PUSH1 0x24 PUSH1 0x0 REVERT JUMPDEST PUSH1 0x0 PUSH1 0x2 DUP3 DIV SWAP1 POP PUSH1 0x1 DUP3 AND DUP1 PUSH3 0x25C JUMPI PUSH1 0x7F DUP3 AND SWAP2 POP JUMPDEST PUSH1 0x20 DUP3 LT DUP2 SUB PUSH3 0x272 JUMPI PUSH3 0x271 PUSH3 0x214 JUMP JUMPDEST JUMPDEST POP SWAP2 SWAP1 POP JUMP JUMPDEST PUSH1 0x0 DUP2 SWAP1 POP DUP2 PUSH1 0x0 MSTORE PUSH1 0x20 PUSH1 0x0 KECCAK256 SWAP1 POP SWAP2 SWAP1 POP JUMP JUMPDEST PUSH1 0x0 PUSH1 0x20 PUSH1 0x1F DUP4 ADD DIV SWAP1 POP SWAP2 SWAP1 POP JUMP JUMPDEST PUSH1 0x0 DUP3 DUP3 SHL SWAP1 POP SWAP3 SWAP2 POP POP JUMP JUMPDEST PUSH1 0x0 PUSH1 0x8 DUP4 MUL PUSH3 0x2DC PUSH32 0xFFFFFFFFFFFFFFFFFFFFFFFFFFFFFFFFFFFFFFFFFFFFFFFFFFFFFFFFFFFFFFFF DUP3 PUSH3 0x29D JUMP JUMPDEST PUSH3 0x2E8 DUP7 DUP4 PUSH3 0x29D JUMP JUMPDEST SWAP6 POP DUP1 NOT DUP5 AND SWAP4 POP DUP1 DUP7 AND DUP5 OR SWAP3 POP POP POP SWAP4 SWAP3 POP POP POP JUMP JUMPDEST PUSH1 0x0 DUP2 SWAP1 POP SWAP2 SWAP1 POP JUMP JUMPDEST PUSH1 0x0 DUP2 SWAP1 POP SWAP2 SWAP1 POP JUMP JUMPDEST PUSH1 0x0 PUSH3 0x335 PUSH3 0x32F PUSH3 0x329 DUP5 PUSH3 0x300 JUMP JUMPDEST PUSH3 0x30A JUMP JUMPDEST PUSH3 0x300 JUMP JUMPDEST SWAP1 POP SWAP2 SWAP1 POP JUMP JUMPDEST PUSH1 0x0 DUP2 SWAP1 POP SWAP2 SWAP1 POP JUMP JUMPDEST PUSH3 0x351 DUP4 PUSH3 0x314 JUMP JUMPDEST PUSH3 0x369 PUSH3 0x360 DUP3 PUSH3 0x33C JUMP JUMPDEST DUP5 DUP5 SLOAD PUSH3 0x2AA JUMP JUMPDEST DUP3 SSTORE POP POP POP POP JUMP JUMPDEST PUSH1 0x0 SWAP1 JUMP JUMPDEST PUSH3 0x380 PUSH3 0x371 JUMP JUMPDEST PUSH3 0x38D DUP2 DUP5 DUP5 PUSH3 0x346 JUMP JUMPDEST POP POP POP JUMP JUMPDEST JUMPDEST DUP2 DUP2 LT ISZERO PUSH3 0x3B5 JUMPI PUSH3 0x3A9 PUSH1 0x0 DUP3 PUSH3 0x376 JUMP JUMPDEST PUSH1 0x1 DUP2 ADD SWAP1 POP PUSH3 0x393 JUMP JUMPDEST POP POP JUMP JUMPDEST PUSH1 0x1F DUP3 GT ISZERO PUSH3 0x404 JUMPI PUSH3 0x3CE DUP2 PUSH3 0x278 JUMP JUMPDEST PUSH3 0x3D9 DUP5 PUSH3 0x28D JUMP JUMPDEST DUP2 ADD PUSH1 0x20 DUP6 LT ISZERO PUSH3 0x3E9 JUMPI DUP2 SWAP1 POP JUMPDEST PUSH3 0x401 PUSH3 0x3F8 DUP6 PUSH3 0x28D JUMP JUMPDEST DUP4 ADD DUP3 PUSH3 0x392 JUMP JUMPDEST POP POP JUMPDEST POP POP POP JUMP JUMPDEST PUSH1 0x0 DUP3 DUP3 SHR SWAP1 POP SWAP3 SWAP2 POP POP JUMP JUMPDEST PUSH1 0x0 PUSH3 0x429 PUSH1 0x0 NOT DUP5 PUSH1 0x8 MUL PUSH3 0x409 JUMP JUMPDEST NOT DUP1 DUP4 AND SWAP2 POP POP SWAP3 SWAP2 POP POP JUMP JUMPDEST PUSH1 0x0 PUSH3 0x444 DUP4 DUP4 PUSH3 0x416 JUMP JUMPDEST SWAP2 POP DUP3 PUSH1 0x2 MUL DUP3 OR SWAP1 POP SWAP3 SWAP2 POP POP JUMP JUMPDEST PUSH3 0x45F DUP3 PUSH3 0x1DA JUMP JUMPDEST PUSH8 0xFFFFFFFFFFFFFFFF DUP2 GT ISZERO PUSH3 0x47B JUMPI PUSH3 0x47A PUSH3 0x1E5 JUMP JUMPDEST JUMPDEST PUSH3 0x487 DUP3 SLOAD PUSH3 0x243 JUMP JUMPDEST PUSH3 0x494 DUP3 DUP3 DUP6 PUSH3 0x3B9 JUMP JUMPDEST PUSH1 0x0 PUSH1 0x20 SWAP1 POP PUSH1 0x1F DUP4 GT PUSH1 0x1 DUP2 EQ PUSH3 0x4CC JUMPI PUSH1 0x0 DUP5 ISZERO PUSH3 0x4B7 JUMPI DUP3 DUP8 ADD MLOAD SWAP1 POP JUMPDEST PUSH3 0x4C3 DUP6 DUP3 PUSH3 0x436 JUMP JUMPDEST DUP7 SSTORE POP PUSH3 0x533 JUMP JUMPDEST PUSH1 0x1F NOT DUP5 AND PUSH3 0x4DC DUP7 PUSH3 0x278 JUMP JUMPDEST PUSH1 0x0 JUMPDEST DUP3 DUP2 LT ISZERO PUSH3 0x506 JUMPI DUP5 DUP10 ADD MLOAD DUP3 SSTORE PUSH1 0x1 DUP3 ADD SWAP2 POP PUSH1 0x20 DUP6 ADD SWAP5 POP PUSH1 0x20 DUP2 ADD SWAP1 POP PUSH3 0x4DF JUMP JUMPDEST DUP7 DUP4 LT ISZERO PUSH3 0x526 JUMPI DUP5 DUP10 ADD MLOAD PUSH3 0x522 PUSH1 0x1F DUP10 AND DUP3 PUSH3 0x416 JUMP JUMPDEST DUP4 SSTORE POP JUMPDEST PUSH1 0x1 PUSH1 0x2 DUP9 MUL ADD DUP9 SSTORE POP POP POP JUMPDEST POP POP POP POP POP POP JUMP JUMPDEST PUSH2 0x5072 DUP1 PUSH3 0x54B PUSH1 0x0 CODECOPY PUSH1 0x0 RETURN INVALID PUSH1 0x80 PUSH1 0x40 MSTORE PUSH1 0x4 CALLDATASIZE LT PUSH2 0x14B JUMPI PUSH1 0x0 CALLDATALOAD PUSH1 0xE0 SHR DUP1 PUSH4 0x42842E0E GT PUSH2 0xB6 JUMPI DUP1 PUSH4 0x95D89B41 GT PUSH2 0x6F JUMPI DUP1 PUSH4 0x95D89B41 EQ PUSH2 0x522 JUMPI DUP1 PUSH4 0xA22CB465 EQ PUSH2 0x54D JUMPI DUP1 PUSH4 0xB88D4FDE EQ PUSH2 0x576 JUMPI DUP1 PUSH4 0xC87B56DD EQ PUSH2 0x59F JUMPI DUP1 PUSH4 0xE985E9C5 EQ PUSH2 0x5DC JUMPI DUP1 PUSH4 0xED1DDE69 EQ PUSH2 0x619 JUMPI PUSH2 0x14B JUMP JUMPDEST DUP1 PUSH4 0x42842E0E EQ PUSH2 0x3BF JUMPI DUP1 PUSH4 0x47A9EC57 EQ PUSH2 0x3E8 JUMPI DUP1 PUSH4 0x519DC8D2 EQ PUSH2 0x42E JUMPI DUP1 PUSH4 0x6352211E EQ PUSH2 0x46B JUMPI DUP1 PUSH4 0x70A08231 EQ PUSH2 0x4A8 JUMPI DUP1 PUSH4 0x8EA6B9C8 EQ PUSH2 0x4E5 JUMPI PUSH2 0x14B JUMP JUMPDEST DUP1 PUSH4 0xEC3B027 GT PUSH2 0x108 JUMPI DUP1 PUSH4 0xEC3B027 EQ PUSH2 0x2A1 JUMPI DUP1 PUSH4 0x14462EDA EQ PUSH2 0x2CC JUMPI DUP1 PUSH4 0x1BE59B75 EQ PUSH2 0x2E8 JUMPI DUP1 PUSH4 0x23B872DD EQ PUSH2 0x313 JUMPI DUP1 PUSH4 0x2F745C59 EQ PUSH2 0x33C JUMPI DUP1 PUSH4 0x36A5AF0D EQ PUSH2 0x379 JUMPI PUSH2 0x14B JUMP JUMPDEST DUP1 PUSH4 0x1FFC9A7 EQ PUSH2 0x150 JUMPI DUP1 PUSH4 0x3EBD8AD EQ PUSH2 0x18D JUMPI DUP1 PUSH4 0x6FDDE03 EQ PUSH2 0x1CA JUMPI DUP1 PUSH4 0x7825D3A EQ PUSH2 0x1F5 JUMPI DUP1 PUSH4 0x81812FC EQ PUSH2 0x23B JUMPI DUP1 PUSH4 0x95EA7B3 EQ PUSH2 0x278 JUMPI JUMPDEST PUSH1 0x0 DUP1 REVERT JUMPDEST CALLVALUE DUP1 ISZERO PUSH2 0x15C JUMPI PUSH1 0x0 DUP1 REVERT JUMPDEST POP PUSH2 0x177 PUSH1 0x4 DUP1 CALLDATASIZE SUB DUP2 ADD SWAP1 PUSH2 0x172 SWAP2 SWAP1 PUSH2 0x3425 JUMP JUMPDEST PUSH2 0x642 JUMP JUMPDEST PUSH1 0x40 MLOAD PUSH2 0x184 SWAP2 SWAP1 PUSH2 0x346D JUMP JUMPDEST PUSH1 0x40 MLOAD DUP1 SWAP2 SUB SWAP1 RETURN JUMPDEST CALLVALUE DUP1 ISZERO PUSH2 0x199 JUMPI PUSH1 0x0 DUP1 REVERT JUMPDEST POP PUSH2 0x1B4 PUSH1 0x4 DUP1 CALLDATASIZE SUB DUP2 ADD SWAP1 PUSH2 0x1AF SWAP2 SWAP1 PUSH2 0x34E6 JUMP JUMPDEST PUSH2 0x724 JUMP JUMPDEST PUSH1 0x40 MLOAD PUSH2 0x1C1 SWAP2 SWAP1 PUSH2 0x377D JUMP JUMPDEST PUSH1 0x40 MLOAD DUP1 SWAP2 SUB SWAP1 RETURN JUMPDEST CALLVALUE DUP1 ISZERO PUSH2 0x1D6 JUMPI PUSH1 0x0 DUP1 REVERT JUMPDEST POP PUSH2 0x1DF PUSH2 0x994 JUMP JUMPDEST PUSH1 0x40 MLOAD PUSH2 0x1EC SWAP2 SWAP1 PUSH2 0x37E9 JUMP JUMPDEST PUSH1 0x40 MLOAD DUP1 SWAP2 SUB SWAP1 RETURN JUMPDEST CALLVALUE DUP1 ISZERO PUSH2 0x201 JUMPI PUSH1 0x0 DUP1 REVERT JUMPDEST POP PUSH2 0x21C PUSH1 0x4 DUP1 CALLDATASIZE SUB DUP2 ADD SWAP1 PUSH2 0x217 SWAP2 SWAP1 PUSH2 0x3837 JUMP JUMPDEST PUSH2 0xA26 JUMP JUMPDEST PUSH1 0x40 MLOAD PUSH2 0x232 SWAP11 SWAP10 SWAP9 SWAP8 SWAP7 SWAP6 SWAP5 SWAP4 SWAP3 SWAP2 SWAP1 PUSH2 0x3895 JUMP JUMPDEST PUSH1 0x40 MLOAD DUP1 SWAP2 SUB SWAP1 RETURN JUMPDEST CALLVALUE DUP1 ISZERO PUSH2 0x247 JUMPI PUSH1 0x0 DUP1 REVERT JUMPDEST POP PUSH2 0x262 PUSH1 0x4 DUP1 CALLDATASIZE SUB DUP2 ADD SWAP1 PUSH2 0x25D SWAP2 SWAP1 PUSH2 0x393F JUMP JUMPDEST PUSH2 0xBD4 JUMP JUMPDEST PUSH1 0x40 MLOAD PUSH2 0x26F SWAP2 SWAP1 PUSH2 0x396C JUMP JUMPDEST PUSH1 0x40 MLOAD DUP1 SWAP2 SUB SWAP1 RETURN JUMPDEST CALLVALUE DUP1 ISZERO PUSH2 0x284 JUMPI PUSH1 0x0 DUP1 REVERT JUMPDEST POP PUSH2 0x29F PUSH1 0x4 DUP1 CALLDATASIZE SUB DUP2 ADD SWAP1 PUSH2 0x29A SWAP2 SWAP1 PUSH2 0x3837 JUMP JUMPDEST PUSH2 0xC1A JUMP JUMPDEST STOP JUMPDEST CALLVALUE DUP1 ISZERO PUSH2 0x2AD JUMPI PUSH1 0x0 DUP1 REVERT JUMPDEST POP PUSH2 0x2B6 PUSH2 0xD31 JUMP JUMPDEST PUSH1 0x40 MLOAD PUSH2 0x2C3 SWAP2 SWAP1 PUSH2 0x39E6 JUMP JUMPDEST PUSH1 0x40 MLOAD DUP1 SWAP2 SUB SWAP1 RETURN JUMPDEST PUSH2 0x2E6 PUSH1 0x4 DUP1 CALLDATASIZE SUB DUP2 ADD SWAP1 PUSH2 0x2E1 SWAP2 SWAP1 PUSH2 0x393F JUMP JUMPDEST PUSH2 0xD57 JUMP JUMPDEST STOP JUMPDEST CALLVALUE DUP1 ISZERO PUSH2 0x2F4 JUMPI PUSH1 0x0 DUP1 REVERT JUMPDEST POP PUSH2 0x2FD PUSH2 0x11C1 JUMP JUMPDEST PUSH1 0x40 MLOAD PUSH2 0x30A SWAP2 SWAP1 PUSH2 0x377D JUMP JUMPDEST PUSH1 0x40 MLOAD DUP1 SWAP2 SUB SWAP1 RETURN JUMPDEST CALLVALUE DUP1 ISZERO PUSH2 0x31F JUMPI PUSH1 0x0 DUP1 REVERT JUMPDEST POP PUSH2 0x33A PUSH1 0x4 DUP1 CALLDATASIZE SUB DUP2 ADD SWAP1 PUSH2 0x335 SWAP2 SWAP1 PUSH2 0x3A01 JUMP JUMPDEST PUSH2 0x13F2 JUMP JUMPDEST STOP JUMPDEST CALLVALUE DUP1 ISZERO PUSH2 0x348 JUMPI PUSH1 0x0 DUP1 REVERT JUMPDEST POP PUSH2 0x363 PUSH1 0x4 DUP1 CALLDATASIZE SUB DUP2 ADD SWAP1 PUSH2 0x35E SWAP2 SWAP1 PUSH2 0x3837 JUMP JUMPDEST PUSH2 0x1452 JUMP JUMPDEST PUSH1 0x40 MLOAD PUSH2 0x370 SWAP2 SWAP1 PUSH2 0x3A54 JUMP JUMPDEST PUSH1 0x40 MLOAD DUP1 SWAP2 SUB SWAP1 RETURN JUMPDEST CALLVALUE DUP1 ISZERO PUSH2 0x385 JUMPI PUSH1 0x0 DUP1 REVERT JUMPDEST POP PUSH2 0x3A0 PUSH1 0x4 DUP1 CALLDATASIZE SUB DUP2 ADD SWAP1 PUSH2 0x39B SWAP2 SWAP1 PUSH2 0x393F JUMP JUMPDEST PUSH2 0x1483 JUMP JUMPDEST PUSH1 0x40 MLOAD PUSH2 0x3B6 SWAP11 SWAP10 SWAP9 SWAP8 SWAP7 SWAP6 SWAP5 SWAP4 SWAP3 SWAP2 SWAP1 PUSH2 0x3895 JUMP JUMPDEST PUSH1 0x40 MLOAD DUP1 SWAP2 SUB SWAP1 RETURN JUMPDEST CALLVALUE DUP1 ISZERO PUSH2 0x3CB JUMPI PUSH1 0x0 DUP1 REVERT JUMPDEST POP PUSH2 0x3E6 PUSH1 0x4 DUP1 CALLDATASIZE SUB DUP2 ADD SWAP1 PUSH2 0x3E1 SWAP2 SWAP1 PUSH2 0x3A01 JUMP JUMPDEST PUSH2 0x1624 JUMP JUMPDEST STOP JUMPDEST CALLVALUE DUP1 ISZERO PUSH2 0x3F4 JUMPI PUSH1 0x0 DUP1 REVERT JUMPDEST POP PUSH2 0x40F PUSH1 0x4 DUP1 CALLDATASIZE SUB DUP2 ADD SWAP1 PUSH2 0x40A SWAP2 SWAP1 PUSH2 0x393F JUMP JUMPDEST PUSH2 0x1644 JUMP JUMPDEST PUSH1 0x40 MLOAD PUSH2 0x425 SWAP11 SWAP10 SWAP9 SWAP8 SWAP7 SWAP6 SWAP5 SWAP4 SWAP3 SWAP2 SWAP1 PUSH2 0x3895 JUMP JUMPDEST PUSH1 0x40 MLOAD DUP1 SWAP2 SUB SWAP1 RETURN JUMPDEST CALLVALUE DUP1 ISZERO PUSH2 0x43A JUMPI PUSH1 0x0 DUP1 REVERT JUMPDEST POP PUSH2 0x455 PUSH1 0x4 DUP1 CALLDATASIZE SUB DUP2 ADD SWAP1 PUSH2 0x450 SWAP2 SWAP1 PUSH2 0x34E6 JUMP JUMPDEST PUSH2 0x17D5 JUMP JUMPDEST PUSH1 0x40 MLOAD PUSH2 0x462 SWAP2 SWAP1 PUSH2 0x3B1E JUMP JUMPDEST PUSH1 0x40 MLOAD DUP1 SWAP2 SUB SWAP1 RETURN JUMPDEST CALLVALUE DUP1 ISZERO PUSH2 0x477 JUMPI PUSH1 0x0 DUP1 REVERT JUMPDEST POP PUSH2 0x492 PUSH1 0x4 DUP1 CALLDATASIZE SUB DUP2 ADD SWAP1 PUSH2 0x48D SWAP2 SWAP1 PUSH2 0x393F JUMP JUMPDEST PUSH2 0x18D5 JUMP JUMPDEST PUSH1 0x40 MLOAD PUSH2 0x49F SWAP2 SWAP1 PUSH2 0x396C JUMP JUMPDEST PUSH1 0x40 MLOAD DUP1 SWAP2 SUB SWAP1 RETURN JUMPDEST CALLVALUE DUP1 ISZERO PUSH2 0x4B4 JUMPI PUSH1 0x0 DUP1 REVERT JUMPDEST POP PUSH2 0x4CF PUSH1 0x4 DUP1 CALLDATASIZE SUB DUP2 ADD SWAP1 PUSH2 0x4CA SWAP2 SWAP1 PUSH2 0x34E6 JUMP JUMPDEST PUSH2 0x195B JUMP JUMPDEST PUSH1 0x40 MLOAD PUSH2 0x4DC SWAP2 SWAP1 PUSH2 0x3A54 JUMP JUMPDEST PUSH1 0x40 MLOAD DUP1 SWAP2 SUB SWAP1 RETURN JUMPDEST CALLVALUE DUP1 ISZERO PUSH2 0x4F1 JUMPI PUSH1 0x0 DUP1 REVERT JUMPDEST POP PUSH2 0x50C PUSH1 0x4 DUP1 CALLDATASIZE SUB DUP2 ADD SWAP1 PUSH2 0x507 SWAP2 SWAP1 PUSH2 0x3C75 JUMP JUMPDEST PUSH2 0x1A12 JUMP JUMPDEST PUSH1 0x40 MLOAD PUSH2 0x519 SWAP2 SWAP1 PUSH2 0x377D JUMP JUMPDEST PUSH1 0x40 MLOAD DUP1 SWAP2 SUB SWAP1 RETURN JUMPDEST CALLVALUE DUP1 ISZERO PUSH2 0x52E JUMPI PUSH1 0x0 DUP1 REVERT JUMPDEST POP PUSH2 0x537 PUSH2 0x1D29 JUMP JUMPDEST PUSH1 0x40 MLOAD PUSH2 0x544 SWAP2 SWAP1 PUSH2 0x37E9 JUMP JUMPDEST PUSH1 0x40 MLOAD DUP1 SWAP2 SUB SWAP1 RETURN JUMPDEST CALLVALUE DUP1 ISZERO PUSH2 0x559 JUMPI PUSH1 0x0 DUP1 REVERT JUMPDEST POP PUSH2 0x574 PUSH1 0x4 DUP1 CALLDATASIZE SUB DUP2 ADD SWAP1 PUSH2 0x56F SWAP2 SWAP1 PUSH2 0x3CEA JUMP JUMPDEST PUSH2 0x1DBB JUMP JUMPDEST STOP JUMPDEST CALLVALUE DUP1 ISZERO PUSH2 0x582 JUMPI PUSH1 0x0 DUP1 REVERT JUMPDEST POP PUSH2 0x59D PUSH1 0x4 DUP1 CALLDATASIZE SUB DUP2 ADD SWAP1 PUSH2 0x598 SWAP2 SWAP1 PUSH2 0x3DCB JUMP JUMPDEST PUSH2 0x1DD1 JUMP JUMPDEST STOP JUMPDEST CALLVALUE DUP1 ISZERO PUSH2 0x5AB JUMPI PUSH1 0x0 DUP1 REVERT JUMPDEST POP PUSH2 0x5C6 PUSH1 0x4 DUP1 CALLDATASIZE SUB DUP2 ADD SWAP1 PUSH2 0x5C1 SWAP2 SWAP1 PUSH2 0x393F JUMP JUMPDEST PUSH2 0x1E33 JUMP JUMPDEST PUSH1 0x40 MLOAD PUSH2 0x5D3 SWAP2 SWAP1 PUSH2 0x37E9 JUMP JUMPDEST PUSH1 0x40 MLOAD DUP1 SWAP2 SUB SWAP1 RETURN JUMPDEST CALLVALUE DUP1 ISZERO PUSH2 0x5E8 JUMPI PUSH1 0x0 DUP1 REVERT JUMPDEST POP PUSH2 0x603 PUSH1 0x4 DUP1 CALLDATASIZE SUB DUP2 ADD SWAP1 PUSH2 0x5FE SWAP2 SWAP1 PUSH2 0x3E4E JUMP JUMPDEST PUSH2 0x1F45 JUMP JUMPDEST PUSH1 0x40 MLOAD PUSH2 0x610 SWAP2 SWAP1 PUSH2 0x346D JUMP JUMPDEST PUSH1 0x40 MLOAD DUP1 SWAP2 SUB SWAP1 RETURN JUMPDEST CALLVALUE DUP1 ISZERO PUSH2 0x625 JUMPI PUSH1 0x0 DUP1 REVERT JUMPDEST POP PUSH2 0x640 PUSH1 0x4 DUP1 CALLDATASIZE SUB DUP2 ADD SWAP1 PUSH2 0x63B SWAP2 SWAP1 PUSH2 0x3E8E JUMP JUMPDEST PUSH2 0x1FD9 JUMP JUMPDEST STOP JUMPDEST PUSH1 0x0 PUSH32 0x80AC58CD00000000000000000000000000000000000000000000000000000000 PUSH28 0xFFFFFFFFFFFFFFFFFFFFFFFFFFFFFFFFFFFFFFFFFFFFFFFFFFFFFFFF NOT AND DUP3 PUSH28 0xFFFFFFFFFFFFFFFFFFFFFFFFFFFFFFFFFFFFFFFFFFFFFFFFFFFFFFFF NOT AND EQ DUP1 PUSH2 0x70D JUMPI POP PUSH32 0x5B5E139F00000000000000000000000000000000000000000000000000000000 PUSH28 0xFFFFFFFFFFFFFFFFFFFFFFFFFFFFFFFFFFFFFFFFFFFFFFFFFFFFFFFF NOT AND DUP3 PUSH28 0xFFFFFFFFFFFFFFFFFFFFFFFFFFFFFFFFFFFFFFFFFFFFFFFFFFFFFFFF NOT AND EQ JUMPDEST DUP1 PUSH2 0x71D JUMPI POP PUSH2 0x71C DUP3 PUSH2 0x22AB JUMP JUMPDEST JUMPDEST SWAP1 POP SWAP2 SWAP1 POP JUMP JUMPDEST PUSH1 0x60 PUSH1 0xC PUSH1 0x0 DUP4 PUSH20 0xFFFFFFFFFFFFFFFFFFFFFFFFFFFFFFFFFFFFFFFF AND PUSH20 0xFFFFFFFFFFFFFFFFFFFFFFFFFFFFFFFFFFFFFFFF AND DUP2 MSTORE PUSH1 0x20 ADD SWAP1 DUP2 MSTORE PUSH1 0x20 ADD PUSH1 0x0 KECCAK256 DUP1 SLOAD DUP1 PUSH1 0x20 MUL PUSH1 0x20 ADD PUSH1 0x40 MLOAD SWAP1 DUP2 ADD PUSH1 0x40 MSTORE DUP1 SWAP3 SWAP2 SWAP1 DUP2 DUP2 MSTORE PUSH1 0x20 ADD PUSH1 0x0 SWAP1 JUMPDEST DUP3 DUP3 LT ISZERO PUSH2 0x989 JUMPI DUP4 DUP3 SWAP1 PUSH1 0x0 MSTORE PUSH1 0x20 PUSH1 0x0 KECCAK256 SWAP1 PUSH1 0xA MUL ADD PUSH1 0x40 MLOAD DUP1 PUSH2 0x140 ADD PUSH1 0x40 MSTORE SWAP1 DUP2 PUSH1 0x0 DUP3 ADD PUSH1 0x0 SWAP1 SLOAD SWAP1 PUSH2 0x100 EXP SWAP1 DIV PUSH20 0xFFFFFFFFFFFFFFFFFFFFFFFFFFFFFFFFFFFFFFFF AND PUSH20 0xFFFFFFFFFFFFFFFFFFFFFFFFFFFFFFFFFFFFFFFF AND PUSH20 0xFFFFFFFFFFFFFFFFFFFFFFFFFFFFFFFFFFFFFFFF AND DUP2 MSTORE PUSH1 0x20 ADD PUSH1 0x1 DUP3 ADD DUP1 SLOAD PUSH2 0x80F SWAP1 PUSH2 0x3F82 JUMP JUMPDEST DUP1 PUSH1 0x1F ADD PUSH1 0x20 DUP1 SWAP2 DIV MUL PUSH1 0x20 ADD PUSH1 0x40 MLOAD SWAP1 DUP2 ADD PUSH1 0x40 MSTORE DUP1 SWAP3 SWAP2 SWAP1 DUP2 DUP2 MSTORE PUSH1 0x20 ADD DUP3 DUP1 SLOAD PUSH2 0x83B SWAP1 PUSH2 0x3F82 JUMP JUMPDEST DUP1 ISZERO PUSH2 0x888 JUMPI DUP1 PUSH1 0x1F LT PUSH2 0x85D JUMPI PUSH2 0x100 DUP1 DUP4 SLOAD DIV MUL DUP4 MSTORE SWAP2 PUSH1 0x20 ADD SWAP2 PUSH2 0x888 JUMP JUMPDEST DUP3 ADD SWAP2 SWAP1 PUSH1 0x0 MSTORE PUSH1 0x20 PUSH1 0x0 KECCAK256 SWAP1 JUMPDEST DUP2 SLOAD DUP2 MSTORE SWAP1 PUSH1 0x1 ADD SWAP1 PUSH1 0x20 ADD DUP1 DUP4 GT PUSH2 0x86B JUMPI DUP3 SWAP1 SUB PUSH1 0x1F AND DUP3 ADD SWAP2 JUMPDEST POP POP POP POP POP DUP2 MSTORE PUSH1 0x20 ADD PUSH1 0x2 DUP3 ADD DUP1 SLOAD PUSH2 0x8A1 SWAP1 PUSH2 0x3F82 JUMP JUMPDEST DUP1 PUSH1 0x1F ADD PUSH1 0x20 DUP1 SWAP2 DIV MUL PUSH1 0x20 ADD PUSH1 0x40 MLOAD SWAP1 DUP2 ADD PUSH1 0x40 MSTORE DUP1 SWAP3 SWAP2 SWAP1 DUP2 DUP2 MSTORE PUSH1 0x20 ADD DUP3 DUP1 SLOAD PUSH2 0x8CD SWAP1 PUSH2 0x3F82 JUMP JUMPDEST DUP1 ISZERO PUSH2 0x91A JUMPI DUP1 PUSH1 0x1F LT PUSH2 0x8EF JUMPI PUSH2 0x100 DUP1 DUP4 SLOAD DIV MUL DUP4 MSTORE SWAP2 PUSH1 0x20 ADD SWAP2 PUSH2 0x91A JUMP JUMPDEST DUP3 ADD SWAP2 SWAP1 PUSH1 0x0 MSTORE PUSH1 0x20 PUSH1 0x0 KECCAK256 SWAP1 JUMPDEST DUP2 SLOAD DUP2 MSTORE SWAP1 PUSH1 0x1 ADD SWAP1 PUSH1 0x20 ADD DUP1 DUP4 GT PUSH2 0x8FD JUMPI DUP3 SWAP1 SUB PUSH1 0x1F AND DUP3 ADD SWAP2 JUMPDEST POP POP POP POP POP DUP2 MSTORE PUSH1 0x20 ADD PUSH1 0x3 DUP3 ADD SLOAD DUP2 MSTORE PUSH1 0x20 ADD PUSH1 0x4 DUP3 ADD SLOAD DUP2 MSTORE PUSH1 0x20 ADD PUSH1 0x5 DUP3 ADD SLOAD DUP2 MSTORE PUSH1 0x20 ADD PUSH1 0x6 DUP3 ADD SLOAD DUP2 MSTORE PUSH1 0x20 ADD PUSH1 0x7 DUP3 ADD SLOAD DUP2 MSTORE PUSH1 0x20 ADD PUSH1 0x8 DUP3 ADD SLOAD DUP2 MSTORE PUSH1 0x20 ADD PUSH1 0x9 DUP3 ADD PUSH1 0x0 SWAP1 SLOAD SWAP1 PUSH2 0x100 EXP SWAP1 DIV PUSH1 0xFF AND ISZERO ISZERO ISZERO ISZERO DUP2 MSTORE POP POP DUP2 MSTORE PUSH1 0x20 ADD SWAP1 PUSH1 0x1 ADD SWAP1 PUSH2 0x785 JUMP JUMPDEST POP POP POP POP SWAP1 POP SWAP2 SWAP1 POP JUMP JUMPDEST PUSH1 0x60 PUSH1 0x0 DUP1 SLOAD PUSH2 0x9A3 SWAP1 PUSH2 0x3F82 JUMP JUMPDEST DUP1 PUSH1 0x1F ADD PUSH1 0x20 DUP1 SWAP2 DIV MUL PUSH1 0x20 ADD PUSH1 0x40 MLOAD SWAP1 DUP2 ADD PUSH1 0x40 MSTORE DUP1 SWAP3 SWAP2 SWAP1 DUP2 DUP2 MSTORE PUSH1 0x20 ADD DUP3 DUP1 SLOAD PUSH2 0x9CF SWAP1 PUSH2 0x3F82 JUMP JUMPDEST DUP1 ISZERO PUSH2 0xA1C JUMPI DUP1 PUSH1 0x1F LT PUSH2 0x9F1 JUMPI PUSH2 0x100 DUP1 DUP4 SLOAD DIV MUL DUP4 MSTORE SWAP2 PUSH1 0x20 ADD SWAP2 PUSH2 0xA1C JUMP JUMPDEST DUP3 ADD SWAP2 SWAP1 PUSH1 0x0 MSTORE PUSH1 0x20 PUSH1 0x0 KECCAK256 SWAP1 JUMPDEST DUP2 SLOAD DUP2 MSTORE SWAP1 PUSH1 0x1 ADD SWAP1 PUSH1 0x20 ADD DUP1 DUP4 GT PUSH2 0x9FF JUMPI DUP3 SWAP1 SUB PUSH1 0x1F AND DUP3 ADD SWAP2 JUMPDEST POP POP POP POP POP SWAP1 POP SWAP1 JUMP JUMPDEST PUSH1 0xC PUSH1 0x20 MSTORE DUP2 PUSH1 0x0 MSTORE PUSH1 0x40 PUSH1 0x0 KECCAK256 DUP2 DUP2 SLOAD DUP2 LT PUSH2 0xA42 JUMPI PUSH1 0x0 DUP1 REVERT JUMPDEST SWAP1 PUSH1 0x0 MSTORE PUSH1 0x20 PUSH1 0x0 KECCAK256 SWAP1 PUSH1 0xA MUL ADD PUSH1 0x0 SWAP2 POP SWAP2 POP POP DUP1 PUSH1 0x0 ADD PUSH1 0x0 SWAP1 SLOAD SWAP1 PUSH2 0x100 EXP SWAP1 DIV PUSH20 0xFFFFFFFFFFFFFFFFFFFFFFFFFFFFFFFFFFFFFFFF AND SWAP1 DUP1 PUSH1 0x1 ADD DUP1 SLOAD PUSH2 0xA8C SWAP1 PUSH2 0x3F82 JUMP JUMPDEST DUP1 PUSH1 0x1F ADD PUSH1 0x20 DUP1 SWAP2 DIV MUL PUSH1 0x20 ADD PUSH1 0x40 MLOAD SWAP1 DUP2 ADD PUSH1 0x40 MSTORE DUP1 SWAP3 SWAP2 SWAP1 DUP2 DUP2 MSTORE PUSH1 0x20 ADD DUP3 DUP1 SLOAD PUSH2 0xAB8 SWAP1 PUSH2 0x3F82 JUMP JUMPDEST DUP1 ISZERO PUSH2 0xB05 JUMPI DUP1 PUSH1 0x1F LT PUSH2 0xADA JUMPI PUSH2 0x100 DUP1 DUP4 SLOAD DIV MUL DUP4 MSTORE SWAP2 PUSH1 0x20 ADD SWAP2 PUSH2 0xB05 JUMP JUMPDEST DUP3 ADD SWAP2 SWAP1 PUSH1 0x0 MSTORE PUSH1 0x20 PUSH1 0x0 KECCAK256 SWAP1 JUMPDEST DUP2 SLOAD DUP2 MSTORE SWAP1 PUSH1 0x1 ADD SWAP1 PUSH1 0x20 ADD DUP1 DUP4 GT PUSH2 0xAE8 JUMPI DUP3 SWAP1 SUB PUSH1 0x1F AND DUP3 ADD SWAP2 JUMPDEST POP POP POP POP POP SWAP1 DUP1 PUSH1 0x2 ADD DUP1 SLOAD PUSH2 0xB1A SWAP1 PUSH2 0x3F82 JUMP JUMPDEST DUP1 PUSH1 0x1F ADD PUSH1 0x20 DUP1 SWAP2 DIV MUL PUSH1 0x20 ADD PUSH1 0x40 MLOAD SWAP1 DUP2 ADD PUSH1 0x40 MSTORE DUP1 SWAP3 SWAP2 SWAP1 DUP2 DUP2 MSTORE PUSH1 0x20 ADD DUP3 DUP1 SLOAD PUSH2 0xB46 SWAP1 PUSH2 0x3F82 JUMP JUMPDEST DUP1 ISZERO PUSH2 0xB93 JUMPI DUP1 PUSH1 0x1F LT PUSH2 0xB68 JUMPI PUSH2 0x100 DUP1 DUP4 SLOAD DIV MUL DUP4 MSTORE SWAP2 PUSH1 0x20 ADD SWAP2 PUSH2 0xB93 JUMP JUMPDEST DUP3 ADD SWAP2 SWAP1 PUSH1 0x0 MSTORE PUSH1 0x20 PUSH1 0x0 KECCAK256 SWAP1 JUMPDEST DUP2 SLOAD DUP2 MSTORE SWAP1 PUSH1 0x1 ADD SWAP1 PUSH1 0x20 ADD DUP1 DUP4 GT PUSH2 0xB76 JUMPI DUP3 SWAP1 SUB PUSH1 0x1F AND DUP3 ADD SWAP2 JUMPDEST POP POP POP POP POP SWAP1 DUP1 PUSH1 0x3 ADD SLOAD SWAP1 DUP1 PUSH1 0x4 ADD SLOAD SWAP1 DUP1 PUSH1 0x5 ADD SLOAD SWAP1 DUP1 PUSH1 0x6 ADD SLOAD SWAP1 DUP1 PUSH1 0x7 ADD SLOAD SWAP1 DUP1 PUSH1 0x8 ADD SLOAD SWAP1 DUP1 PUSH1 0x9 ADD PUSH1 0x0 SWAP1 SLOAD SWAP1 PUSH2 0x100 EXP SWAP1 DIV PUSH1 0xFF AND SWAP1 POP DUP11 JUMP JUMPDEST PUSH1 0x0 PUSH2 0xBDF DUP3 PUSH2 0x2315 JUMP JUMPDEST PUSH1 0x4 PUSH1 0x0 DUP4 DUP2 MSTORE PUSH1 0x20 ADD SWAP1 DUP2 MSTORE PUSH1 0x20 ADD PUSH1 0x0 KECCAK256 PUSH1 0x0 SWAP1 SLOAD SWAP1 PUSH2 0x100 EXP SWAP1 DIV PUSH20 0xFFFFFFFFFFFFFFFFFFFFFFFFFFFFFFFFFFFFFFFF AND SWAP1 POP SWAP2 SWAP1 POP JUMP JUMPDEST PUSH1 0x0 PUSH2 0xC25 DUP3 PUSH2 0x18D5 JUMP JUMPDEST SWAP1 POP DUP1 PUSH20 0xFFFFFFFFFFFFFFFFFFFFFFFFFFFFFFFFFFFFFFFF AND DUP4 PUSH20 0xFFFFFFFFFFFFFFFFFFFFFFFFFFFFFFFFFFFFFFFF AND SUB PUSH2 0xC95 JUMPI PUSH1 0x40 MLOAD PUSH32 0x8C379A000000000000000000000000000000000000000000000000000000000 DUP2 MSTORE PUSH1 0x4 ADD PUSH2 0xC8C SWAP1 PUSH2 0x4025 JUMP JUMPDEST PUSH1 0x40 MLOAD DUP1 SWAP2 SUB SWAP1 REVERT JUMPDEST DUP1 PUSH20 0xFFFFFFFFFFFFFFFFFFFFFFFFFFFFFFFFFFFFFFFF AND PUSH2 0xCB4 PUSH2 0x2360 JUMP JUMPDEST PUSH20 0xFFFFFFFFFFFFFFFFFFFFFFFFFFFFFFFFFFFFFFFF AND EQ DUP1 PUSH2 0xCE3 JUMPI POP PUSH2 0xCE2 DUP2 PUSH2 0xCDD PUSH2 0x2360 JUMP JUMPDEST PUSH2 0x1F45 JUMP JUMPDEST JUMPDEST PUSH2 0xD22 JUMPI PUSH1 0x40 MLOAD PUSH32 0x8C379A000000000000000000000000000000000000000000000000000000000 DUP2 MSTORE PUSH1 0x4 ADD PUSH2 0xD19 SWAP1 PUSH2 0x40B7 JUMP JUMPDEST PUSH1 0x40 MLOAD DUP1 SWAP2 SUB SWAP1 REVERT JUMPDEST PUSH2 0xD2C DUP4 DUP4 PUSH2 0x2368 JUMP JUMPDEST POP POP POP JUMP JUMPDEST PUSH1 0x9 PUSH1 0x0 SWAP1 SLOAD SWAP1 PUSH2 0x100 EXP SWAP1 DIV PUSH20 0xFFFFFFFFFFFFFFFFFFFFFFFFFFFFFFFFFFFFFFFF AND DUP2 JUMP JUMPDEST PUSH1 0x0 PUSH1 0xB PUSH1 0x0 DUP4 DUP2 MSTORE PUSH1 0x20 ADD SWAP1 DUP2 MSTORE PUSH1 0x20 ADD PUSH1 0x0 KECCAK256 SWAP1 POP PUSH2 0xD77 DUP2 PUSH2 0x2421 JUMP JUMPDEST DUP1 PUSH1 0x6 ADD SLOAD CALLVALUE LT ISZERO PUSH2 0xDBE JUMPI PUSH1 0x40 MLOAD PUSH32 0x8C379A000000000000000000000000000000000000000000000000000000000 DUP2 MSTORE PUSH1 0x4 ADD PUSH2 0xDB5 SWAP1 PUSH2 0x4123 JUMP JUMPDEST PUSH1 0x40 MLOAD DUP1 SWAP2 SUB SWAP1 REVERT JUMPDEST DUP1 PUSH1 0x8 ADD SLOAD TIMESTAMP GT ISZERO PUSH2 0xE05 JUMPI PUSH1 0x40 MLOAD PUSH32 0x8C379A000000000000000000000000000000000000000000000000000000000 DUP2 MSTORE PUSH1 0x4 ADD PUSH2 0xDFC SWAP1 PUSH2 0x418F JUMP JUMPDEST PUSH1 0x40 MLOAD DUP1 SWAP2 SUB SWAP1 REVERT JUMPDEST DUP1 PUSH1 0x5 ADD SLOAD DUP2 PUSH1 0x4 ADD SLOAD LT PUSH2 0xE4F JUMPI PUSH1 0x40 MLOAD PUSH32 0x8C379A000000000000000000000000000000000000000000000000000000000 DUP2 MSTORE PUSH1 0x4 ADD PUSH2 0xE46 SWAP1 PUSH2 0x41FB JUMP JUMPDEST PUSH1 0x40 MLOAD DUP1 SWAP2 SUB SWAP1 REVERT JUMPDEST PUSH1 0x0 DUP2 PUSH1 0x1 ADD PUSH1 0x40 MLOAD PUSH1 0x20 ADD PUSH2 0xE65 SWAP2 SWAP1 PUSH2 0x42BE JUMP JUMPDEST PUSH1 0x40 MLOAD PUSH1 0x20 DUP2 DUP4 SUB SUB DUP2 MSTORE SWAP1 PUSH1 0x40 MSTORE SWAP1 POP PUSH2 0xE89 CALLER PUSH2 0xE84 PUSH1 0x7 PUSH2 0x24DD JUMP JUMPDEST PUSH2 0x24EB JUMP JUMPDEST PUSH2 0xE9C PUSH2 0xE96 PUSH1 0x7 PUSH2 0x24DD JUMP JUMPDEST DUP3 PUSH2 0x2509 JUMP JUMPDEST PUSH1 0x0 PUSH2 0x3E8 PUSH1 0xA CALLVALUE PUSH2 0xEAE SWAP2 SWAP1 PUSH2 0x4304 JUMP JUMPDEST PUSH2 0xEB8 SWAP2 SWAP1 PUSH2 0x4375 JUMP JUMPDEST SWAP1 POP PUSH1 0x0 DUP2 CALLVALUE PUSH2 0xEC8 SWAP2 SWAP1 PUSH2 0x43A6 JUMP JUMPDEST SWAP1 POP PUSH1 0x0 DUP5 PUSH1 0x0 ADD PUSH1 0x0 SWAP1 SLOAD SWAP1 PUSH2 0x100 EXP SWAP1 DIV PUSH20 0xFFFFFFFFFFFFFFFFFFFFFFFFFFFFFFFFFFFFFFFF AND PUSH20 0xFFFFFFFFFFFFFFFFFFFFFFFFFFFFFFFFFFFFFFFF AND DUP3 PUSH1 0x40 MLOAD PUSH2 0xF14 SWAP1 PUSH2 0x440B JUMP JUMPDEST PUSH1 0x0 PUSH1 0x40 MLOAD DUP1 DUP4 SUB DUP2 DUP6 DUP8 GAS CALL SWAP3 POP POP POP RETURNDATASIZE DUP1 PUSH1 0x0 DUP2 EQ PUSH2 0xF51 JUMPI PUSH1 0x40 MLOAD SWAP2 POP PUSH1 0x1F NOT PUSH1 0x3F RETURNDATASIZE ADD AND DUP3 ADD PUSH1 0x40 MSTORE RETURNDATASIZE DUP3 MSTORE RETURNDATASIZE PUSH1 0x0 PUSH1 0x20 DUP5 ADD RETURNDATACOPY PUSH2 0xF56 JUMP JUMPDEST PUSH1 0x60 SWAP2 POP JUMPDEST POP POP SWAP1 POP DUP1 PUSH2 0xF64 JUMPI PUSH1 0x0 DUP1 REVERT JUMPDEST DUP5 PUSH1 0x4 ADD PUSH1 0x0 DUP2 SLOAD DUP1 SWAP3 SWAP2 SWAP1 PUSH2 0xF79 SWAP1 PUSH2 0x4420 JUMP JUMPDEST SWAP2 SWAP1 POP SSTORE POP PUSH1 0xC PUSH1 0x0 CALLER PUSH20 0xFFFFFFFFFFFFFFFFFFFFFFFFFFFFFFFFFFFFFFFF AND PUSH20 0xFFFFFFFFFFFFFFFFFFFFFFFFFFFFFFFFFFFFFFFF AND DUP2 MSTORE PUSH1 0x20 ADD SWAP1 DUP2 MSTORE PUSH1 0x20 ADD PUSH1 0x0 KECCAK256 DUP6 SWAP1 DUP1 PUSH1 0x1 DUP2 SLOAD ADD DUP1 DUP3 SSTORE DUP1 SWAP2 POP POP PUSH1 0x1 SWAP1 SUB SWAP1 PUSH1 0x0 MSTORE PUSH1 0x20 PUSH1 0x0 KECCAK256 SWAP1 PUSH1 0xA MUL ADD PUSH1 0x0 SWAP1 SWAP2 SWAP1 SWAP2 SWAP1 SWAP2 POP PUSH1 0x0 DUP3 ADD PUSH1 0x0 SWAP1 SLOAD SWAP1 PUSH2 0x100 EXP SWAP1 DIV PUSH20 0xFFFFFFFFFFFFFFFFFFFFFFFFFFFFFFFFFFFFFFFF AND DUP2 PUSH1 0x0 ADD PUSH1 0x0 PUSH2 0x100 EXP DUP2 SLOAD DUP2 PUSH20 0xFFFFFFFFFFFFFFFFFFFFFFFFFFFFFFFFFFFFFFFF MUL NOT AND SWAP1 DUP4 PUSH20 0xFFFFFFFFFFFFFFFFFFFFFFFFFFFFFFFFFFFFFFFF AND MUL OR SWAP1 SSTORE POP PUSH1 0x1 DUP3 ADD DUP2 PUSH1 0x1 ADD SWAP1 DUP2 PUSH2 0x1062 SWAP2 SWAP1 PUSH2 0x460B JUMP JUMPDEST POP PUSH1 0x2 DUP3 ADD DUP2 PUSH1 0x2 ADD SWAP1 DUP2 PUSH2 0x1077 SWAP2 SWAP1 PUSH2 0x460B JUMP JUMPDEST POP PUSH1 0x3 DUP3 ADD SLOAD DUP2 PUSH1 0x3 ADD SSTORE PUSH1 0x4 DUP3 ADD SLOAD DUP2 PUSH1 0x4 ADD SSTORE PUSH1 0x5 DUP3 ADD SLOAD DUP2 PUSH1 0x5 ADD SSTORE PUSH1 0x6 DUP3 ADD SLOAD DUP2 PUSH1 0x6 ADD SSTORE PUSH1 0x7 DUP3 ADD SLOAD DUP2 PUSH1 0x7 ADD SSTORE PUSH1 0x8 DUP3 ADD SLOAD DUP2 PUSH1 0x8 ADD SSTORE PUSH1 0x9 DUP3 ADD PUSH1 0x0 SWAP1 SLOAD SWAP1 PUSH2 0x100 EXP SWAP1 DIV PUSH1 0xFF AND DUP2 PUSH1 0x9 ADD PUSH1 0x0 PUSH2 0x100 EXP DUP2 SLOAD DUP2 PUSH1 0xFF MUL NOT AND SWAP1 DUP4 ISZERO ISZERO MUL OR SWAP1 SSTORE POP POP POP PUSH1 0xD PUSH1 0x0 CALLER PUSH20 0xFFFFFFFFFFFFFFFFFFFFFFFFFFFFFFFFFFFFFFFF AND PUSH20 0xFFFFFFFFFFFFFFFFFFFFFFFFFFFFFFFFFFFFFFFF AND DUP2 MSTORE PUSH1 0x20 ADD SWAP1 DUP2 MSTORE PUSH1 0x20 ADD PUSH1 0x0 KECCAK256 PUSH2 0x112C PUSH1 0x7 PUSH2 0x24DD JUMP JUMPDEST SWAP1 DUP1 PUSH1 0x1 DUP2 SLOAD ADD DUP1 DUP3 SSTORE DUP1 SWAP2 POP POP PUSH1 0x1 SWAP1 SUB SWAP1 PUSH1 0x0 MSTORE PUSH1 0x20 PUSH1 0x0 KECCAK256 ADD PUSH1 0x0 SWAP1 SWAP2 SWAP1 SWAP2 SWAP1 SWAP2 POP SSTORE CALLER PUSH20 0xFFFFFFFFFFFFFFFFFFFFFFFFFFFFFFFFFFFFFFFF AND PUSH32 0x427141B19C671240BD576BA030999FFA6EEDC059DA43013F1D626FE12BE133EF PUSH2 0x1194 PUSH1 0x7 PUSH2 0x24DD JUMP JUMPDEST DUP8 PUSH1 0x3 ADD SLOAD PUSH1 0x40 MLOAD PUSH2 0x11A7 SWAP3 SWAP2 SWAP1 PUSH2 0x46F3 JUMP JUMPDEST PUSH1 0x40 MLOAD DUP1 SWAP2 SUB SWAP1 LOG2 PUSH2 0x11B9 PUSH1 0x7 PUSH2 0x2576 JUMP JUMPDEST POP POP POP POP POP POP JUMP JUMPDEST PUSH1 0x60 PUSH1 0xA DUP1 SLOAD DUP1 PUSH1 0x20 MUL PUSH1 0x20 ADD PUSH1 0x40 MLOAD SWAP1 DUP2 ADD PUSH1 0x40 MSTORE DUP1 SWAP3 SWAP2 SWAP1 DUP2 DUP2 MSTORE PUSH1 0x20 ADD PUSH1 0x0 SWAP1 JUMPDEST DUP3 DUP3 LT ISZERO PUSH2 0x13E9 JUMPI DUP4 DUP3 SWAP1 PUSH1 0x0 MSTORE PUSH1 0x20 PUSH1 0x0 KECCAK256 SWAP1 PUSH1 0xA MUL ADD PUSH1 0x40 MLOAD DUP1 PUSH2 0x140 ADD PUSH1 0x40 MSTORE SWAP1 DUP2 PUSH1 0x0 DUP3 ADD PUSH1 0x0 SWAP1 SLOAD SWAP1 PUSH2 0x100 EXP SWAP1 DIV PUSH20 0xFFFFFFFFFFFFFFFFFFFFFFFFFFFFFFFFFFFFFFFF AND PUSH20 0xFFFFFFFFFFFFFFFFFFFFFFFFFFFFFFFFFFFFFFFF AND PUSH20 0xFFFFFFFFFFFFFFFFFFFFFFFFFFFFFFFFFFFFFFFF AND DUP2 MSTORE PUSH1 0x20 ADD PUSH1 0x1 DUP3 ADD DUP1 SLOAD PUSH2 0x126F SWAP1 PUSH2 0x3F82 JUMP JUMPDEST DUP1 PUSH1 0x1F ADD PUSH1 0x20 DUP1 SWAP2 DIV MUL PUSH1 0x20 ADD PUSH1 0x40 MLOAD SWAP1 DUP2 ADD PUSH1 0x40 MSTORE DUP1 SWAP3 SWAP2 SWAP1 DUP2 DUP2 MSTORE PUSH1 0x20 ADD DUP3 DUP1 SLOAD PUSH2 0x129B SWAP1 PUSH2 0x3F82 JUMP JUMPDEST DUP1 ISZERO PUSH2 0x12E8 JUMPI DUP1 PUSH1 0x1F LT PUSH2 0x12BD JUMPI PUSH2 0x100 DUP1 DUP4 SLOAD DIV MUL DUP4 MSTORE SWAP2 PUSH1 0x20 ADD SWAP2 PUSH2 0x12E8 JUMP JUMPDEST DUP3 ADD SWAP2 SWAP1 PUSH1 0x0 MSTORE PUSH1 0x20 PUSH1 0x0 KECCAK256 SWAP1 JUMPDEST DUP2 SLOAD DUP2 MSTORE SWAP1 PUSH1 0x1 ADD SWAP1 PUSH1 0x20 ADD DUP1 DUP4 GT PUSH2 0x12CB JUMPI DUP3 SWAP1 SUB PUSH1 0x1F AND DUP3 ADD SWAP2 JUMPDEST POP POP POP POP POP DUP2 MSTORE PUSH1 0x20 ADD PUSH1 0x2 DUP3 ADD DUP1 SLOAD PUSH2 0x1301 SWAP1 PUSH2 0x3F82 JUMP JUMPDEST DUP1 PUSH1 0x1F ADD PUSH1 0x20 DUP1 SWAP2 DIV MUL PUSH1 0x20 ADD PUSH1 0x40 MLOAD SWAP1 DUP2 ADD PUSH1 0x40 MSTORE DUP1 SWAP3 SWAP2 SWAP1 DUP2 DUP2 MSTORE PUSH1 0x20 ADD DUP3 DUP1 SLOAD PUSH2 0x132D SWAP1 PUSH2 0x3F82 JUMP JUMPDEST DUP1 ISZERO PUSH2 0x137A JUMPI DUP1 PUSH1 0x1F LT PUSH2 0x134F JUMPI PUSH2 0x100 DUP1 DUP4 SLOAD DIV MUL DUP4 MSTORE SWAP2 PUSH1 0x20 ADD SWAP2 PUSH2 0x137A JUMP JUMPDEST DUP3 ADD SWAP2 SWAP1 PUSH1 0x0 MSTORE PUSH1 0x20 PUSH1 0x0 KECCAK256 SWAP1 JUMPDEST DUP2 SLOAD DUP2 MSTORE SWAP1 PUSH1 0x1 ADD SWAP1 PUSH1 0x20 ADD DUP1 DUP4 GT PUSH2 0x135D JUMPI DUP3 SWAP1 SUB PUSH1 0x1F AND DUP3 ADD SWAP2 JUMPDEST POP POP POP POP POP DUP2 MSTORE PUSH1 0x20 ADD PUSH1 0x3 DUP3 ADD SLOAD DUP2 MSTORE PUSH1 0x20 ADD PUSH1 0x4 DUP3 ADD SLOAD DUP2 MSTORE PUSH1 0x20 ADD PUSH1 0x5 DUP3 ADD SLOAD DUP2 MSTORE PUSH1 0x20 ADD PUSH1 0x6 DUP3 ADD SLOAD DUP2 MSTORE PUSH1 0x20 ADD PUSH1 0x7 DUP3 ADD SLOAD DUP2 MSTORE PUSH1 0x20 ADD PUSH1 0x8 DUP3 ADD SLOAD DUP2 MSTORE PUSH1 0x20 ADD PUSH1 0x9 DUP3 ADD PUSH1 0x0 SWAP1 SLOAD SWAP1 PUSH2 0x100 EXP SWAP1 DIV PUSH1 0xFF AND ISZERO ISZERO ISZERO ISZERO DUP2 MSTORE POP POP DUP2 MSTORE PUSH1 0x20 ADD SWAP1 PUSH1 0x1 ADD SWAP1 PUSH2 0x11E5 JUMP JUMPDEST POP POP POP POP SWAP1 POP SWAP1 JUMP JUMPDEST PUSH2 0x1403 PUSH2 0x13FD PUSH2 0x2360 JUMP JUMPDEST DUP3 PUSH2 0x258C JUMP JUMPDEST PUSH2 0x1442 JUMPI PUSH1 0x40 MLOAD PUSH32 0x8C379A000000000000000000000000000000000000000000000000000000000 DUP2 MSTORE PUSH1 0x4 ADD PUSH2 0x1439 SWAP1 PUSH2 0x478E JUMP JUMPDEST PUSH1 0x40 MLOAD DUP1 SWAP2 SUB SWAP1 REVERT JUMPDEST PUSH2 0x144D DUP4 DUP4 DUP4 PUSH2 0x2621 JUMP JUMPDEST POP POP POP JUMP JUMPDEST PUSH1 0xD PUSH1 0x20 MSTORE DUP2 PUSH1 0x0 MSTORE PUSH1 0x40 PUSH1 0x0 KECCAK256 DUP2 DUP2 SLOAD DUP2 LT PUSH2 0x146E JUMPI PUSH1 0x0 DUP1 REVERT JUMPDEST SWAP1 PUSH1 0x0 MSTORE PUSH1 0x20 PUSH1 0x0 KECCAK256 ADD PUSH1 0x0 SWAP2 POP SWAP2 POP POP SLOAD DUP2 JUMP JUMPDEST PUSH1 0xA DUP2 DUP2 SLOAD DUP2 LT PUSH2 0x1493 JUMPI PUSH1 0x0 DUP1 REVERT JUMPDEST SWAP1 PUSH1 0x0 MSTORE PUSH1 0x20 PUSH1 0x0 KECCAK256 SWAP1 PUSH1 0xA MUL ADD PUSH1 0x0 SWAP2 POP SWAP1 POP DUP1 PUSH1 0x0 ADD PUSH1 0x0 SWAP1 SLOAD SWAP1 PUSH2 0x100 EXP SWAP1 DIV PUSH20 0xFFFFFFFFFFFFFFFFFFFFFFFFFFFFFFFFFFFFFFFF AND SWAP1 DUP1 PUSH1 0x1 ADD DUP1 SLOAD PUSH2 0x14DC SWAP1 PUSH2 0x3F82 JUMP JUMPDEST DUP1 PUSH1 0x1F ADD PUSH1 0x20 DUP1 SWAP2 DIV MUL PUSH1 0x20 ADD PUSH1 0x40 MLOAD SWAP1 DUP2 ADD PUSH1 0x40 MSTORE DUP1 SWAP3 SWAP2 SWAP1 DUP2 DUP2 MSTORE PUSH1 0x20 ADD DUP3 DUP1 SLOAD PUSH2 0x1508 SWAP1 PUSH2 0x3F82 JUMP JUMPDEST DUP1 ISZERO PUSH2 0x1555 JUMPI DUP1 PUSH1 0x1F LT PUSH2 0x152A JUMPI PUSH2 0x100 DUP1 DUP4 SLOAD DIV MUL DUP4 MSTORE SWAP2 PUSH1 0x20 ADD SWAP2 PUSH2 0x1555 JUMP JUMPDEST DUP3 ADD SWAP2 SWAP1 PUSH1 0x0 MSTORE PUSH1 0x20 PUSH1 0x0 KECCAK256 SWAP1 JUMPDEST DUP2 SLOAD DUP2 MSTORE SWAP1 PUSH1 0x1 ADD SWAP1 PUSH1 0x20 ADD DUP1 DUP4 GT PUSH2 0x1538 JUMPI DUP3 SWAP1 SUB PUSH1 0x1F AND DUP3 ADD SWAP2 JUMPDEST POP POP POP POP POP SWAP1 DUP1 PUSH1 0x2 ADD DUP1 SLOAD PUSH2 0x156A SWAP1 PUSH2 0x3F82 JUMP JUMPDEST DUP1 PUSH1 0x1F ADD PUSH1 0x20 DUP1 SWAP2 DIV MUL PUSH1 0x20 ADD PUSH1 0x40 MLOAD SWAP1 DUP2 ADD PUSH1 0x40 MSTORE DUP1 SWAP3 SWAP2 SWAP1 DUP2 DUP2 MSTORE PUSH1 0x20 ADD DUP3 DUP1 SLOAD PUSH2 0x1596 SWAP1 PUSH2 0x3F82 JUMP JUMPDEST DUP1 ISZERO PUSH2 0x15E3 JUMPI DUP1 PUSH1 0x1F LT PUSH2 0x15B8 JUMPI PUSH2 0x100 DUP1 DUP4 SLOAD DIV MUL DUP4 MSTORE SWAP2 PUSH1 0x20 ADD SWAP2 PUSH2 0x15E3 JUMP JUMPDEST DUP3 ADD SWAP2 SWAP1 PUSH1 0x0 MSTORE PUSH1 0x20 PUSH1 0x0 KECCAK256 SWAP1 JUMPDEST DUP2 SLOAD DUP2 MSTORE SWAP1 PUSH1 0x1 ADD SWAP1 PUSH1 0x20 ADD DUP1 DUP4 GT PUSH2 0x15C6 JUMPI DUP3 SWAP1 SUB PUSH1 0x1F AND DUP3 ADD SWAP2 JUMPDEST POP POP POP POP POP SWAP1 DUP1 PUSH1 0x3 ADD SLOAD SWAP1 DUP1 PUSH1 0x4 ADD SLOAD SWAP1 DUP1 PUSH1 0x5 ADD SLOAD SWAP1 DUP1 PUSH1 0x6 ADD SLOAD SWAP1 DUP1 PUSH1 0x7 ADD SLOAD SWAP1 DUP1 PUSH1 0x8 ADD SLOAD SWAP1 DUP1 PUSH1 0x9 ADD PUSH1 0x0 SWAP1 SLOAD SWAP1 PUSH2 0x100 EXP SWAP1 DIV PUSH1 0xFF AND SWAP1 POP DUP11 JUMP JUMPDEST PUSH2 0x163F DUP4 DUP4 DUP4 PUSH1 0x40 MLOAD DUP1 PUSH1 0x20 ADD PUSH1 0x40 MSTORE DUP1 PUSH1 0x0 DUP2 MSTORE POP PUSH2 0x1DD1 JUMP JUMPDEST POP POP POP JUMP JUMPDEST PUSH1 0xB PUSH1 0x20 MSTORE DUP1 PUSH1 0x0 MSTORE PUSH1 0x40 PUSH1 0x0 KECCAK256 PUSH1 0x0 SWAP2 POP SWAP1 POP DUP1 PUSH1 0x0 ADD PUSH1 0x0 SWAP1 SLOAD SWAP1 PUSH2 0x100 EXP SWAP1 DIV PUSH20 0xFFFFFFFFFFFFFFFFFFFFFFFFFFFFFFFFFFFFFFFF AND SWAP1 DUP1 PUSH1 0x1 ADD DUP1 SLOAD PUSH2 0x168D SWAP1 PUSH2 0x3F82 JUMP JUMPDEST DUP1 PUSH1 0x1F ADD PUSH1 0x20 DUP1 SWAP2 DIV MUL PUSH1 0x20 ADD PUSH1 0x40 MLOAD SWAP1 DUP2 ADD PUSH1 0x40 MSTORE DUP1 SWAP3 SWAP2 SWAP1 DUP2 DUP2 MSTORE PUSH1 0x20 ADD DUP3 DUP1 SLOAD PUSH2 0x16B9 SWAP1 PUSH2 0x3F82 JUMP JUMPDEST DUP1 ISZERO PUSH2 0x1706 JUMPI DUP1 PUSH1 0x1F LT PUSH2 0x16DB JUMPI PUSH2 0x100 DUP1 DUP4 SLOAD DIV MUL DUP4 MSTORE SWAP2 PUSH1 0x20 ADD SWAP2 PUSH2 0x1706 JUMP JUMPDEST DUP3 ADD SWAP2 SWAP1 PUSH1 0x0 MSTORE PUSH1 0x20 PUSH1 0x0 KECCAK256 SWAP1 JUMPDEST DUP2 SLOAD DUP2 MSTORE SWAP1 PUSH1 0x1 ADD SWAP1 PUSH1 0x20 ADD DUP1 DUP4 GT PUSH2 0x16E9 JUMPI DUP3 SWAP1 SUB PUSH1 0x1F AND DUP3 ADD SWAP2 JUMPDEST POP POP POP POP POP SWAP1 DUP1 PUSH1 0x2 ADD DUP1 SLOAD PUSH2 0x171B SWAP1 PUSH2 0x3F82 JUMP JUMPDEST DUP1 PUSH1 0x1F ADD PUSH1 0x20 DUP1 SWAP2 DIV MUL PUSH1 0x20 ADD PUSH1 0x40 MLOAD SWAP1 DUP2 ADD PUSH1 0x40 MSTORE DUP1 SWAP3 SWAP2 SWAP1 DUP2 DUP2 MSTORE PUSH1 0x20 ADD DUP3 DUP1 SLOAD PUSH2 0x1747 SWAP1 PUSH2 0x3F82 JUMP JUMPDEST DUP1 ISZERO PUSH2 0x1794 JUMPI DUP1 PUSH1 0x1F LT PUSH2 0x1769 JUMPI PUSH2 0x100 DUP1 DUP4 SLOAD DIV MUL DUP4 MSTORE SWAP2 PUSH1 0x20 ADD SWAP2 PUSH2 0x1794 JUMP JUMPDEST DUP3 ADD SWAP2 SWAP1 PUSH1 0x0 MSTORE PUSH1 0x20 PUSH1 0x0 KECCAK256 SWAP1 JUMPDEST DUP2 SLOAD DUP2 MSTORE SWAP1 PUSH1 0x1 ADD SWAP1 PUSH1 0x20 ADD DUP1 DUP4 GT PUSH2 0x1777 JUMPI DUP3 SWAP1 SUB PUSH1 0x1F AND DUP3 ADD SWAP2 JUMPDEST POP POP POP POP POP SWAP1 DUP1 PUSH1 0x3 ADD SLOAD SWAP1 DUP1 PUSH1 0x4 ADD SLOAD SWAP1 DUP1 PUSH1 0x5 ADD SLOAD SWAP1 DUP1 PUSH1 0x6 ADD SLOAD SWAP1 DUP1 PUSH1 0x7 ADD SLOAD SWAP1 DUP1 PUSH1 0x8 ADD SLOAD SWAP1 DUP1 PUSH1 0x9 ADD PUSH1 0x0 SWAP1 SLOAD SWAP1 PUSH2 0x100 EXP SWAP1 DIV PUSH1 0xFF AND SWAP1 POP DUP11 JUMP JUMPDEST PUSH1 0x60 PUSH1 0x0 PUSH2 0x17E2 DUP4 PUSH2 0x195B JUMP JUMPDEST SWAP1 POP PUSH1 0x0 DUP2 PUSH8 0xFFFFFFFFFFFFFFFF DUP2 GT ISZERO PUSH2 0x1800 JUMPI PUSH2 0x17FF PUSH2 0x3B4A JUMP JUMPDEST JUMPDEST PUSH1 0x40 MLOAD SWAP1 DUP1 DUP3 MSTORE DUP1 PUSH1 0x20 MUL PUSH1 0x20 ADD DUP3 ADD PUSH1 0x40 MSTORE DUP1 ISZERO PUSH2 0x182E JUMPI DUP2 PUSH1 0x20 ADD PUSH1 0x20 DUP3 MUL DUP1 CALLDATASIZE DUP4 CALLDATACOPY DUP1 DUP3 ADD SWAP2 POP POP SWAP1 POP JUMPDEST POP SWAP1 POP PUSH1 0x0 JUMPDEST DUP3 DUP2 LT ISZERO PUSH2 0x18CA JUMPI PUSH1 0xD PUSH1 0x0 DUP7 PUSH20 0xFFFFFFFFFFFFFFFFFFFFFFFFFFFFFFFFFFFFFFFF AND PUSH20 0xFFFFFFFFFFFFFFFFFFFFFFFFFFFFFFFFFFFFFFFF AND DUP2 MSTORE PUSH1 0x20 ADD SWAP1 DUP2 MSTORE PUSH1 0x20 ADD PUSH1 0x0 KECCAK256 DUP2 DUP2 SLOAD DUP2 LT PUSH2 0x188D JUMPI PUSH2 0x188C PUSH2 0x47AE JUMP JUMPDEST JUMPDEST SWAP1 PUSH1 0x0 MSTORE PUSH1 0x20 PUSH1 0x0 KECCAK256 ADD SLOAD DUP3 DUP3 DUP2 MLOAD DUP2 LT PUSH2 0x18AB JUMPI PUSH2 0x18AA PUSH2 0x47AE JUMP JUMPDEST JUMPDEST PUSH1 0x20 MUL PUSH1 0x20 ADD ADD DUP2 DUP2 MSTORE POP POP DUP1 DUP1 PUSH2 0x18C2 SWAP1 PUSH2 0x4420 JUMP JUMPDEST SWAP2 POP POP PUSH2 0x1834 JUMP JUMPDEST POP DUP1 SWAP3 POP POP POP SWAP2 SWAP1 POP JUMP JUMPDEST PUSH1 0x0 DUP1 PUSH2 0x18E1 DUP4 PUSH2 0x291A JUMP JUMPDEST SWAP1 POP PUSH1 0x0 PUSH20 0xFFFFFFFFFFFFFFFFFFFFFFFFFFFFFFFFFFFFFFFF AND DUP2 PUSH20 0xFFFFFFFFFFFFFFFFFFFFFFFFFFFFFFFFFFFFFFFF AND SUB PUSH2 0x1952 JUMPI PUSH1 0x40 MLOAD PUSH32 0x8C379A000000000000000000000000000000000000000000000000000000000 DUP2 MSTORE PUSH1 0x4 ADD PUSH2 0x1949 SWAP1 PUSH2 0x4829 JUMP JUMPDEST PUSH1 0x40 MLOAD DUP1 SWAP2 SUB SWAP1 REVERT JUMPDEST DUP1 SWAP2 POP POP SWAP2 SWAP1 POP JUMP JUMPDEST PUSH1 0x0 DUP1 PUSH20 0xFFFFFFFFFFFFFFFFFFFFFFFFFFFFFFFFFFFFFFFF AND DUP3 PUSH20 0xFFFFFFFFFFFFFFFFFFFFFFFFFFFFFFFFFFFFFFFF AND SUB PUSH2 0x19CB JUMPI PUSH1 0x40 MLOAD PUSH32 0x8C379A000000000000000000000000000000000000000000000000000000000 DUP2 MSTORE PUSH1 0x4 ADD PUSH2 0x19C2 SWAP1 PUSH2 0x48BB JUMP JUMPDEST PUSH1 0x40 MLOAD DUP1 SWAP2 SUB SWAP1 REVERT JUMPDEST PUSH1 0x3 PUSH1 0x0 DUP4 PUSH20 0xFFFFFFFFFFFFFFFFFFFFFFFFFFFFFFFFFFFFFFFF AND PUSH20 0xFFFFFFFFFFFFFFFFFFFFFFFFFFFFFFFFFFFFFFFF AND DUP2 MSTORE PUSH1 0x20 ADD SWAP1 DUP2 MSTORE PUSH1 0x20 ADD PUSH1 0x0 KECCAK256 SLOAD SWAP1 POP SWAP2 SWAP1 POP JUMP JUMPDEST PUSH1 0x60 PUSH1 0x0 DUP1 PUSH1 0x0 PUSH1 0xA DUP1 SLOAD SWAP1 POP PUSH8 0xFFFFFFFFFFFFFFFF DUP2 GT ISZERO PUSH2 0x1A38 JUMPI PUSH2 0x1A37 PUSH2 0x3B4A JUMP JUMPDEST JUMPDEST PUSH1 0x40 MLOAD SWAP1 DUP1 DUP3 MSTORE DUP1 PUSH1 0x20 MUL PUSH1 0x20 ADD DUP3 ADD PUSH1 0x40 MSTORE DUP1 ISZERO PUSH2 0x1A71 JUMPI DUP2 PUSH1 0x20 ADD JUMPDEST PUSH2 0x1A5E PUSH2 0x334E JUMP JUMPDEST DUP2 MSTORE PUSH1 0x20 ADD SWAP1 PUSH1 0x1 SWAP1 SUB SWAP1 DUP2 PUSH2 0x1A56 JUMPI SWAP1 POP JUMPDEST POP SWAP1 POP JUMPDEST PUSH1 0xA DUP1 SLOAD SWAP1 POP DUP4 LT ISZERO PUSH2 0x1D1E JUMPI PUSH1 0x0 PUSH1 0xA DUP5 DUP2 SLOAD DUP2 LT PUSH2 0x1A98 JUMPI PUSH2 0x1A97 PUSH2 0x47AE JUMP JUMPDEST JUMPDEST SWAP1 PUSH1 0x0 MSTORE PUSH1 0x20 PUSH1 0x0 KECCAK256 SWAP1 PUSH1 0xA MUL ADD PUSH1 0x40 MLOAD DUP1 PUSH2 0x140 ADD PUSH1 0x40 MSTORE SWAP1 DUP2 PUSH1 0x0 DUP3 ADD PUSH1 0x0 SWAP1 SLOAD SWAP1 PUSH2 0x100 EXP SWAP1 DIV PUSH20 0xFFFFFFFFFFFFFFFFFFFFFFFFFFFFFFFFFFFFFFFF AND PUSH20 0xFFFFFFFFFFFFFFFFFFFFFFFFFFFFFFFFFFFFFFFF AND PUSH20 0xFFFFFFFFFFFFFFFFFFFFFFFFFFFFFFFFFFFFFFFF AND DUP2 MSTORE PUSH1 0x20 ADD PUSH1 0x1 DUP3 ADD DUP1 SLOAD PUSH2 0x1B18 SWAP1 PUSH2 0x3F82 JUMP JUMPDEST DUP1 PUSH1 0x1F ADD PUSH1 0x20 DUP1 SWAP2 DIV MUL PUSH1 0x20 ADD PUSH1 0x40 MLOAD SWAP1 DUP2 ADD PUSH1 0x40 MSTORE DUP1 SWAP3 SWAP2 SWAP1 DUP2 DUP2 MSTORE PUSH1 0x20 ADD DUP3 DUP1 SLOAD PUSH2 0x1B44 SWAP1 PUSH2 0x3F82 JUMP JUMPDEST DUP1 ISZERO PUSH2 0x1B91 JUMPI DUP1 PUSH1 0x1F LT PUSH2 0x1B66 JUMPI PUSH2 0x100 DUP1 DUP4 SLOAD DIV MUL DUP4 MSTORE SWAP2 PUSH1 0x20 ADD SWAP2 PUSH2 0x1B91 JUMP JUMPDEST DUP3 ADD SWAP2 SWAP1 PUSH1 0x0 MSTORE PUSH1 0x20 PUSH1 0x0 KECCAK256 SWAP1 JUMPDEST DUP2 SLOAD DUP2 MSTORE SWAP1 PUSH1 0x1 ADD SWAP1 PUSH1 0x20 ADD DUP1 DUP4 GT PUSH2 0x1B74 JUMPI DUP3 SWAP1 SUB PUSH1 0x1F AND DUP3 ADD SWAP2 JUMPDEST POP POP POP POP POP DUP2 MSTORE PUSH1 0x20 ADD PUSH1 0x2 DUP3 ADD DUP1 SLOAD PUSH2 0x1BAA SWAP1 PUSH2 0x3F82 JUMP JUMPDEST DUP1 PUSH1 0x1F ADD PUSH1 0x20 DUP1 SWAP2 DIV MUL PUSH1 0x20 ADD PUSH1 0x40 MLOAD SWAP1 DUP2 ADD PUSH1 0x40 MSTORE DUP1 SWAP3 SWAP2 SWAP1 DUP2 DUP2 MSTORE PUSH1 0x20 ADD DUP3 DUP1 SLOAD PUSH2 0x1BD6 SWAP1 PUSH2 0x3F82 JUMP JUMPDEST DUP1 ISZERO PUSH2 0x1C23 JUMPI DUP1 PUSH1 0x1F LT PUSH2 0x1BF8 JUMPI PUSH2 0x100 DUP1 DUP4 SLOAD DIV MUL DUP4 MSTORE SWAP2 PUSH1 0x20 ADD SWAP2 PUSH2 0x1C23 JUMP JUMPDEST DUP3 ADD SWAP2 SWAP1 PUSH1 0x0 MSTORE PUSH1 0x20 PUSH1 0x0 KECCAK256 SWAP1 JUMPDEST DUP2 SLOAD DUP2 MSTORE SWAP1 PUSH1 0x1 ADD SWAP1 PUSH1 0x20 ADD DUP1 DUP4 GT PUSH2 0x1C06 JUMPI DUP3 SWAP1 SUB PUSH1 0x1F AND DUP3 ADD SWAP2 JUMPDEST POP POP POP POP POP DUP2 MSTORE PUSH1 0x20 ADD PUSH1 0x3 DUP3 ADD SLOAD DUP2 MSTORE PUSH1 0x20 ADD PUSH1 0x4 DUP3 ADD SLOAD DUP2 MSTORE PUSH1 0x20 ADD PUSH1 0x5 DUP3 ADD SLOAD DUP2 MSTORE PUSH1 0x20 ADD PUSH1 0x6 DUP3 ADD SLOAD DUP2 MSTORE PUSH1 0x20 ADD PUSH1 0x7 DUP3 ADD SLOAD DUP2 MSTORE PUSH1 0x20 ADD PUSH1 0x8 DUP3 ADD SLOAD DUP2 MSTORE PUSH1 0x20 ADD PUSH1 0x9 DUP3 ADD PUSH1 0x0 SWAP1 SLOAD SWAP1 PUSH2 0x100 EXP SWAP1 DIV PUSH1 0xFF AND ISZERO ISZERO ISZERO ISZERO DUP2 MSTORE POP POP SWAP1 POP DUP6 PUSH1 0x40 MLOAD PUSH1 0x20 ADD PUSH2 0x1C96 SWAP2 SWAP1 PUSH2 0x490C JUMP JUMPDEST PUSH1 0x40 MLOAD PUSH1 0x20 DUP2 DUP4 SUB SUB DUP2 MSTORE SWAP1 PUSH1 0x40 MSTORE DUP1 MLOAD SWAP1 PUSH1 0x20 ADD KECCAK256 DUP2 PUSH1 0x40 ADD MLOAD PUSH1 0x40 MLOAD PUSH1 0x20 ADD PUSH2 0x1CC1 SWAP2 SWAP1 PUSH2 0x490C JUMP JUMPDEST PUSH1 0x40 MLOAD PUSH1 0x20 DUP2 DUP4 SUB SUB DUP2 MSTORE SWAP1 PUSH1 0x40 MSTORE DUP1 MLOAD SWAP1 PUSH1 0x20 ADD KECCAK256 SUB PUSH2 0x1D0A JUMPI DUP1 DUP3 DUP5 DUP2 MLOAD DUP2 LT PUSH2 0x1CF0 JUMPI PUSH2 0x1CEF PUSH2 0x47AE JUMP JUMPDEST JUMPDEST PUSH1 0x20 MUL PUSH1 0x20 ADD ADD DUP2 SWAP1 MSTORE POP DUP3 DUP1 PUSH2 0x1D06 SWAP1 PUSH2 0x4420 JUMP JUMPDEST SWAP4 POP POP JUMPDEST POP DUP3 DUP1 PUSH2 0x1D16 SWAP1 PUSH2 0x4420 JUMP JUMPDEST SWAP4 POP POP PUSH2 0x1A75 JUMP JUMPDEST DUP1 SWAP4 POP POP POP POP SWAP2 SWAP1 POP JUMP JUMPDEST PUSH1 0x60 PUSH1 0x1 DUP1 SLOAD PUSH2 0x1D38 SWAP1 PUSH2 0x3F82 JUMP JUMPDEST DUP1 PUSH1 0x1F ADD PUSH1 0x20 DUP1 SWAP2 DIV MUL PUSH1 0x20 ADD PUSH1 0x40 MLOAD SWAP1 DUP2 ADD PUSH1 0x40 MSTORE DUP1 SWAP3 SWAP2 SWAP1 DUP2 DUP2 MSTORE PUSH1 0x20 ADD DUP3 DUP1 SLOAD PUSH2 0x1D64 SWAP1 PUSH2 0x3F82 JUMP JUMPDEST DUP1 ISZERO PUSH2 0x1DB1 JUMPI DUP1 PUSH1 0x1F LT PUSH2 0x1D86 JUMPI PUSH2 0x100 DUP1 DUP4 SLOAD DIV MUL DUP4 MSTORE SWAP2 PUSH1 0x20 ADD SWAP2 PUSH2 0x1DB1 JUMP JUMPDEST DUP3 ADD SWAP2 SWAP1 PUSH1 0x0 MSTORE PUSH1 0x20 PUSH1 0x0 KECCAK256 SWAP1 JUMPDEST DUP2 SLOAD DUP2 MSTORE SWAP1 PUSH1 0x1 ADD SWAP1 PUSH1 0x20 ADD DUP1 DUP4 GT PUSH2 0x1D94 JUMPI DUP3 SWAP1 SUB PUSH1 0x1F AND DUP3 ADD SWAP2 JUMPDEST POP POP POP POP POP SWAP1 POP SWAP1 JUMP JUMPDEST PUSH2 0x1DCD PUSH2 0x1DC6 PUSH2 0x2360 JUMP JUMPDEST DUP4 DUP4 PUSH2 0x2957 JUMP JUMPDEST POP POP JUMP JUMPDEST PUSH2 0x1DE2 PUSH2 0x1DDC PUSH2 0x2360 JUMP JUMPDEST DUP4 PUSH2 0x258C JUMP JUMPDEST PUSH2 0x1E21 JUMPI PUSH1 0x40 MLOAD PUSH32 0x8C379A000000000000000000000000000000000000000000000000000000000 DUP2 MSTORE PUSH1 0x4 ADD PUSH2 0x1E18 SWAP1 PUSH2 0x478E JUMP JUMPDEST PUSH1 0x40 MLOAD DUP1 SWAP2 SUB SWAP1 REVERT JUMPDEST PUSH2 0x1E2D DUP5 DUP5 DUP5 DUP5 PUSH2 0x2AC3 JUMP JUMPDEST POP POP POP POP JUMP JUMPDEST PUSH1 0x60 PUSH2 0x1E3E DUP3 PUSH2 0x2315 JUMP JUMPDEST PUSH1 0x0 PUSH1 0x6 PUSH1 0x0 DUP5 DUP2 MSTORE PUSH1 0x20 ADD SWAP1 DUP2 MSTORE PUSH1 0x20 ADD PUSH1 0x0 KECCAK256 DUP1 SLOAD PUSH2 0x1E5E SWAP1 PUSH2 0x3F82 JUMP JUMPDEST DUP1 PUSH1 0x1F ADD PUSH1 0x20 DUP1 SWAP2 DIV MUL PUSH1 0x20 ADD PUSH1 0x40 MLOAD SWAP1 DUP2 ADD PUSH1 0x40 MSTORE DUP1 SWAP3 SWAP2 SWAP1 DUP2 DUP2 MSTORE PUSH1 0x20 ADD DUP3 DUP1 SLOAD PUSH2 0x1E8A SWAP1 PUSH2 0x3F82 JUMP JUMPDEST DUP1 ISZERO PUSH2 0x1ED7 JUMPI DUP1 PUSH1 0x1F LT PUSH2 0x1EAC JUMPI PUSH2 0x100 DUP1 DUP4 SLOAD DIV MUL DUP4 MSTORE SWAP2 PUSH1 0x20 ADD SWAP2 PUSH2 0x1ED7 JUMP JUMPDEST DUP3 ADD SWAP2 SWAP1 PUSH1 0x0 MSTORE PUSH1 0x20 PUSH1 0x0 KECCAK256 SWAP1 JUMPDEST DUP2 SLOAD DUP2 MSTORE SWAP1 PUSH1 0x1 ADD SWAP1 PUSH1 0x20 ADD DUP1 DUP4 GT PUSH2 0x1EBA JUMPI DUP3 SWAP1 SUB PUSH1 0x1F AND DUP3 ADD SWAP2 JUMPDEST POP POP POP POP POP SWAP1 POP PUSH1 0x0 PUSH2 0x1EE8 PUSH2 0x2B1F JUMP JUMPDEST SWAP1 POP PUSH1 0x0 DUP2 MLOAD SUB PUSH2 0x1EFD JUMPI DUP2 SWAP3 POP POP POP PUSH2 0x1F40 JUMP JUMPDEST PUSH1 0x0 DUP3 MLOAD GT ISZERO PUSH2 0x1F32 JUMPI DUP1 DUP3 PUSH1 0x40 MLOAD PUSH1 0x20 ADD PUSH2 0x1F1A SWAP3 SWAP2 SWAP1 PUSH2 0x4923 JUMP JUMPDEST PUSH1 0x40 MLOAD PUSH1 0x20 DUP2 DUP4 SUB SUB DUP2 MSTORE SWAP1 PUSH1 0x40 MSTORE SWAP3 POP POP POP PUSH2 0x1F40 JUMP JUMPDEST PUSH2 0x1F3B DUP5 PUSH2 0x2B36 JUMP JUMPDEST SWAP3 POP POP POP JUMPDEST SWAP2 SWAP1 POP JUMP JUMPDEST PUSH1 0x0 PUSH1 0x5 PUSH1 0x0 DUP5 PUSH20 0xFFFFFFFFFFFFFFFFFFFFFFFFFFFFFFFFFFFFFFFF AND PUSH20 0xFFFFFFFFFFFFFFFFFFFFFFFFFFFFFFFFFFFFFFFF AND DUP2 MSTORE PUSH1 0x20 ADD SWAP1 DUP2 MSTORE PUSH1 0x20 ADD PUSH1 0x0 KECCAK256 PUSH1 0x0 DUP4 PUSH20 0xFFFFFFFFFFFFFFFFFFFFFFFFFFFFFFFFFFFFFFFF AND PUSH20 0xFFFFFFFFFFFFFFFFFFFFFFFFFFFFFFFFFFFFFFFF AND DUP2 MSTORE PUSH1 0x20 ADD SWAP1 DUP2 MSTORE PUSH1 0x20 ADD PUSH1 0x0 KECCAK256 PUSH1 0x0 SWAP1 SLOAD SWAP1 PUSH2 0x100 EXP SWAP1 DIV PUSH1 0xFF AND SWAP1 POP SWAP3 SWAP2 POP POP JUMP JUMPDEST PUSH1 0x0 PUSH1 0x40 MLOAD DUP1 PUSH2 0x140 ADD PUSH1 0x40 MSTORE DUP1 CALLER PUSH20 0xFFFFFFFFFFFFFFFFFFFFFFFFFFFFFFFFFFFFFFFF AND DUP2 MSTORE PUSH1 0x20 ADD DUP5 DUP2 MSTORE PUSH1 0x20 ADD DUP4 DUP2 MSTORE PUSH1 0x20 ADD PUSH1 0x8 SLOAD DUP2 MSTORE PUSH1 0x20 ADD PUSH1 0x0 DUP2 MSTORE PUSH1 0x20 ADD DUP9 DUP2 MSTORE PUSH1 0x20 ADD DUP6 DUP2 MSTORE PUSH1 0x20 ADD DUP8 DUP2 MSTORE PUSH1 0x20 ADD DUP7 TIMESTAMP PUSH2 0x203C SWAP2 SWAP1 PUSH2 0x4947 JUMP JUMPDEST DUP2 MSTORE PUSH1 0x20 ADD PUSH1 0x0 ISZERO ISZERO DUP2 MSTORE POP SWAP1 POP DUP1 PUSH1 0xB PUSH1 0x0 PUSH1 0x8 SLOAD DUP2 MSTORE PUSH1 0x20 ADD SWAP1 DUP2 MSTORE PUSH1 0x20 ADD PUSH1 0x0 KECCAK256 PUSH1 0x0 DUP3 ADD MLOAD DUP2 PUSH1 0x0 ADD PUSH1 0x0 PUSH2 0x100 EXP DUP2 SLOAD DUP2 PUSH20 0xFFFFFFFFFFFFFFFFFFFFFFFFFFFFFFFFFFFFFFFF MUL NOT AND SWAP1 DUP4 PUSH20 0xFFFFFFFFFFFFFFFFFFFFFFFFFFFFFFFFFFFFFFFF AND MUL OR SWAP1 SSTORE POP PUSH1 0x20 DUP3 ADD MLOAD DUP2 PUSH1 0x1 ADD SWAP1 DUP2 PUSH2 0x20BC SWAP2 SWAP1 PUSH2 0x497B JUMP JUMPDEST POP PUSH1 0x40 DUP3 ADD MLOAD DUP2 PUSH1 0x2 ADD SWAP1 DUP2 PUSH2 0x20D2 SWAP2 SWAP1 PUSH2 0x497B JUMP JUMPDEST POP PUSH1 0x60 DUP3 ADD MLOAD DUP2 PUSH1 0x3 ADD SSTORE PUSH1 0x80 DUP3 ADD MLOAD DUP2 PUSH1 0x4 ADD SSTORE PUSH1 0xA0 DUP3 ADD MLOAD DUP2 PUSH1 0x5 ADD SSTORE PUSH1 0xC0 DUP3 ADD MLOAD DUP2 PUSH1 0x6 ADD SSTORE PUSH1 0xE0 DUP3 ADD MLOAD DUP2 PUSH1 0x7 ADD SSTORE PUSH2 0x100 DUP3 ADD MLOAD DUP2 PUSH1 0x8 ADD SSTORE PUSH2 0x120 DUP3 ADD MLOAD DUP2 PUSH1 0x9 ADD PUSH1 0x0 PUSH2 0x100 EXP DUP2 SLOAD DUP2 PUSH1 0xFF MUL NOT AND SWAP1 DUP4 ISZERO ISZERO MUL OR SWAP1 SSTORE POP SWAP1 POP POP PUSH1 0xA DUP2 SWAP1 DUP1 PUSH1 0x1 DUP2 SLOAD ADD DUP1 DUP3 SSTORE DUP1 SWAP2 POP POP PUSH1 0x1 SWAP1 SUB SWAP1 PUSH1 0x0 MSTORE PUSH1 0x20 PUSH1 0x0 KECCAK256 SWAP1 PUSH1 0xA MUL ADD PUSH1 0x0 SWAP1 SWAP2 SWAP1 SWAP2 SWAP1 SWAP2 POP PUSH1 0x0 DUP3 ADD MLOAD DUP2 PUSH1 0x0 ADD PUSH1 0x0 PUSH2 0x100 EXP DUP2 SLOAD DUP2 PUSH20 0xFFFFFFFFFFFFFFFFFFFFFFFFFFFFFFFFFFFFFFFF MUL NOT AND SWAP1 DUP4 PUSH20 0xFFFFFFFFFFFFFFFFFFFFFFFFFFFFFFFFFFFFFFFF AND MUL OR SWAP1 SSTORE POP PUSH1 0x20 DUP3 ADD MLOAD DUP2 PUSH1 0x1 ADD SWAP1 DUP2 PUSH2 0x21BC SWAP2 SWAP1 PUSH2 0x497B JUMP JUMPDEST POP PUSH1 0x40 DUP3 ADD MLOAD DUP2 PUSH1 0x2 ADD SWAP1 DUP2 PUSH2 0x21D2 SWAP2 SWAP1 PUSH2 0x497B JUMP JUMPDEST POP PUSH1 0x60 DUP3 ADD MLOAD DUP2 PUSH1 0x3 ADD SSTORE PUSH1 0x80 DUP3 ADD MLOAD DUP2 PUSH1 0x4 ADD SSTORE PUSH1 0xA0 DUP3 ADD MLOAD DUP2 PUSH1 0x5 ADD SSTORE PUSH1 0xC0 DUP3 ADD MLOAD DUP2 PUSH1 0x6 ADD SSTORE PUSH1 0xE0 DUP3 ADD MLOAD DUP2 PUSH1 0x7 ADD SSTORE PUSH2 0x100 DUP3 ADD MLOAD DUP2 PUSH1 0x8 ADD SSTORE PUSH2 0x120 DUP3 ADD MLOAD DUP2 PUSH1 0x9 ADD PUSH1 0x0 PUSH2 0x100 EXP DUP2 SLOAD DUP2 PUSH1 0xFF MUL NOT AND SWAP1 DUP4 ISZERO ISZERO MUL OR SWAP1 SSTORE POP POP POP PUSH1 0x8 PUSH1 0x0 DUP2 SLOAD DUP1 SWAP3 SWAP2 SWAP1 PUSH2 0x2246 SWAP1 PUSH2 0x4420 JUMP JUMPDEST SWAP2 SWAP1 POP SSTORE POP TIMESTAMP DUP2 PUSH1 0x0 ADD MLOAD PUSH20 0xFFFFFFFFFFFFFFFFFFFFFFFFFFFFFFFFFFFFFFFF AND PUSH32 0xAED489F7CE003F6CD396A4F98E2D629422D9227DCB8040B0153F526EABFCF187 DUP4 PUSH1 0x60 ADD MLOAD PUSH1 0x40 MLOAD PUSH2 0x229A SWAP2 SWAP1 PUSH2 0x3A54 JUMP JUMPDEST PUSH1 0x40 MLOAD DUP1 SWAP2 SUB SWAP1 LOG3 POP POP POP POP POP POP POP JUMP JUMPDEST PUSH1 0x0 PUSH32 0x1FFC9A700000000000000000000000000000000000000000000000000000000 PUSH28 0xFFFFFFFFFFFFFFFFFFFFFFFFFFFFFFFFFFFFFFFFFFFFFFFFFFFFFFFF NOT AND DUP3 PUSH28 0xFFFFFFFFFFFFFFFFFFFFFFFFFFFFFFFFFFFFFFFFFFFFFFFFFFFFFFFF NOT AND EQ SWAP1 POP SWAP2 SWAP1 POP JUMP JUMPDEST PUSH2 0x231E DUP2 PUSH2 0x2B9E JUMP JUMPDEST PUSH2 0x235D JUMPI PUSH1 0x40 MLOAD PUSH32 0x8C379A000000000000000000000000000000000000000000000000000000000 DUP2 MSTORE PUSH1 0x4 ADD PUSH2 0x2354 SWAP1 PUSH2 0x4829 JUMP JUMPDEST PUSH1 0x40 MLOAD DUP1 SWAP2 SUB SWAP1 REVERT JUMPDEST POP JUMP JUMPDEST PUSH1 0x0 CALLER SWAP1 POP SWAP1 JUMP JUMPDEST DUP2 PUSH1 0x4 PUSH1 0x0 DUP4 DUP2 MSTORE PUSH1 0x20 ADD SWAP1 DUP2 MSTORE PUSH1 0x20 ADD PUSH1 0x0 KECCAK256 PUSH1 0x0 PUSH2 0x100 EXP DUP2 SLOAD DUP2 PUSH20 0xFFFFFFFFFFFFFFFFFFFFFFFFFFFFFFFFFFFFFFFF MUL NOT AND SWAP1 DUP4 PUSH20 0xFFFFFFFFFFFFFFFFFFFFFFFFFFFFFFFFFFFFFFFF AND MUL OR SWAP1 SSTORE POP DUP1 DUP3 PUSH20 0xFFFFFFFFFFFFFFFFFFFFFFFFFFFFFFFFFFFFFFFF AND PUSH2 0x23DB DUP4 PUSH2 0x18D5 JUMP JUMPDEST PUSH20 0xFFFFFFFFFFFFFFFFFFFFFFFFFFFFFFFFFFFFFFFF AND PUSH32 0x8C5BE1E5EBEC7D5BD14F71427D1E84F3DD0314C0F7B2291E5B200AC8C7C3B925 PUSH1 0x40 MLOAD PUSH1 0x40 MLOAD DUP1 SWAP2 SUB SWAP1 LOG4 POP POP JUMP JUMPDEST PUSH1 0x0 PUSH1 0x9 PUSH1 0x0 SWAP1 SLOAD SWAP1 PUSH2 0x100 EXP SWAP1 DIV PUSH20 0xFFFFFFFFFFFFFFFFFFFFFFFFFFFFFFFFFFFFFFFF AND PUSH20 0xFFFFFFFFFFFFFFFFFFFFFFFFFFFFFFFFFFFFFFFF AND PUSH4 0xFEAF968C PUSH1 0x40 MLOAD DUP2 PUSH4 0xFFFFFFFF AND PUSH1 0xE0 SHL DUP2 MSTORE PUSH1 0x4 ADD PUSH1 0xA0 PUSH1 0x40 MLOAD DUP1 DUP4 SUB DUP2 DUP7 GAS STATICCALL ISZERO DUP1 ISZERO PUSH2 0x2490 JUMPI RETURNDATASIZE PUSH1 0x0 DUP1 RETURNDATACOPY RETURNDATASIZE PUSH1 0x0 REVERT JUMPDEST POP POP POP POP PUSH1 0x40 MLOAD RETURNDATASIZE PUSH1 0x1F NOT PUSH1 0x1F DUP3 ADD AND DUP3 ADD DUP1 PUSH1 0x40 MSTORE POP DUP2 ADD SWAP1 PUSH2 0x24B4 SWAP2 SWAP1 PUSH2 0x4ADA JUMP JUMPDEST POP POP POP SWAP2 POP POP PUSH1 0x0 PUSH5 0x2540BE400 DUP3 PUSH2 0x24CD SWAP2 SWAP1 PUSH2 0x4B55 JUMP JUMPDEST SWAP1 POP DUP1 DUP4 PUSH1 0x6 ADD DUP2 SWAP1 SSTORE POP POP POP POP JUMP JUMPDEST PUSH1 0x0 DUP2 PUSH1 0x0 ADD SLOAD SWAP1 POP SWAP2 SWAP1 POP JUMP JUMPDEST PUSH2 0x2505 DUP3 DUP3 PUSH1 0x40 MLOAD DUP1 PUSH1 0x20 ADD PUSH1 0x40 MSTORE DUP1 PUSH1 0x0 DUP2 MSTORE POP PUSH2 0x2BDF JUMP JUMPDEST POP POP JUMP JUMPDEST PUSH2 0x2512 DUP3 PUSH2 0x2B9E JUMP JUMPDEST PUSH2 0x2551 JUMPI PUSH1 0x40 MLOAD PUSH32 0x8C379A000000000000000000000000000000000000000000000000000000000 DUP2 MSTORE PUSH1 0x4 ADD PUSH2 0x2548 SWAP1 PUSH2 0x4C3F JUMP JUMPDEST PUSH1 0x40 MLOAD DUP1 SWAP2 SUB SWAP1 REVERT JUMPDEST DUP1 PUSH1 0x6 PUSH1 0x0 DUP5 DUP2 MSTORE PUSH1 0x20 ADD SWAP1 DUP2 MSTORE PUSH1 0x20 ADD PUSH1 0x0 KECCAK256 SWAP1 DUP2 PUSH2 0x2571 SWAP2 SWAP1 PUSH2 0x497B JUMP JUMPDEST POP POP POP JUMP JUMPDEST PUSH1 0x1 DUP2 PUSH1 0x0 ADD PUSH1 0x0 DUP3 DUP3 SLOAD ADD SWAP3 POP POP DUP2 SWAP1 SSTORE POP POP JUMP JUMPDEST PUSH1 0x0 DUP1 PUSH2 0x2598 DUP4 PUSH2 0x18D5 JUMP JUMPDEST SWAP1 POP DUP1 PUSH20 0xFFFFFFFFFFFFFFFFFFFFFFFFFFFFFFFFFFFFFFFF AND DUP5 PUSH20 0xFFFFFFFFFFFFFFFFFFFFFFFFFFFFFFFFFFFFFFFF AND EQ DUP1 PUSH2 0x25DA JUMPI POP PUSH2 0x25D9 DUP2 DUP6 PUSH2 0x1F45 JUMP JUMPDEST JUMPDEST DUP1 PUSH2 0x2618 JUMPI POP DUP4 PUSH20 0xFFFFFFFFFFFFFFFFFFFFFFFFFFFFFFFFFFFFFFFF AND PUSH2 0x2600 DUP5 PUSH2 0xBD4 JUMP JUMPDEST PUSH20 0xFFFFFFFFFFFFFFFFFFFFFFFFFFFFFFFFFFFFFFFF AND EQ JUMPDEST SWAP2 POP POP SWAP3 SWAP2 POP POP JUMP JUMPDEST DUP3 PUSH20 0xFFFFFFFFFFFFFFFFFFFFFFFFFFFFFFFFFFFFFFFF AND PUSH2 0x2641 DUP3 PUSH2 0x18D5 JUMP JUMPDEST PUSH20 0xFFFFFFFFFFFFFFFFFFFFFFFFFFFFFFFFFFFFFFFF AND EQ PUSH2 0x2697 JUMPI PUSH1 0x40 MLOAD PUSH32 0x8C379A000000000000000000000000000000000000000000000000000000000 DUP2 MSTORE PUSH1 0x4 ADD PUSH2 0x268E SWAP1 PUSH2 0x4CD1 JUMP JUMPDEST PUSH1 0x40 MLOAD DUP1 SWAP2 SUB SWAP1 REVERT JUMPDEST PUSH1 0x0 PUSH20 0xFFFFFFFFFFFFFFFFFFFFFFFFFFFFFFFFFFFFFFFF AND DUP3 PUSH20 0xFFFFFFFFFFFFFFFFFFFFFFFFFFFFFFFFFFFFFFFF AND SUB PUSH2 0x2706 JUMPI PUSH1 0x40 MLOAD PUSH32 0x8C379A000000000000000000000000000000000000000000000000000000000 DUP2 MSTORE PUSH1 0x4 ADD PUSH2 0x26FD SWAP1 PUSH2 0x4D63 JUMP JUMPDEST PUSH1 0x40 MLOAD DUP1 SWAP2 SUB SWAP1 REVERT JUMPDEST PUSH2 0x2713 DUP4 DUP4 DUP4 PUSH1 0x1 PUSH2 0x2C3A JUMP JUMPDEST DUP3 PUSH20 0xFFFFFFFFFFFFFFFFFFFFFFFFFFFFFFFFFFFFFFFF AND PUSH2 0x2733 DUP3 PUSH2 0x18D5 JUMP JUMPDEST PUSH20 0xFFFFFFFFFFFFFFFFFFFFFFFFFFFFFFFFFFFFFFFF AND EQ PUSH2 0x2789 JUMPI PUSH1 0x40 MLOAD PUSH32 0x8C379A000000000000000000000000000000000000000000000000000000000 DUP2 MSTORE PUSH1 0x4 ADD PUSH2 0x2780 SWAP1 PUSH2 0x4CD1 JUMP JUMPDEST PUSH1 0x40 MLOAD DUP1 SWAP2 SUB SWAP1 REVERT JUMPDEST PUSH1 0x4 PUSH1 0x0 DUP3 DUP2 MSTORE PUSH1 0x20 ADD SWAP1 DUP2 MSTORE PUSH1 0x20 ADD PUSH1 0x0 KECCAK256 PUSH1 0x0 PUSH2 0x100 EXP DUP2 SLOAD SWAP1 PUSH20 0xFFFFFFFFFFFFFFFFFFFFFFFFFFFFFFFFFFFFFFFF MUL NOT AND SWAP1 SSTORE PUSH1 0x1 PUSH1 0x3 PUSH1 0x0 DUP6 PUSH20 0xFFFFFFFFFFFFFFFFFFFFFFFFFFFFFFFFFFFFFFFF AND PUSH20 0xFFFFFFFFFFFFFFFFFFFFFFFFFFFFFFFFFFFFFFFF AND DUP2 MSTORE PUSH1 0x20 ADD SWAP1 DUP2 MSTORE PUSH1 0x20 ADD PUSH1 0x0 KECCAK256 PUSH1 0x0 DUP3 DUP3 SLOAD SUB SWAP3 POP POP DUP2 SWAP1 SSTORE POP PUSH1 0x1 PUSH1 0x3 PUSH1 0x0 DUP5 PUSH20 0xFFFFFFFFFFFFFFFFFFFFFFFFFFFFFFFFFFFFFFFF AND PUSH20 0xFFFFFFFFFFFFFFFFFFFFFFFFFFFFFFFFFFFFFFFF AND DUP2 MSTORE PUSH1 0x20 ADD SWAP1 DUP2 MSTORE PUSH1 0x20 ADD PUSH1 0x0 KECCAK256 PUSH1 0x0 DUP3 DUP3 SLOAD ADD SWAP3 POP POP DUP2 SWAP1 SSTORE POP DUP2 PUSH1 0x2 PUSH1 0x0 DUP4 DUP2 MSTORE PUSH1 0x20 ADD SWAP1 DUP2 MSTORE PUSH1 0x20 ADD PUSH1 0x0 KECCAK256 PUSH1 0x0 PUSH2 0x100 EXP DUP2 SLOAD DUP2 PUSH20 0xFFFFFFFFFFFFFFFFFFFFFFFFFFFFFFFFFFFFFFFF MUL NOT AND SWAP1 DUP4 PUSH20 0xFFFFFFFFFFFFFFFFFFFFFFFFFFFFFFFFFFFFFFFF AND MUL OR SWAP1 SSTORE POP DUP1 DUP3 PUSH20 0xFFFFFFFFFFFFFFFFFFFFFFFFFFFFFFFFFFFFFFFF AND DUP5 PUSH20 0xFFFFFFFFFFFFFFFFFFFFFFFFFFFFFFFFFFFFFFFF AND PUSH32 0xDDF252AD1BE2C89B69C2B068FC378DAA952BA7F163C4A11628F55A4DF523B3EF PUSH1 0x40 MLOAD PUSH1 0x40 MLOAD DUP1 SWAP2 SUB SWAP1 LOG4 PUSH2 0x2915 DUP4 DUP4 DUP4 PUSH1 0x1 PUSH2 0x2D60 JUMP JUMPDEST POP POP POP JUMP JUMPDEST PUSH1 0x0 PUSH1 0x2 PUSH1 0x0 DUP4 DUP2 MSTORE PUSH1 0x20 ADD SWAP1 DUP2 MSTORE PUSH1 0x20 ADD PUSH1 0x0 KECCAK256 PUSH1 0x0 SWAP1 SLOAD SWAP1 PUSH2 0x100 EXP SWAP1 DIV PUSH20 0xFFFFFFFFFFFFFFFFFFFFFFFFFFFFFFFFFFFFFFFF AND SWAP1 POP SWAP2 SWAP1 POP JUMP JUMPDEST DUP2 PUSH20 0xFFFFFFFFFFFFFFFFFFFFFFFFFFFFFFFFFFFFFFFF AND DUP4 PUSH20 0xFFFFFFFFFFFFFFFFFFFFFFFFFFFFFFFFFFFFFFFF AND SUB PUSH2 0x29C5 JUMPI PUSH1 0x40 MLOAD PUSH32 0x8C379A000000000000000000000000000000000000000000000000000000000 DUP2 MSTORE PUSH1 0x4 ADD PUSH2 0x29BC SWAP1 PUSH2 0x4DCF JUMP JUMPDEST PUSH1 0x40 MLOAD DUP1 SWAP2 SUB SWAP1 REVERT JUMPDEST DUP1 PUSH1 0x5 PUSH1 0x0 DUP6 PUSH20 0xFFFFFFFFFFFFFFFFFFFFFFFFFFFFFFFFFFFFFFFF AND PUSH20 0xFFFFFFFFFFFFFFFFFFFFFFFFFFFFFFFFFFFFFFFF AND DUP2 MSTORE PUSH1 0x20 ADD SWAP1 DUP2 MSTORE PUSH1 0x20 ADD PUSH1 0x0 KECCAK256 PUSH1 0x0 DUP5 PUSH20 0xFFFFFFFFFFFFFFFFFFFFFFFFFFFFFFFFFFFFFFFF AND PUSH20 0xFFFFFFFFFFFFFFFFFFFFFFFFFFFFFFFFFFFFFFFF AND DUP2 MSTORE PUSH1 0x20 ADD SWAP1 DUP2 MSTORE PUSH1 0x20 ADD PUSH1 0x0 KECCAK256 PUSH1 0x0 PUSH2 0x100 EXP DUP2 SLOAD DUP2 PUSH1 0xFF MUL NOT AND SWAP1 DUP4 ISZERO ISZERO MUL OR SWAP1 SSTORE POP DUP2 PUSH20 0xFFFFFFFFFFFFFFFFFFFFFFFFFFFFFFFFFFFFFFFF AND DUP4 PUSH20 0xFFFFFFFFFFFFFFFFFFFFFFFFFFFFFFFFFFFFFFFF AND PUSH32 0x17307EAB39AB6107E8899845AD3D59BD9653F200F220920489CA2B5937696C31 DUP4 PUSH1 0x40 MLOAD PUSH2 0x2AB6 SWAP2 SWAP1 PUSH2 0x346D JUMP JUMPDEST PUSH1 0x40 MLOAD DUP1 SWAP2 SUB SWAP1 LOG3 POP POP POP JUMP JUMPDEST PUSH2 0x2ACE DUP5 DUP5 DUP5 PUSH2 0x2621 JUMP JUMPDEST PUSH2 0x2ADA DUP5 DUP5 DUP5 DUP5 PUSH2 0x2D66 JUMP JUMPDEST PUSH2 0x2B19 JUMPI PUSH1 0x40 MLOAD PUSH32 0x8C379A000000000000000000000000000000000000000000000000000000000 DUP2 MSTORE PUSH1 0x4 ADD PUSH2 0x2B10 SWAP1 PUSH2 0x4E61 JUMP JUMPDEST PUSH1 0x40 MLOAD DUP1 SWAP2 SUB SWAP1 REVERT JUMPDEST POP POP POP POP JUMP JUMPDEST PUSH1 0x60 PUSH1 0x40 MLOAD DUP1 PUSH1 0x20 ADD PUSH1 0x40 MSTORE DUP1 PUSH1 0x0 DUP2 MSTORE POP SWAP1 POP SWAP1 JUMP JUMPDEST PUSH1 0x60 PUSH2 0x2B41 DUP3 PUSH2 0x2315 JUMP JUMPDEST PUSH1 0x0 PUSH2 0x2B4B PUSH2 0x2B1F JUMP JUMPDEST SWAP1 POP PUSH1 0x0 DUP2 MLOAD GT PUSH2 0x2B6B JUMPI PUSH1 0x40 MLOAD DUP1 PUSH1 0x20 ADD PUSH1 0x40 MSTORE DUP1 PUSH1 0x0 DUP2 MSTORE POP PUSH2 0x2B96 JUMP JUMPDEST DUP1 PUSH2 0x2B75 DUP5 PUSH2 0x2EED JUMP JUMPDEST PUSH1 0x40 MLOAD PUSH1 0x20 ADD PUSH2 0x2B86 SWAP3 SWAP2 SWAP1 PUSH2 0x4923 JUMP JUMPDEST PUSH1 0x40 MLOAD PUSH1 0x20 DUP2 DUP4 SUB SUB DUP2 MSTORE SWAP1 PUSH1 0x40 MSTORE JUMPDEST SWAP2 POP POP SWAP2 SWAP1 POP JUMP JUMPDEST PUSH1 0x0 DUP1 PUSH20 0xFFFFFFFFFFFFFFFFFFFFFFFFFFFFFFFFFFFFFFFF AND PUSH2 0x2BC0 DUP4 PUSH2 0x291A JUMP JUMPDEST PUSH20 0xFFFFFFFFFFFFFFFFFFFFFFFFFFFFFFFFFFFFFFFF AND EQ ISZERO SWAP1 POP SWAP2 SWAP1 POP JUMP JUMPDEST PUSH2 0x2BE9 DUP4 DUP4 PUSH2 0x2FBB JUMP JUMPDEST PUSH2 0x2BF6 PUSH1 0x0 DUP5 DUP5 DUP5 PUSH2 0x2D66 JUMP JUMPDEST PUSH2 0x2C35 JUMPI PUSH1 0x40 MLOAD PUSH32 0x8C379A000000000000000000000000000000000000000000000000000000000 DUP2 MSTORE PUSH1 0x4 ADD PUSH2 0x2C2C SWAP1 PUSH2 0x4E61 JUMP JUMPDEST PUSH1 0x40 MLOAD DUP1 SWAP2 SUB SWAP1 REVERT JUMPDEST POP POP POP JUMP JUMPDEST PUSH1 0x1 DUP2 GT ISZERO PUSH2 0x2D5A JUMPI PUSH1 0x0 PUSH20 0xFFFFFFFFFFFFFFFFFFFFFFFFFFFFFFFFFFFFFFFF AND DUP5 PUSH20 0xFFFFFFFFFFFFFFFFFFFFFFFFFFFFFFFFFFFFFFFF AND EQ PUSH2 0x2CCE JUMPI DUP1 PUSH1 0x3 PUSH1 0x0 DUP7 PUSH20 0xFFFFFFFFFFFFFFFFFFFFFFFFFFFFFFFFFFFFFFFF AND PUSH20 0xFFFFFFFFFFFFFFFFFFFFFFFFFFFFFFFFFFFFFFFF AND DUP2 MSTORE PUSH1 0x20 ADD SWAP1 DUP2 MSTORE PUSH1 0x20 ADD PUSH1 0x0 KECCAK256 PUSH1 0x0 DUP3 DUP3 SLOAD PUSH2 0x2CC6 SWAP2 SWAP1 PUSH2 0x43A6 JUMP JUMPDEST SWAP3 POP POP DUP2 SWAP1 SSTORE POP JUMPDEST PUSH1 0x0 PUSH20 0xFFFFFFFFFFFFFFFFFFFFFFFFFFFFFFFFFFFFFFFF AND DUP4 PUSH20 0xFFFFFFFFFFFFFFFFFFFFFFFFFFFFFFFFFFFFFFFF AND EQ PUSH2 0x2D59 JUMPI DUP1 PUSH1 0x3 PUSH1 0x0 DUP6 PUSH20 0xFFFFFFFFFFFFFFFFFFFFFFFFFFFFFFFFFFFFFFFF AND PUSH20 0xFFFFFFFFFFFFFFFFFFFFFFFFFFFFFFFFFFFFFFFF AND DUP2 MSTORE PUSH1 0x20 ADD SWAP1 DUP2 MSTORE PUSH1 0x20 ADD PUSH1 0x0 KECCAK256 PUSH1 0x0 DUP3 DUP3 SLOAD PUSH2 0x2D51 SWAP2 SWAP1 PUSH2 0x4947 JUMP JUMPDEST SWAP3 POP POP DUP2 SWAP1 SSTORE POP JUMPDEST JUMPDEST POP POP POP POP JUMP JUMPDEST POP POP POP POP JUMP JUMPDEST PUSH1 0x0 PUSH2 0x2D87 DUP5 PUSH20 0xFFFFFFFFFFFFFFFFFFFFFFFFFFFFFFFFFFFFFFFF AND PUSH2 0x31D8 JUMP JUMPDEST ISZERO PUSH2 0x2EE0 JUMPI DUP4 PUSH20 0xFFFFFFFFFFFFFFFFFFFFFFFFFFFFFFFFFFFFFFFF AND PUSH4 0x150B7A02 PUSH2 0x2DB0 PUSH2 0x2360 JUMP JUMPDEST DUP8 DUP7 DUP7 PUSH1 0x40 MLOAD DUP6 PUSH4 0xFFFFFFFF AND PUSH1 0xE0 SHL DUP2 MSTORE PUSH1 0x4 ADD PUSH2 0x2DD2 SWAP5 SWAP4 SWAP3 SWAP2 SWAP1 PUSH2 0x4ED6 JUMP JUMPDEST PUSH1 0x20 PUSH1 0x40 MLOAD DUP1 DUP4 SUB DUP2 PUSH1 0x0 DUP8 GAS CALL SWAP3 POP POP POP DUP1 ISZERO PUSH2 0x2E0E JUMPI POP PUSH1 0x40 MLOAD RETURNDATASIZE PUSH1 0x1F NOT PUSH1 0x1F DUP3 ADD AND DUP3 ADD DUP1 PUSH1 0x40 MSTORE POP DUP2 ADD SWAP1 PUSH2 0x2E0B SWAP2 SWAP1 PUSH2 0x4F37 JUMP JUMPDEST PUSH1 0x1 JUMPDEST PUSH2 0x2E90 JUMPI RETURNDATASIZE DUP1 PUSH1 0x0 DUP2 EQ PUSH2 0x2E3E JUMPI PUSH1 0x40 MLOAD SWAP2 POP PUSH1 0x1F NOT PUSH1 0x3F RETURNDATASIZE ADD AND DUP3 ADD PUSH1 0x40 MSTORE RETURNDATASIZE DUP3 MSTORE RETURNDATASIZE PUSH1 0x0 PUSH1 0x20 DUP5 ADD RETURNDATACOPY PUSH2 0x2E43 JUMP JUMPDEST PUSH1 0x60 SWAP2 POP JUMPDEST POP PUSH1 0x0 DUP2 MLOAD SUB PUSH2 0x2E88 JUMPI PUSH1 0x40 MLOAD PUSH32 0x8C379A000000000000000000000000000000000000000000000000000000000 DUP2 MSTORE PUSH1 0x4 ADD PUSH2 0x2E7F SWAP1 PUSH2 0x4E61 JUMP JUMPDEST PUSH1 0x40 MLOAD DUP1 SWAP2 SUB SWAP1 REVERT JUMPDEST DUP1 MLOAD DUP2 PUSH1 0x20 ADD REVERT JUMPDEST PUSH4 0x150B7A02 PUSH1 0xE0 SHL PUSH28 0xFFFFFFFFFFFFFFFFFFFFFFFFFFFFFFFFFFFFFFFFFFFFFFFFFFFFFFFF NOT AND DUP2 PUSH28 0xFFFFFFFFFFFFFFFFFFFFFFFFFFFFFFFFFFFFFFFFFFFFFFFFFFFFFFFF NOT AND EQ SWAP2 POP POP PUSH2 0x2EE5 JUMP JUMPDEST PUSH1 0x1 SWAP1 POP JUMPDEST SWAP5 SWAP4 POP POP POP POP JUMP JUMPDEST PUSH1 0x60 PUSH1 0x0 PUSH1 0x1 PUSH2 0x2EFC DUP5 PUSH2 0x31FB JUMP JUMPDEST ADD SWAP1 POP PUSH1 0x0 DUP2 PUSH8 0xFFFFFFFFFFFFFFFF DUP2 GT ISZERO PUSH2 0x2F1B JUMPI PUSH2 0x2F1A PUSH2 0x3B4A JUMP JUMPDEST JUMPDEST PUSH1 0x40 MLOAD SWAP1 DUP1 DUP3 MSTORE DUP1 PUSH1 0x1F ADD PUSH1 0x1F NOT AND PUSH1 0x20 ADD DUP3 ADD PUSH1 0x40 MSTORE DUP1 ISZERO PUSH2 0x2F4D JUMPI DUP2 PUSH1 0x20 ADD PUSH1 0x1 DUP3 MUL DUP1 CALLDATASIZE DUP4 CALLDATACOPY DUP1 DUP3 ADD SWAP2 POP POP SWAP1 POP JUMPDEST POP SWAP1 POP PUSH1 0x0 DUP3 PUSH1 0x20 ADD DUP3 ADD SWAP1 POP JUMPDEST PUSH1 0x1 ISZERO PUSH2 0x2FB0 JUMPI DUP1 DUP1 PUSH1 0x1 SWAP1 SUB SWAP2 POP POP PUSH32 0x3031323334353637383961626364656600000000000000000000000000000000 PUSH1 0xA DUP7 MOD BYTE DUP2 MSTORE8 PUSH1 0xA DUP6 DUP2 PUSH2 0x2FA4 JUMPI PUSH2 0x2FA3 PUSH2 0x4346 JUMP JUMPDEST JUMPDEST DIV SWAP5 POP PUSH1 0x0 DUP6 SUB PUSH2 0x2F5B JUMPI JUMPDEST DUP2 SWAP4 POP POP POP POP SWAP2 SWAP1 POP JUMP JUMPDEST PUSH1 0x0 PUSH20 0xFFFFFFFFFFFFFFFFFFFFFFFFFFFFFFFFFFFFFFFF AND DUP3 PUSH20 0xFFFFFFFFFFFFFFFFFFFFFFFFFFFFFFFFFFFFFFFF AND SUB PUSH2 0x302A JUMPI PUSH1 0x40 MLOAD PUSH32 0x8C379A000000000000000000000000000000000000000000000000000000000 DUP2 MSTORE PUSH1 0x4 ADD PUSH2 0x3021 SWAP1 PUSH2 0x4FB0 JUMP JUMPDEST PUSH1 0x40 MLOAD DUP1 SWAP2 SUB SWAP1 REVERT JUMPDEST PUSH2 0x3033 DUP2 PUSH2 0x2B9E JUMP JUMPDEST ISZERO PUSH2 0x3073 JUMPI PUSH1 0x40 MLOAD PUSH32 0x8C379A000000000000000000000000000000000000000000000000000000000 DUP2 MSTORE PUSH1 0x4 ADD PUSH2 0x306A SWAP1 PUSH2 0x501C JUMP JUMPDEST PUSH1 0x40 MLOAD DUP1 SWAP2 SUB SWAP1 REVERT JUMPDEST PUSH2 0x3081 PUSH1 0x0 DUP4 DUP4 PUSH1 0x1 PUSH2 0x2C3A JUMP JUMPDEST PUSH2 0x308A DUP2 PUSH2 0x2B9E JUMP JUMPDEST ISZERO PUSH2 0x30CA JUMPI PUSH1 0x40 MLOAD PUSH32 0x8C379A000000000000000000000000000000000000000000000000000000000 DUP2 MSTORE PUSH1 0x4 ADD PUSH2 0x30C1 SWAP1 PUSH2 0x501C JUMP JUMPDEST PUSH1 0x40 MLOAD DUP1 SWAP2 SUB SWAP1 REVERT JUMPDEST PUSH1 0x1 PUSH1 0x3 PUSH1 0x0 DUP5 PUSH20 0xFFFFFFFFFFFFFFFFFFFFFFFFFFFFFFFFFFFFFFFF AND PUSH20 0xFFFFFFFFFFFFFFFFFFFFFFFFFFFFFFFFFFFFFFFF AND DUP2 MSTORE PUSH1 0x20 ADD SWAP1 DUP2 MSTORE PUSH1 0x20 ADD PUSH1 0x0 KECCAK256 PUSH1 0x0 DUP3 DUP3 SLOAD ADD SWAP3 POP POP DUP2 SWAP1 SSTORE POP DUP2 PUSH1 0x2 PUSH1 0x0 DUP4 DUP2 MSTORE PUSH1 0x20 ADD SWAP1 DUP2 MSTORE PUSH1 0x20 ADD PUSH1 0x0 KECCAK256 PUSH1 0x0 PUSH2 0x100 EXP DUP2 SLOAD DUP2 PUSH20 0xFFFFFFFFFFFFFFFFFFFFFFFFFFFFFFFFFFFFFFFF MUL NOT AND SWAP1 DUP4 PUSH20 0xFFFFFFFFFFFFFFFFFFFFFFFFFFFFFFFFFFFFFFFF AND MUL OR SWAP1 SSTORE POP DUP1 DUP3 PUSH20 0xFFFFFFFFFFFFFFFFFFFFFFFFFFFFFFFFFFFFFFFF AND PUSH1 0x0 PUSH20 0xFFFFFFFFFFFFFFFFFFFFFFFFFFFFFFFFFFFFFFFF AND PUSH32 0xDDF252AD1BE2C89B69C2B068FC378DAA952BA7F163C4A11628F55A4DF523B3EF PUSH1 0x40 MLOAD PUSH1 0x40 MLOAD DUP1 SWAP2 SUB SWAP1 LOG4 PUSH2 0x31D4 PUSH1 0x0 DUP4 DUP4 PUSH1 0x1 PUSH2 0x2D60 JUMP JUMPDEST POP POP JUMP JUMPDEST PUSH1 0x0 DUP1 DUP3 PUSH20 0xFFFFFFFFFFFFFFFFFFFFFFFFFFFFFFFFFFFFFFFF AND EXTCODESIZE GT SWAP1 POP SWAP2 SWAP1 POP JUMP JUMPDEST PUSH1 0x0 DUP1 PUSH1 0x0 SWAP1 POP PUSH27 0x184F03E93FF9F4DAA797ED6E38ED64BF6A1F010000000000000000 DUP4 LT PUSH2 0x3259 JUMPI PUSH27 0x184F03E93FF9F4DAA797ED6E38ED64BF6A1F010000000000000000 DUP4 DUP2 PUSH2 0x324F JUMPI PUSH2 0x324E PUSH2 0x4346 JUMP JUMPDEST JUMPDEST DIV SWAP3 POP PUSH1 0x40 DUP2 ADD SWAP1 POP JUMPDEST PUSH14 0x4EE2D6D415B85ACEF8100000000 DUP4 LT PUSH2 0x3296 JUMPI PUSH14 0x4EE2D6D415B85ACEF8100000000 DUP4 DUP2 PUSH2 0x328C JUMPI PUSH2 0x328B PUSH2 0x4346 JUMP JUMPDEST JUMPDEST DIV SWAP3 POP PUSH1 0x20 DUP2 ADD SWAP1 POP JUMPDEST PUSH7 0x2386F26FC10000 DUP4 LT PUSH2 0x32C5 JUMPI PUSH7 0x2386F26FC10000 DUP4 DUP2 PUSH2 0x32BB JUMPI PUSH2 0x32BA PUSH2 0x4346 JUMP JUMPDEST JUMPDEST DIV SWAP3 POP PUSH1 0x10 DUP2 ADD SWAP1 POP JUMPDEST PUSH4 0x5F5E100 DUP4 LT PUSH2 0x32EE JUMPI PUSH4 0x5F5E100 DUP4 DUP2 PUSH2 0x32E4 JUMPI PUSH2 0x32E3 PUSH2 0x4346 JUMP JUMPDEST JUMPDEST DIV SWAP3 POP PUSH1 0x8 DUP2 ADD SWAP1 POP JUMPDEST PUSH2 0x2710 DUP4 LT PUSH2 0x3313 JUMPI PUSH2 0x2710 DUP4 DUP2 PUSH2 0x3309 JUMPI PUSH2 0x3308 PUSH2 0x4346 JUMP JUMPDEST JUMPDEST DIV SWAP3 POP PUSH1 0x4 DUP2 ADD SWAP1 POP JUMPDEST PUSH1 0x64 DUP4 LT PUSH2 0x3336 JUMPI PUSH1 0x64 DUP4 DUP2 PUSH2 0x332C JUMPI PUSH2 0x332B PUSH2 0x4346 JUMP JUMPDEST JUMPDEST DIV SWAP3 POP PUSH1 0x2 DUP2 ADD SWAP1 POP JUMPDEST PUSH1 0xA DUP4 LT PUSH2 0x3345 JUMPI PUSH1 0x1 DUP2 ADD SWAP1 POP JUMPDEST DUP1 SWAP2 POP POP SWAP2 SWAP1 POP JUMP JUMPDEST PUSH1 0x40 MLOAD DUP1 PUSH2 0x140 ADD PUSH1 0x40 MSTORE DUP1 PUSH1 0x0 PUSH20 0xFFFFFFFFFFFFFFFFFFFFFFFFFFFFFFFFFFFFFFFF AND DUP2 MSTORE PUSH1 0x20 ADD PUSH1 0x60 DUP2 MSTORE PUSH1 0x20 ADD PUSH1 0x60 DUP2 MSTORE PUSH1 0x20 ADD PUSH1 0x0 DUP2 MSTORE PUSH1 0x20 ADD PUSH1 0x0 DUP2 MSTORE PUSH1 0x20 ADD PUSH1 0x0 DUP2 MSTORE PUSH1 0x20 ADD PUSH1 0x0 DUP2 MSTORE PUSH1 0x20 ADD PUSH1 0x0 DUP2 MSTORE PUSH1 0x20 ADD PUSH1 0x0 DUP2 MSTORE PUSH1 0x20 ADD PUSH1 0x0 ISZERO ISZERO DUP2 MSTORE POP SWAP1 JUMP JUMPDEST PUSH1 0x0 PUSH1 0x40 MLOAD SWAP1 POP SWAP1 JUMP JUMPDEST PUSH1 0x0 DUP1 REVERT JUMPDEST PUSH1 0x0 DUP1 REVERT JUMPDEST PUSH1 0x0 PUSH32 0xFFFFFFFF00000000000000000000000000000000000000000000000000000000 DUP3 AND SWAP1 POP SWAP2 SWAP1 POP JUMP JUMPDEST PUSH2 0x3402 DUP2 PUSH2 0x33CD JUMP JUMPDEST DUP2 EQ PUSH2 0x340D JUMPI PUSH1 0x0 DUP1 REVERT JUMPDEST POP JUMP JUMPDEST PUSH1 0x0 DUP2 CALLDATALOAD SWAP1 POP PUSH2 0x341F DUP2 PUSH2 0x33F9 JUMP JUMPDEST SWAP3 SWAP2 POP POP JUMP JUMPDEST PUSH1 0x0 PUSH1 0x20 DUP3 DUP5 SUB SLT ISZERO PUSH2 0x343B JUMPI PUSH2 0x343A PUSH2 0x33C3 JUMP JUMPDEST JUMPDEST PUSH1 0x0 PUSH2 0x3449 DUP5 DUP3 DUP6 ADD PUSH2 0x3410 JUMP JUMPDEST SWAP2 POP POP SWAP3 SWAP2 POP POP JUMP JUMPDEST PUSH1 0x0 DUP2 ISZERO ISZERO SWAP1 POP SWAP2 SWAP1 POP JUMP JUMPDEST PUSH2 0x3467 DUP2 PUSH2 0x3452 JUMP JUMPDEST DUP3 MSTORE POP POP JUMP JUMPDEST PUSH1 0x0 PUSH1 0x20 DUP3 ADD SWAP1 POP PUSH2 0x3482 PUSH1 0x0 DUP4 ADD DUP5 PUSH2 0x345E JUMP JUMPDEST SWAP3 SWAP2 POP POP JUMP JUMPDEST PUSH1 0x0 PUSH20 0xFFFFFFFFFFFFFFFFFFFFFFFFFFFFFFFFFFFFFFFF DUP3 AND SWAP1 POP SWAP2 SWAP1 POP JUMP JUMPDEST PUSH1 0x0 PUSH2 0x34B3 DUP3 PUSH2 0x3488 JUMP JUMPDEST SWAP1 POP SWAP2 SWAP1 POP JUMP JUMPDEST PUSH2 0x34C3 DUP2 PUSH2 0x34A8 JUMP JUMPDEST DUP2 EQ PUSH2 0x34CE JUMPI PUSH1 0x0 DUP1 REVERT JUMPDEST POP JUMP JUMPDEST PUSH1 0x0 DUP2 CALLDATALOAD SWAP1 POP PUSH2 0x34E0 DUP2 PUSH2 0x34BA JUMP JUMPDEST SWAP3 SWAP2 POP POP JUMP JUMPDEST PUSH1 0x0 PUSH1 0x20 DUP3 DUP5 SUB SLT ISZERO PUSH2 0x34FC JUMPI PUSH2 0x34FB PUSH2 0x33C3 JUMP JUMPDEST JUMPDEST PUSH1 0x0 PUSH2 0x350A DUP5 DUP3 DUP6 ADD PUSH2 0x34D1 JUMP JUMPDEST SWAP2 POP POP SWAP3 SWAP2 POP POP JUMP JUMPDEST PUSH1 0x0 DUP2 MLOAD SWAP1 POP SWAP2 SWAP1 POP JUMP JUMPDEST PUSH1 0x0 DUP3 DUP3 MSTORE PUSH1 0x20 DUP3 ADD SWAP1 POP SWAP3 SWAP2 POP POP JUMP JUMPDEST PUSH1 0x0 DUP2 SWAP1 POP PUSH1 0x20 DUP3 ADD SWAP1 POP SWAP2 SWAP1 POP JUMP JUMPDEST PUSH2 0x3548 DUP2 PUSH2 0x34A8 JUMP JUMPDEST DUP3 MSTORE POP POP JUMP JUMPDEST PUSH1 0x0 DUP2 MLOAD SWAP1 POP SWAP2 SWAP1 POP JUMP JUMPDEST PUSH1 0x0 DUP3 DUP3 MSTORE PUSH1 0x20 DUP3 ADD SWAP1 POP SWAP3 SWAP2 POP POP JUMP JUMPDEST PUSH1 0x0 JUMPDEST DUP4 DUP2 LT ISZERO PUSH2 0x3588 JUMPI DUP1 DUP3 ADD MLOAD DUP2 DUP5 ADD MSTORE PUSH1 0x20 DUP2 ADD SWAP1 POP PUSH2 0x356D JUMP JUMPDEST PUSH1 0x0 DUP5 DUP5 ADD MSTORE POP POP POP POP JUMP JUMPDEST PUSH1 0x0 PUSH1 0x1F NOT PUSH1 0x1F DUP4 ADD AND SWAP1 POP SWAP2 SWAP1 POP JUMP JUMPDEST PUSH1 0x0 PUSH2 0x35B0 DUP3 PUSH2 0x354E JUMP JUMPDEST PUSH2 0x35BA DUP2 DUP6 PUSH2 0x3559 JUMP JUMPDEST SWAP4 POP PUSH2 0x35CA DUP2 DUP6 PUSH1 0x20 DUP7 ADD PUSH2 0x356A JUMP JUMPDEST PUSH2 0x35D3 DUP2 PUSH2 0x3594 JUMP JUMPDEST DUP5 ADD SWAP2 POP POP SWAP3 SWAP2 POP POP JUMP JUMPDEST PUSH1 0x0 DUP2 SWAP1 POP SWAP2 SWAP1 POP JUMP JUMPDEST PUSH2 0x35F1 DUP2 PUSH2 0x35DE JUMP JUMPDEST DUP3 MSTORE POP POP JUMP JUMPDEST PUSH2 0x3600 DUP2 PUSH2 0x3452 JUMP JUMPDEST DUP3 MSTORE POP POP JUMP JUMPDEST PUSH1 0x0 PUSH2 0x140 DUP4 ADD PUSH1 0x0 DUP4 ADD MLOAD PUSH2 0x361F PUSH1 0x0 DUP7 ADD DUP3 PUSH2 0x353F JUMP JUMPDEST POP PUSH1 0x20 DUP4 ADD MLOAD DUP5 DUP3 SUB PUSH1 0x20 DUP7 ADD MSTORE PUSH2 0x3637 DUP3 DUP3 PUSH2 0x35A5 JUMP JUMPDEST SWAP2 POP POP PUSH1 0x40 DUP4 ADD MLOAD DUP5 DUP3 SUB PUSH1 0x40 DUP7 ADD MSTORE PUSH2 0x3651 DUP3 DUP3 PUSH2 0x35A5 JUMP JUMPDEST SWAP2 POP POP PUSH1 0x60 DUP4 ADD MLOAD PUSH2 0x3666 PUSH1 0x60 DUP7 ADD DUP3 PUSH2 0x35E8 JUMP JUMPDEST POP PUSH1 0x80 DUP4 ADD MLOAD PUSH2 0x3679 PUSH1 0x80 DUP7 ADD DUP3 PUSH2 0x35E8 JUMP JUMPDEST POP PUSH1 0xA0 DUP4 ADD MLOAD PUSH2 0x368C PUSH1 0xA0 DUP7 ADD DUP3 PUSH2 0x35E8 JUMP JUMPDEST POP PUSH1 0xC0 DUP4 ADD MLOAD PUSH2 0x369F PUSH1 0xC0 DUP7 ADD DUP3 PUSH2 0x35E8 JUMP JUMPDEST POP PUSH1 0xE0 DUP4 ADD MLOAD PUSH2 0x36B2 PUSH1 0xE0 DUP7 ADD DUP3 PUSH2 0x35E8 JUMP JUMPDEST POP PUSH2 0x100 DUP4 ADD MLOAD PUSH2 0x36C7 PUSH2 0x100 DUP7 ADD DUP3 PUSH2 0x35E8 JUMP JUMPDEST POP PUSH2 0x120 DUP4 ADD MLOAD PUSH2 0x36DC PUSH2 0x120 DUP7 ADD DUP3 PUSH2 0x35F7 JUMP JUMPDEST POP DUP1 SWAP2 POP POP SWAP3 SWAP2 POP POP JUMP JUMPDEST PUSH1 0x0 PUSH2 0x36F3 DUP4 DUP4 PUSH2 0x3606 JUMP JUMPDEST SWAP1 POP SWAP3 SWAP2 POP POP JUMP JUMPDEST PUSH1 0x0 PUSH1 0x20 DUP3 ADD SWAP1 POP SWAP2 SWAP1 POP JUMP JUMPDEST PUSH1 0x0 PUSH2 0x3713 DUP3 PUSH2 0x3513 JUMP JUMPDEST PUSH2 0x371D DUP2 DUP6 PUSH2 0x351E JUMP JUMPDEST SWAP4 POP DUP4 PUSH1 0x20 DUP3 MUL DUP6 ADD PUSH2 0x372F DUP6 PUSH2 0x352F JUMP JUMPDEST DUP1 PUSH1 0x0 JUMPDEST DUP6 DUP2 LT ISZERO PUSH2 0x376B JUMPI DUP5 DUP5 SUB DUP10 MSTORE DUP2 MLOAD PUSH2 0x374C DUP6 DUP3 PUSH2 0x36E7 JUMP JUMPDEST SWAP5 POP PUSH2 0x3757 DUP4 PUSH2 0x36FB JUMP JUMPDEST SWAP3 POP PUSH1 0x20 DUP11 ADD SWAP10 POP POP PUSH1 0x1 DUP2 ADD SWAP1 POP PUSH2 0x3733 JUMP JUMPDEST POP DUP3 SWAP8 POP DUP8 SWAP6 POP POP POP POP POP POP SWAP3 SWAP2 POP POP JUMP JUMPDEST PUSH1 0x0 PUSH1 0x20 DUP3 ADD SWAP1 POP DUP2 DUP2 SUB PUSH1 0x0 DUP4 ADD MSTORE PUSH2 0x3797 DUP2 DUP5 PUSH2 0x3708 JUMP JUMPDEST SWAP1 POP SWAP3 SWAP2 POP POP JUMP JUMPDEST PUSH1 0x0 DUP3 DUP3 MSTORE PUSH1 0x20 DUP3 ADD SWAP1 POP SWAP3 SWAP2 POP POP JUMP JUMPDEST PUSH1 0x0 PUSH2 0x37BB DUP3 PUSH2 0x354E JUMP JUMPDEST PUSH2 0x37C5 DUP2 DUP6 PUSH2 0x379F JUMP JUMPDEST SWAP4 POP PUSH2 0x37D5 DUP2 DUP6 PUSH1 0x20 DUP7 ADD PUSH2 0x356A JUMP JUMPDEST PUSH2 0x37DE DUP2 PUSH2 0x3594 JUMP JUMPDEST DUP5 ADD SWAP2 POP POP SWAP3 SWAP2 POP POP JUMP JUMPDEST PUSH1 0x0 PUSH1 0x20 DUP3 ADD SWAP1 POP DUP2 DUP2 SUB PUSH1 0x0 DUP4 ADD MSTORE PUSH2 0x3803 DUP2 DUP5 PUSH2 0x37B0 JUMP JUMPDEST SWAP1 POP SWAP3 SWAP2 POP POP JUMP JUMPDEST PUSH2 0x3814 DUP2 PUSH2 0x35DE JUMP JUMPDEST DUP2 EQ PUSH2 0x381F JUMPI PUSH1 0x0 DUP1 REVERT JUMPDEST POP JUMP JUMPDEST PUSH1 0x0 DUP2 CALLDATALOAD SWAP1 POP PUSH2 0x3831 DUP2 PUSH2 0x380B JUMP JUMPDEST SWAP3 SWAP2 POP POP JUMP JUMPDEST PUSH1 0x0 DUP1 PUSH1 0x40 DUP4 DUP6 SUB SLT ISZERO PUSH2 0x384E JUMPI PUSH2 0x384D PUSH2 0x33C3 JUMP JUMPDEST JUMPDEST PUSH1 0x0 PUSH2 0x385C DUP6 DUP3 DUP7 ADD PUSH2 0x34D1 JUMP JUMPDEST SWAP3 POP POP PUSH1 0x20 PUSH2 0x386D DUP6 DUP3 DUP7 ADD PUSH2 0x3822 JUMP JUMPDEST SWAP2 POP POP SWAP3 POP SWAP3 SWAP1 POP JUMP JUMPDEST PUSH2 0x3880 DUP2 PUSH2 0x34A8 JUMP JUMPDEST DUP3 MSTORE POP POP JUMP JUMPDEST PUSH2 0x388F DUP2 PUSH2 0x35DE JUMP JUMPDEST DUP3 MSTORE POP POP JUMP JUMPDEST PUSH1 0x0 PUSH2 0x140 DUP3 ADD SWAP1 POP PUSH2 0x38AB PUSH1 0x0 DUP4 ADD DUP14 PUSH2 0x3877 JUMP JUMPDEST DUP2 DUP2 SUB PUSH1 0x20 DUP4 ADD MSTORE PUSH2 0x38BD DUP2 DUP13 PUSH2 0x37B0 JUMP JUMPDEST SWAP1 POP DUP2 DUP2 SUB PUSH1 0x40 DUP4 ADD MSTORE PUSH2 0x38D1 DUP2 DUP12 PUSH2 0x37B0 JUMP JUMPDEST SWAP1 POP PUSH2 0x38E0 PUSH1 0x60 DUP4 ADD DUP11 PUSH2 0x3886 JUMP JUMPDEST PUSH2 0x38ED PUSH1 0x80 DUP4 ADD DUP10 PUSH2 0x3886 JUMP JUMPDEST PUSH2 0x38FA PUSH1 0xA0 DUP4 ADD DUP9 PUSH2 0x3886 JUMP JUMPDEST PUSH2 0x3907 PUSH1 0xC0 DUP4 ADD DUP8 PUSH2 0x3886 JUMP JUMPDEST PUSH2 0x3914 PUSH1 0xE0 DUP4 ADD DUP7 PUSH2 0x3886 JUMP JUMPDEST PUSH2 0x3922 PUSH2 0x100 DUP4 ADD DUP6 PUSH2 0x3886 JUMP JUMPDEST PUSH2 0x3930 PUSH2 0x120 DUP4 ADD DUP5 PUSH2 0x345E JUMP JUMPDEST SWAP12 SWAP11 POP POP POP POP POP POP POP POP POP POP POP JUMP JUMPDEST PUSH1 0x0 PUSH1 0x20 DUP3 DUP5 SUB SLT ISZERO PUSH2 0x3955 JUMPI PUSH2 0x3954 PUSH2 0x33C3 JUMP JUMPDEST JUMPDEST PUSH1 0x0 PUSH2 0x3963 DUP5 DUP3 DUP6 ADD PUSH2 0x3822 JUMP JUMPDEST SWAP2 POP POP SWAP3 SWAP2 POP POP JUMP JUMPDEST PUSH1 0x0 PUSH1 0x20 DUP3 ADD SWAP1 POP PUSH2 0x3981 PUSH1 0x0 DUP4 ADD DUP5 PUSH2 0x3877 JUMP JUMPDEST SWAP3 SWAP2 POP POP JUMP JUMPDEST PUSH1 0x0 DUP2 SWAP1 POP SWAP2 SWAP1 POP JUMP JUMPDEST PUSH1 0x0 PUSH2 0x39AC PUSH2 0x39A7 PUSH2 0x39A2 DUP5 PUSH2 0x3488 JUMP JUMPDEST PUSH2 0x3987 JUMP JUMPDEST PUSH2 0x3488 JUMP JUMPDEST SWAP1 POP SWAP2 SWAP1 POP JUMP JUMPDEST PUSH1 0x0 PUSH2 0x39BE DUP3 PUSH2 0x3991 JUMP JUMPDEST SWAP1 POP SWAP2 SWAP1 POP JUMP JUMPDEST PUSH1 0x0 PUSH2 0x39D0 DUP3 PUSH2 0x39B3 JUMP JUMPDEST SWAP1 POP SWAP2 SWAP1 POP JUMP JUMPDEST PUSH2 0x39E0 DUP2 PUSH2 0x39C5 JUMP JUMPDEST DUP3 MSTORE POP POP JUMP JUMPDEST PUSH1 0x0 PUSH1 0x20 DUP3 ADD SWAP1 POP PUSH2 0x39FB PUSH1 0x0 DUP4 ADD DUP5 PUSH2 0x39D7 JUMP JUMPDEST SWAP3 SWAP2 POP POP JUMP JUMPDEST PUSH1 0x0 DUP1 PUSH1 0x0 PUSH1 0x60 DUP5 DUP7 SUB SLT ISZERO PUSH2 0x3A1A JUMPI PUSH2 0x3A19 PUSH2 0x33C3 JUMP JUMPDEST JUMPDEST PUSH1 0x0 PUSH2 0x3A28 DUP7 DUP3 DUP8 ADD PUSH2 0x34D1 JUMP JUMPDEST SWAP4 POP POP PUSH1 0x20 PUSH2 0x3A39 DUP7 DUP3 DUP8 ADD PUSH2 0x34D1 JUMP JUMPDEST SWAP3 POP POP PUSH1 0x40 PUSH2 0x3A4A DUP7 DUP3 DUP8 ADD PUSH2 0x3822 JUMP JUMPDEST SWAP2 POP POP SWAP3 POP SWAP3 POP SWAP3 JUMP JUMPDEST PUSH1 0x0 PUSH1 0x20 DUP3 ADD SWAP1 POP PUSH2 0x3A69 PUSH1 0x0 DUP4 ADD DUP5 PUSH2 0x3886 JUMP JUMPDEST SWAP3 SWAP2 POP POP JUMP JUMPDEST PUSH1 0x0 DUP2 MLOAD SWAP1 POP SWAP2 SWAP1 POP JUMP JUMPDEST PUSH1 0x0 DUP3 DUP3 MSTORE PUSH1 0x20 DUP3 ADD SWAP1 POP SWAP3 SWAP2 POP POP JUMP JUMPDEST PUSH1 0x0 DUP2 SWAP1 POP PUSH1 0x20 DUP3 ADD SWAP1 POP SWAP2 SWAP1 POP JUMP JUMPDEST PUSH1 0x0 PUSH2 0x3AA7 DUP4 DUP4 PUSH2 0x35E8 JUMP JUMPDEST PUSH1 0x20 DUP4 ADD SWAP1 POP SWAP3 SWAP2 POP POP JUMP JUMPDEST PUSH1 0x0 PUSH1 0x20 DUP3 ADD SWAP1 POP SWAP2 SWAP1 POP JUMP JUMPDEST PUSH1 0x0 PUSH2 0x3ACB DUP3 PUSH2 0x3A6F JUMP JUMPDEST PUSH2 0x3AD5 DUP2 DUP6 PUSH2 0x3A7A JUMP JUMPDEST SWAP4 POP PUSH2 0x3AE0 DUP4 PUSH2 0x3A8B JUMP JUMPDEST DUP1 PUSH1 0x0 JUMPDEST DUP4 DUP2 LT ISZERO PUSH2 0x3B11 JUMPI DUP2 MLOAD PUSH2 0x3AF8 DUP9 DUP3 PUSH2 0x3A9B JUMP JUMPDEST SWAP8 POP PUSH2 0x3B03 DUP4 PUSH2 0x3AB3 JUMP JUMPDEST SWAP3 POP POP PUSH1 0x1 DUP2 ADD SWAP1 POP PUSH2 0x3AE4 JUMP JUMPDEST POP DUP6 SWAP4 POP POP POP POP SWAP3 SWAP2 POP POP JUMP JUMPDEST PUSH1 0x0 PUSH1 0x20 DUP3 ADD SWAP1 POP DUP2 DUP2 SUB PUSH1 0x0 DUP4 ADD MSTORE PUSH2 0x3B38 DUP2 DUP5 PUSH2 0x3AC0 JUMP JUMPDEST SWAP1 POP SWAP3 SWAP2 POP POP JUMP JUMPDEST PUSH1 0x0 DUP1 REVERT JUMPDEST PUSH1 0x0 DUP1 REVERT JUMPDEST PUSH32 0x4E487B7100000000000000000000000000000000000000000000000000000000 PUSH1 0x0 MSTORE PUSH1 0x41 PUSH1 0x4 MSTORE PUSH1 0x24 PUSH1 0x0 REVERT JUMPDEST PUSH2 0x3B82 DUP3 PUSH2 0x3594 JUMP JUMPDEST DUP2 ADD DUP2 DUP2 LT PUSH8 0xFFFFFFFFFFFFFFFF DUP3 GT OR ISZERO PUSH2 0x3BA1 JUMPI PUSH2 0x3BA0 PUSH2 0x3B4A JUMP JUMPDEST JUMPDEST DUP1 PUSH1 0x40 MSTORE POP POP POP JUMP JUMPDEST PUSH1 0x0 PUSH2 0x3BB4 PUSH2 0x33B9 JUMP JUMPDEST SWAP1 POP PUSH2 0x3BC0 DUP3 DUP3 PUSH2 0x3B79 JUMP JUMPDEST SWAP2 SWAP1 POP JUMP JUMPDEST PUSH1 0x0 PUSH8 0xFFFFFFFFFFFFFFFF DUP3 GT ISZERO PUSH2 0x3BE0 JUMPI PUSH2 0x3BDF PUSH2 0x3B4A JUMP JUMPDEST JUMPDEST PUSH2 0x3BE9 DUP3 PUSH2 0x3594 JUMP JUMPDEST SWAP1 POP PUSH1 0x20 DUP2 ADD SWAP1 POP SWAP2 SWAP1 POP JUMP JUMPDEST DUP3 DUP2 DUP4 CALLDATACOPY PUSH1 0x0 DUP4 DUP4 ADD MSTORE POP POP POP JUMP JUMPDEST PUSH1 0x0 PUSH2 0x3C18 PUSH2 0x3C13 DUP5 PUSH2 0x3BC5 JUMP JUMPDEST PUSH2 0x3BAA JUMP JUMPDEST SWAP1 POP DUP3 DUP2 MSTORE PUSH1 0x20 DUP2 ADD DUP5 DUP5 DUP5 ADD GT ISZERO PUSH2 0x3C34 JUMPI PUSH2 0x3C33 PUSH2 0x3B45 JUMP JUMPDEST JUMPDEST PUSH2 0x3C3F DUP5 DUP3 DUP6 PUSH2 0x3BF6 JUMP JUMPDEST POP SWAP4 SWAP3 POP POP POP JUMP JUMPDEST PUSH1 0x0 DUP3 PUSH1 0x1F DUP4 ADD SLT PUSH2 0x3C5C JUMPI PUSH2 0x3C5B PUSH2 0x3B40 JUMP JUMPDEST JUMPDEST DUP2 CALLDATALOAD PUSH2 0x3C6C DUP5 DUP3 PUSH1 0x20 DUP7 ADD PUSH2 0x3C05 JUMP JUMPDEST SWAP2 POP POP SWAP3 SWAP2 POP POP JUMP JUMPDEST PUSH1 0x0 PUSH1 0x20 DUP3 DUP5 SUB SLT ISZERO PUSH2 0x3C8B JUMPI PUSH2 0x3C8A PUSH2 0x33C3 JUMP JUMPDEST JUMPDEST PUSH1 0x0 DUP3 ADD CALLDATALOAD PUSH8 0xFFFFFFFFFFFFFFFF DUP2 GT ISZERO PUSH2 0x3CA9 JUMPI PUSH2 0x3CA8 PUSH2 0x33C8 JUMP JUMPDEST JUMPDEST PUSH2 0x3CB5 DUP5 DUP3 DUP6 ADD PUSH2 0x3C47 JUMP JUMPDEST SWAP2 POP POP SWAP3 SWAP2 POP POP JUMP JUMPDEST PUSH2 0x3CC7 DUP2 PUSH2 0x3452 JUMP JUMPDEST DUP2 EQ PUSH2 0x3CD2 JUMPI PUSH1 0x0 DUP1 REVERT JUMPDEST POP JUMP JUMPDEST PUSH1 0x0 DUP2 CALLDATALOAD SWAP1 POP PUSH2 0x3CE4 DUP2 PUSH2 0x3CBE JUMP JUMPDEST SWAP3 SWAP2 POP POP JUMP JUMPDEST PUSH1 0x0 DUP1 PUSH1 0x40 DUP4 DUP6 SUB SLT ISZERO PUSH2 0x3D01 JUMPI PUSH2 0x3D00 PUSH2 0x33C3 JUMP JUMPDEST JUMPDEST PUSH1 0x0 PUSH2 0x3D0F DUP6 DUP3 DUP7 ADD PUSH2 0x34D1 JUMP JUMPDEST SWAP3 POP POP PUSH1 0x20 PUSH2 0x3D20 DUP6 DUP3 DUP7 ADD PUSH2 0x3CD5 JUMP JUMPDEST SWAP2 POP POP SWAP3 POP SWAP3 SWAP1 POP JUMP JUMPDEST PUSH1 0x0 PUSH8 0xFFFFFFFFFFFFFFFF DUP3 GT ISZERO PUSH2 0x3D45 JUMPI PUSH2 0x3D44 PUSH2 0x3B4A JUMP JUMPDEST JUMPDEST PUSH2 0x3D4E DUP3 PUSH2 0x3594 JUMP JUMPDEST SWAP1 POP PUSH1 0x20 DUP2 ADD SWAP1 POP SWAP2 SWAP1 POP JUMP JUMPDEST PUSH1 0x0 PUSH2 0x3D6E PUSH2 0x3D69 DUP5 PUSH2 0x3D2A JUMP JUMPDEST PUSH2 0x3BAA JUMP JUMPDEST SWAP1 POP DUP3 DUP2 MSTORE PUSH1 0x20 DUP2 ADD DUP5 DUP5 DUP5 ADD GT ISZERO PUSH2 0x3D8A JUMPI PUSH2 0x3D89 PUSH2 0x3B45 JUMP JUMPDEST JUMPDEST PUSH2 0x3D95 DUP5 DUP3 DUP6 PUSH2 0x3BF6 JUMP JUMPDEST POP SWAP4 SWAP3 POP POP POP JUMP JUMPDEST PUSH1 0x0 DUP3 PUSH1 0x1F DUP4 ADD SLT PUSH2 0x3DB2 JUMPI PUSH2 0x3DB1 PUSH2 0x3B40 JUMP JUMPDEST JUMPDEST DUP2 CALLDATALOAD PUSH2 0x3DC2 DUP5 DUP3 PUSH1 0x20 DUP7 ADD PUSH2 0x3D5B JUMP JUMPDEST SWAP2 POP POP SWAP3 SWAP2 POP POP JUMP JUMPDEST PUSH1 0x0 DUP1 PUSH1 0x0 DUP1 PUSH1 0x80 DUP6 DUP8 SUB SLT ISZERO PUSH2 0x3DE5 JUMPI PUSH2 0x3DE4 PUSH2 0x33C3 JUMP JUMPDEST JUMPDEST PUSH1 0x0 PUSH2 0x3DF3 DUP8 DUP3 DUP9 ADD PUSH2 0x34D1 JUMP JUMPDEST SWAP5 POP POP PUSH1 0x20 PUSH2 0x3E04 DUP8 DUP3 DUP9 ADD PUSH2 0x34D1 JUMP JUMPDEST SWAP4 POP POP PUSH1 0x40 PUSH2 0x3E15 DUP8 DUP3 DUP9 ADD PUSH2 0x3822 JUMP JUMPDEST SWAP3 POP POP PUSH1 0x60 DUP6 ADD CALLDATALOAD PUSH8 0xFFFFFFFFFFFFFFFF DUP2 GT ISZERO PUSH2 0x3E36 JUMPI PUSH2 0x3E35 PUSH2 0x33C8 JUMP JUMPDEST JUMPDEST PUSH2 0x3E42 DUP8 DUP3 DUP9 ADD PUSH2 0x3D9D JUMP JUMPDEST SWAP2 POP POP SWAP3 SWAP6 SWAP2 SWAP5 POP SWAP3 POP JUMP JUMPDEST PUSH1 0x0 DUP1 PUSH1 0x40 DUP4 DUP6 SUB SLT ISZERO PUSH2 0x3E65 JUMPI PUSH2 0x3E64 PUSH2 0x33C3 JUMP JUMPDEST JUMPDEST PUSH1 0x0 PUSH2 0x3E73 DUP6 DUP3 DUP7 ADD PUSH2 0x34D1 JUMP JUMPDEST SWAP3 POP POP PUSH1 0x20 PUSH2 0x3E84 DUP6 DUP3 DUP7 ADD PUSH2 0x34D1 JUMP JUMPDEST SWAP2 POP POP SWAP3 POP SWAP3 SWAP1 POP JUMP JUMPDEST PUSH1 0x0 DUP1 PUSH1 0x0 DUP1 PUSH1 0x0 DUP1 PUSH1 0xC0 DUP8 DUP10 SUB SLT ISZERO PUSH2 0x3EAB JUMPI PUSH2 0x3EAA PUSH2 0x33C3 JUMP JUMPDEST JUMPDEST PUSH1 0x0 PUSH2 0x3EB9 DUP10 DUP3 DUP11 ADD PUSH2 0x3822 JUMP JUMPDEST SWAP7 POP POP PUSH1 0x20 PUSH2 0x3ECA DUP10 DUP3 DUP11 ADD PUSH2 0x3822 JUMP JUMPDEST SWAP6 POP POP PUSH1 0x40 PUSH2 0x3EDB DUP10 DUP3 DUP11 ADD PUSH2 0x3822 JUMP JUMPDEST SWAP5 POP POP PUSH1 0x60 PUSH2 0x3EEC DUP10 DUP3 DUP11 ADD PUSH2 0x3822 JUMP JUMPDEST SWAP4 POP POP PUSH1 0x80 DUP8 ADD CALLDATALOAD PUSH8 0xFFFFFFFFFFFFFFFF DUP2 GT ISZERO PUSH2 0x3F0D JUMPI PUSH2 0x3F0C PUSH2 0x33C8 JUMP JUMPDEST JUMPDEST PUSH2 0x3F19 DUP10 DUP3 DUP11 ADD PUSH2 0x3C47 JUMP JUMPDEST SWAP3 POP POP PUSH1 0xA0 DUP8 ADD CALLDATALOAD PUSH8 0xFFFFFFFFFFFFFFFF DUP2 GT ISZERO PUSH2 0x3F3A JUMPI PUSH2 0x3F39 PUSH2 0x33C8 JUMP JUMPDEST JUMPDEST PUSH2 0x3F46 DUP10 DUP3 DUP11 ADD PUSH2 0x3C47 JUMP JUMPDEST SWAP2 POP POP SWAP3 SWAP6 POP SWAP3 SWAP6 POP SWAP3 SWAP6 JUMP JUMPDEST PUSH32 0x4E487B7100000000000000000000000000000000000000000000000000000000 PUSH1 0x0 MSTORE PUSH1 0x22 PUSH1 0x4 MSTORE PUSH1 0x24 PUSH1 0x0 REVERT JUMPDEST PUSH1 0x0 PUSH1 0x2 DUP3 DIV SWAP1 POP PUSH1 0x1 DUP3 AND DUP1 PUSH2 0x3F9A JUMPI PUSH1 0x7F DUP3 AND SWAP2 POP JUMPDEST PUSH1 0x20 DUP3 LT DUP2 SUB PUSH2 0x3FAD JUMPI PUSH2 0x3FAC PUSH2 0x3F53 JUMP JUMPDEST JUMPDEST POP SWAP2 SWAP1 POP JUMP JUMPDEST PUSH32 0x4552433732313A20617070726F76616C20746F2063757272656E74206F776E65 PUSH1 0x0 DUP3 ADD MSTORE PUSH32 0x7200000000000000000000000000000000000000000000000000000000000000 PUSH1 0x20 DUP3 ADD MSTORE POP JUMP JUMPDEST PUSH1 0x0 PUSH2 0x400F PUSH1 0x21 DUP4 PUSH2 0x379F JUMP JUMPDEST SWAP2 POP PUSH2 0x401A DUP3 PUSH2 0x3FB3 JUMP JUMPDEST PUSH1 0x40 DUP3 ADD SWAP1 POP SWAP2 SWAP1 POP JUMP JUMPDEST PUSH1 0x0 PUSH1 0x20 DUP3 ADD SWAP1 POP DUP2 DUP2 SUB PUSH1 0x0 DUP4 ADD MSTORE PUSH2 0x403E DUP2 PUSH2 0x4002 JUMP JUMPDEST SWAP1 POP SWAP2 SWAP1 POP JUMP JUMPDEST PUSH32 0x4552433732313A20617070726F76652063616C6C6572206973206E6F7420746F PUSH1 0x0 DUP3 ADD MSTORE PUSH32 0x6B656E206F776E6572206F7220617070726F76656420666F7220616C6C000000 PUSH1 0x20 DUP3 ADD MSTORE POP JUMP JUMPDEST PUSH1 0x0 PUSH2 0x40A1 PUSH1 0x3D DUP4 PUSH2 0x379F JUMP JUMPDEST SWAP2 POP PUSH2 0x40AC DUP3 PUSH2 0x4045 JUMP JUMPDEST PUSH1 0x40 DUP3 ADD SWAP1 POP SWAP2 SWAP1 POP JUMP JUMPDEST PUSH1 0x0 PUSH1 0x20 DUP3 ADD SWAP1 POP DUP2 DUP2 SUB PUSH1 0x0 DUP4 ADD MSTORE PUSH2 0x40D0 DUP2 PUSH2 0x4094 JUMP JUMPDEST SWAP1 POP SWAP2 SWAP1 POP JUMP JUMPDEST PUSH32 0x496E73756666696369656E74207061796D656E74000000000000000000000000 PUSH1 0x0 DUP3 ADD MSTORE POP JUMP JUMPDEST PUSH1 0x0 PUSH2 0x410D PUSH1 0x14 DUP4 PUSH2 0x379F JUMP JUMPDEST SWAP2 POP PUSH2 0x4118 DUP3 PUSH2 0x40D7 JUMP JUMPDEST PUSH1 0x20 DUP3 ADD SWAP1 POP SWAP2 SWAP1 POP JUMP JUMPDEST PUSH1 0x0 PUSH1 0x20 DUP3 ADD SWAP1 POP DUP2 DUP2 SUB PUSH1 0x0 DUP4 ADD MSTORE PUSH2 0x413C DUP2 PUSH2 0x4100 JUMP JUMPDEST SWAP1 POP SWAP2 SWAP1 POP JUMP JUMPDEST PUSH32 0x53616C657320656E646564000000000000000000000000000000000000000000 PUSH1 0x0 DUP3 ADD MSTORE POP JUMP JUMPDEST PUSH1 0x0 PUSH2 0x4179 PUSH1 0xB DUP4 PUSH2 0x379F JUMP JUMPDEST SWAP2 POP PUSH2 0x4184 DUP3 PUSH2 0x4143 JUMP JUMPDEST PUSH1 0x20 DUP3 ADD SWAP1 POP SWAP2 SWAP1 POP JUMP JUMPDEST PUSH1 0x0 PUSH1 0x20 DUP3 ADD SWAP1 POP DUP2 DUP2 SUB PUSH1 0x0 DUP4 ADD MSTORE PUSH2 0x41A8 DUP2 PUSH2 0x416C JUMP JUMPDEST SWAP1 POP SWAP2 SWAP1 POP JUMP JUMPDEST PUSH32 0x536F6C64206F7574000000000000000000000000000000000000000000000000 PUSH1 0x0 DUP3 ADD MSTORE POP JUMP JUMPDEST PUSH1 0x0 PUSH2 0x41E5 PUSH1 0x8 DUP4 PUSH2 0x379F JUMP JUMPDEST SWAP2 POP PUSH2 0x41F0 DUP3 PUSH2 0x41AF JUMP JUMPDEST PUSH1 0x20 DUP3 ADD SWAP1 POP SWAP2 SWAP1 POP JUMP JUMPDEST PUSH1 0x0 PUSH1 0x20 DUP3 ADD SWAP1 POP DUP2 DUP2 SUB PUSH1 0x0 DUP4 ADD MSTORE PUSH2 0x4214 DUP2 PUSH2 0x41D8 JUMP JUMPDEST SWAP1 POP SWAP2 SWAP1 POP JUMP JUMPDEST PUSH1 0x0 DUP2 SWAP1 POP SWAP3 SWAP2 POP POP JUMP JUMPDEST PUSH1 0x0 DUP2 SWAP1 POP DUP2 PUSH1 0x0 MSTORE PUSH1 0x20 PUSH1 0x0 KECCAK256 SWAP1 POP SWAP2 SWAP1 POP JUMP JUMPDEST PUSH1 0x0 DUP2 SLOAD PUSH2 0x4248 DUP2 PUSH2 0x3F82 JUMP JUMPDEST PUSH2 0x4252 DUP2 DUP7 PUSH2 0x421B JUMP JUMPDEST SWAP5 POP PUSH1 0x1 DUP3 AND PUSH1 0x0 DUP2 EQ PUSH2 0x426D JUMPI PUSH1 0x1 DUP2 EQ PUSH2 0x4282 JUMPI PUSH2 0x42B5 JUMP JUMPDEST PUSH1 0xFF NOT DUP4 AND DUP7 MSTORE DUP2 ISZERO ISZERO DUP3 MUL DUP7 ADD SWAP4 POP PUSH2 0x42B5 JUMP JUMPDEST PUSH2 0x428B DUP6 PUSH2 0x4226 JUMP JUMPDEST PUSH1 0x0 JUMPDEST DUP4 DUP2 LT ISZERO PUSH2 0x42AD JUMPI DUP2 SLOAD DUP2 DUP10 ADD MSTORE PUSH1 0x1 DUP3 ADD SWAP2 POP PUSH1 0x20 DUP2 ADD SWAP1 POP PUSH2 0x428E JUMP JUMPDEST DUP4 DUP9 ADD SWAP6 POP POP POP JUMPDEST POP POP POP SWAP3 SWAP2 POP POP JUMP JUMPDEST PUSH1 0x0 PUSH2 0x42CA DUP3 DUP5 PUSH2 0x423B JUMP JUMPDEST SWAP2 POP DUP2 SWAP1 POP SWAP3 SWAP2 POP POP JUMP JUMPDEST PUSH32 0x4E487B7100000000000000000000000000000000000000000000000000000000 PUSH1 0x0 MSTORE PUSH1 0x11 PUSH1 0x4 MSTORE PUSH1 0x24 PUSH1 0x0 REVERT JUMPDEST PUSH1 0x0 PUSH2 0x430F DUP3 PUSH2 0x35DE JUMP JUMPDEST SWAP2 POP PUSH2 0x431A DUP4 PUSH2 0x35DE JUMP JUMPDEST SWAP3 POP DUP3 DUP3 MUL PUSH2 0x4328 DUP2 PUSH2 0x35DE JUMP JUMPDEST SWAP2 POP DUP3 DUP3 DIV DUP5 EQ DUP4 ISZERO OR PUSH2 0x433F JUMPI PUSH2 0x433E PUSH2 0x42D5 JUMP JUMPDEST JUMPDEST POP SWAP3 SWAP2 POP POP JUMP JUMPDEST PUSH32 0x4E487B7100000000000000000000000000000000000000000000000000000000 PUSH1 0x0 MSTORE PUSH1 0x12 PUSH1 0x4 MSTORE PUSH1 0x24 PUSH1 0x0 REVERT JUMPDEST PUSH1 0x0 PUSH2 0x4380 DUP3 PUSH2 0x35DE JUMP JUMPDEST SWAP2 POP PUSH2 0x438B DUP4 PUSH2 0x35DE JUMP JUMPDEST SWAP3 POP DUP3 PUSH2 0x439B JUMPI PUSH2 0x439A PUSH2 0x4346 JUMP JUMPDEST JUMPDEST DUP3 DUP3 DIV SWAP1 POP SWAP3 SWAP2 POP POP JUMP JUMPDEST PUSH1 0x0 PUSH2 0x43B1 DUP3 PUSH2 0x35DE JUMP JUMPDEST SWAP2 POP PUSH2 0x43BC DUP4 PUSH2 0x35DE JUMP JUMPDEST SWAP3 POP DUP3 DUP3 SUB SWAP1 POP DUP2 DUP2 GT ISZERO PUSH2 0x43D4 JUMPI PUSH2 0x43D3 PUSH2 0x42D5 JUMP JUMPDEST JUMPDEST SWAP3 SWAP2 POP POP JUMP JUMPDEST PUSH1 0x0 DUP2 SWAP1 POP SWAP3 SWAP2 POP POP JUMP JUMPDEST POP JUMP JUMPDEST PUSH1 0x0 PUSH2 0x43F5 PUSH1 0x0 DUP4 PUSH2 0x43DA JUMP JUMPDEST SWAP2 POP PUSH2 0x4400 DUP3 PUSH2 0x43E5 JUMP JUMPDEST PUSH1 0x0 DUP3 ADD SWAP1 POP SWAP2 SWAP1 POP JUMP JUMPDEST PUSH1 0x0 PUSH2 0x4416 DUP3 PUSH2 0x43E8 JUMP JUMPDEST SWAP2 POP DUP2 SWAP1 POP SWAP2 SWAP1 POP JUMP JUMPDEST PUSH1 0x0 PUSH2 0x442B DUP3 PUSH2 0x35DE JUMP JUMPDEST SWAP2 POP PUSH32 0xFFFFFFFFFFFFFFFFFFFFFFFFFFFFFFFFFFFFFFFFFFFFFFFFFFFFFFFFFFFFFFFF DUP3 SUB PUSH2 0x445D JUMPI PUSH2 0x445C PUSH2 0x42D5 JUMP JUMPDEST JUMPDEST PUSH1 0x1 DUP3 ADD SWAP1 POP SWAP2 SWAP1 POP JUMP JUMPDEST PUSH1 0x0 DUP2 SLOAD SWAP1 POP PUSH2 0x4477 DUP2 PUSH2 0x3F82 JUMP JUMPDEST SWAP1 POP SWAP2 SWAP1 POP JUMP JUMPDEST PUSH1 0x0 PUSH1 0x20 PUSH1 0x1F DUP4 ADD DIV SWAP1 POP SWAP2 SWAP1 POP JUMP JUMPDEST PUSH1 0x0 DUP3 DUP3 SHL SWAP1 POP SWAP3 SWAP2 POP POP JUMP JUMPDEST PUSH1 0x0 PUSH1 0x8 DUP4 MUL PUSH2 0x44CB PUSH32 0xFFFFFFFFFFFFFFFFFFFFFFFFFFFFFFFFFFFFFFFFFFFFFFFFFFFFFFFFFFFFFFFF DUP3 PUSH2 0x448E JUMP JUMPDEST PUSH2 0x44D5 DUP7 DUP4 PUSH2 0x448E JUMP JUMPDEST SWAP6 POP DUP1 NOT DUP5 AND SWAP4 POP DUP1 DUP7 AND DUP5 OR SWAP3 POP POP POP SWAP4 SWAP3 POP POP POP JUMP JUMPDEST PUSH1 0x0 PUSH2 0x4508 PUSH2 0x4503 PUSH2 0x44FE DUP5 PUSH2 0x35DE JUMP JUMPDEST PUSH2 0x3987 JUMP JUMPDEST PUSH2 0x35DE JUMP JUMPDEST SWAP1 POP SWAP2 SWAP1 POP JUMP JUMPDEST PUSH1 0x0 DUP2 SWAP1 POP SWAP2 SWAP1 POP JUMP JUMPDEST PUSH2 0x4522 DUP4 PUSH2 0x44ED JUMP JUMPDEST PUSH2 0x4536 PUSH2 0x452E DUP3 PUSH2 0x450F JUMP JUMPDEST DUP5 DUP5 SLOAD PUSH2 0x449B JUMP JUMPDEST DUP3 SSTORE POP POP POP POP JUMP JUMPDEST PUSH1 0x0 SWAP1 JUMP JUMPDEST PUSH2 0x454B PUSH2 0x453E JUMP JUMPDEST PUSH2 0x4556 DUP2 DUP5 DUP5 PUSH2 0x4519 JUMP JUMPDEST POP POP POP JUMP JUMPDEST JUMPDEST DUP2 DUP2 LT ISZERO PUSH2 0x457A JUMPI PUSH2 0x456F PUSH1 0x0 DUP3 PUSH2 0x4543 JUMP JUMPDEST PUSH1 0x1 DUP2 ADD SWAP1 POP PUSH2 0x455C JUMP JUMPDEST POP POP JUMP JUMPDEST PUSH1 0x1F DUP3 GT ISZERO PUSH2 0x45BF JUMPI PUSH2 0x4590 DUP2 PUSH2 0x4226 JUMP JUMPDEST PUSH2 0x4599 DUP5 PUSH2 0x447E JUMP JUMPDEST DUP2 ADD PUSH1 0x20 DUP6 LT ISZERO PUSH2 0x45A8 JUMPI DUP2 SWAP1 POP JUMPDEST PUSH2 0x45BC PUSH2 0x45B4 DUP6 PUSH2 0x447E JUMP JUMPDEST DUP4 ADD DUP3 PUSH2 0x455B JUMP JUMPDEST POP POP JUMPDEST POP POP POP JUMP JUMPDEST PUSH1 0x0 DUP3 DUP3 SHR SWAP1 POP SWAP3 SWAP2 POP POP JUMP JUMPDEST PUSH1 0x0 PUSH2 0x45E2 PUSH1 0x0 NOT DUP5 PUSH1 0x8 MUL PUSH2 0x45C4 JUMP JUMPDEST NOT DUP1 DUP4 AND SWAP2 POP POP SWAP3 SWAP2 POP POP JUMP JUMPDEST PUSH1 0x0 PUSH2 0x45FB DUP4 DUP4 PUSH2 0x45D1 JUMP JUMPDEST SWAP2 POP DUP3 PUSH1 0x2 MUL DUP3 OR SWAP1 POP SWAP3 SWAP2 POP POP JUMP JUMPDEST DUP2 DUP2 SUB PUSH2 0x4619 JUMPI POP POP PUSH2 0x46F1 JUMP JUMPDEST PUSH2 0x4622 DUP3 PUSH2 0x4468 JUMP JUMPDEST PUSH8 0xFFFFFFFFFFFFFFFF DUP2 GT ISZERO PUSH2 0x463B JUMPI PUSH2 0x463A PUSH2 0x3B4A JUMP JUMPDEST JUMPDEST PUSH2 0x4645 DUP3 SLOAD PUSH2 0x3F82 JUMP JUMPDEST PUSH2 0x4650 DUP3 DUP3 DUP6 PUSH2 0x457E JUMP JUMPDEST PUSH1 0x0 PUSH1 0x1F DUP4 GT PUSH1 0x1 DUP2 EQ PUSH2 0x467F JUMPI PUSH1 0x0 DUP5 ISZERO PUSH2 0x466D JUMPI DUP3 DUP8 ADD SLOAD SWAP1 POP JUMPDEST PUSH2 0x4677 DUP6 DUP3 PUSH2 0x45EF JUMP JUMPDEST DUP7 SSTORE POP PUSH2 0x46EA JUMP JUMPDEST PUSH1 0x1F NOT DUP5 AND PUSH2 0x468D DUP8 PUSH2 0x4226 JUMP JUMPDEST SWAP7 POP PUSH2 0x4698 DUP7 PUSH2 0x4226 JUMP JUMPDEST PUSH1 0x0 JUMPDEST DUP3 DUP2 LT ISZERO PUSH2 0x46C0 JUMPI DUP5 DUP10 ADD SLOAD DUP3 SSTORE PUSH1 0x1 DUP3 ADD SWAP2 POP PUSH1 0x1 DUP6 ADD SWAP5 POP PUSH1 0x20 DUP2 ADD SWAP1 POP PUSH2 0x469B JUMP JUMPDEST DUP7 DUP4 LT ISZERO PUSH2 0x46DD JUMPI DUP5 DUP10 ADD SLOAD PUSH2 0x46D9 PUSH1 0x1F DUP10 AND DUP3 PUSH2 0x45D1 JUMP JUMPDEST DUP4 SSTORE POP JUMPDEST PUSH1 0x1 PUSH1 0x2 DUP9 MUL ADD DUP9 SSTORE POP POP POP JUMPDEST POP POP POP POP POP POP JUMPDEST JUMP JUMPDEST PUSH1 0x0 PUSH1 0x40 DUP3 ADD SWAP1 POP PUSH2 0x4708 PUSH1 0x0 DUP4 ADD DUP6 PUSH2 0x3886 JUMP JUMPDEST PUSH2 0x4715 PUSH1 0x20 DUP4 ADD DUP5 PUSH2 0x3886 JUMP JUMPDEST SWAP4 SWAP3 POP POP POP JUMP JUMPDEST PUSH32 0x4552433732313A2063616C6C6572206973206E6F7420746F6B656E206F776E65 PUSH1 0x0 DUP3 ADD MSTORE PUSH32 0x72206F7220617070726F76656400000000000000000000000000000000000000 PUSH1 0x20 DUP3 ADD MSTORE POP JUMP JUMPDEST PUSH1 0x0 PUSH2 0x4778 PUSH1 0x2D DUP4 PUSH2 0x379F JUMP JUMPDEST SWAP2 POP PUSH2 0x4783 DUP3 PUSH2 0x471C JUMP JUMPDEST PUSH1 0x40 DUP3 ADD SWAP1 POP SWAP2 SWAP1 POP JUMP JUMPDEST PUSH1 0x0 PUSH1 0x20 DUP3 ADD SWAP1 POP DUP2 DUP2 SUB PUSH1 0x0 DUP4 ADD MSTORE PUSH2 0x47A7 DUP2 PUSH2 0x476B JUMP JUMPDEST SWAP1 POP SWAP2 SWAP1 POP JUMP JUMPDEST PUSH32 0x4E487B7100000000000000000000000000000000000000000000000000000000 PUSH1 0x0 MSTORE PUSH1 0x32 PUSH1 0x4 MSTORE PUSH1 0x24 PUSH1 0x0 REVERT JUMPDEST PUSH32 0x4552433732313A20696E76616C696420746F6B656E2049440000000000000000 PUSH1 0x0 DUP3 ADD MSTORE POP JUMP JUMPDEST PUSH1 0x0 PUSH2 0x4813 PUSH1 0x18 DUP4 PUSH2 0x379F JUMP JUMPDEST SWAP2 POP PUSH2 0x481E DUP3 PUSH2 0x47DD JUMP JUMPDEST PUSH1 0x20 DUP3 ADD SWAP1 POP SWAP2 SWAP1 POP JUMP JUMPDEST PUSH1 0x0 PUSH1 0x20 DUP3 ADD SWAP1 POP DUP2 DUP2 SUB PUSH1 0x0 DUP4 ADD MSTORE PUSH2 0x4842 DUP2 PUSH2 0x4806 JUMP JUMPDEST SWAP1 POP SWAP2 SWAP1 POP JUMP JUMPDEST PUSH32 0x4552433732313A2061646472657373207A65726F206973206E6F742061207661 PUSH1 0x0 DUP3 ADD MSTORE PUSH32 0x6C6964206F776E65720000000000000000000000000000000000000000000000 PUSH1 0x20 DUP3 ADD MSTORE POP JUMP JUMPDEST PUSH1 0x0 PUSH2 0x48A5 PUSH1 0x29 DUP4 PUSH2 0x379F JUMP JUMPDEST SWAP2 POP PUSH2 0x48B0 DUP3 PUSH2 0x4849 JUMP JUMPDEST PUSH1 0x40 DUP3 ADD SWAP1 POP SWAP2 SWAP1 POP JUMP JUMPDEST PUSH1 0x0 PUSH1 0x20 DUP3 ADD SWAP1 POP DUP2 DUP2 SUB PUSH1 0x0 DUP4 ADD MSTORE PUSH2 0x48D4 DUP2 PUSH2 0x4898 JUMP JUMPDEST SWAP1 POP SWAP2 SWAP1 POP JUMP JUMPDEST PUSH1 0x0 PUSH2 0x48E6 DUP3 PUSH2 0x354E JUMP JUMPDEST PUSH2 0x48F0 DUP2 DUP6 PUSH2 0x421B JUMP JUMPDEST SWAP4 POP PUSH2 0x4900 DUP2 DUP6 PUSH1 0x20 DUP7 ADD PUSH2 0x356A JUMP JUMPDEST DUP1 DUP5 ADD SWAP2 POP POP SWAP3 SWAP2 POP POP JUMP JUMPDEST PUSH1 0x0 PUSH2 0x4918 DUP3 DUP5 PUSH2 0x48DB JUMP JUMPDEST SWAP2 POP DUP2 SWAP1 POP SWAP3 SWAP2 POP POP JUMP JUMPDEST PUSH1 0x0 PUSH2 0x492F DUP3 DUP6 PUSH2 0x48DB JUMP JUMPDEST SWAP2 POP PUSH2 0x493B DUP3 DUP5 PUSH2 0x48DB JUMP JUMPDEST SWAP2 POP DUP2 SWAP1 POP SWAP4 SWAP3 POP POP POP JUMP JUMPDEST PUSH1 0x0 PUSH2 0x4952 DUP3 PUSH2 0x35DE JUMP JUMPDEST SWAP2 POP PUSH2 0x495D DUP4 PUSH2 0x35DE JUMP JUMPDEST SWAP3 POP DUP3 DUP3 ADD SWAP1 POP DUP1 DUP3 GT ISZERO PUSH2 0x4975 JUMPI PUSH2 0x4974 PUSH2 0x42D5 JUMP JUMPDEST JUMPDEST SWAP3 SWAP2 POP POP JUMP JUMPDEST PUSH2 0x4984 DUP3 PUSH2 0x354E JUMP JUMPDEST PUSH8 0xFFFFFFFFFFFFFFFF DUP2 GT ISZERO PUSH2 0x499D JUMPI PUSH2 0x499C PUSH2 0x3B4A JUMP JUMPDEST JUMPDEST PUSH2 0x49A7 DUP3 SLOAD PUSH2 0x3F82 JUMP JUMPDEST PUSH2 0x49B2 DUP3 DUP3 DUP6 PUSH2 0x457E JUMP JUMPDEST PUSH1 0x0 PUSH1 0x20 SWAP1 POP PUSH1 0x1F DUP4 GT PUSH1 0x1 DUP2 EQ PUSH2 0x49E5 JUMPI PUSH1 0x0 DUP5 ISZERO PUSH2 0x49D3 JUMPI DUP3 DUP8 ADD MLOAD SWAP1 POP JUMPDEST PUSH2 0x49DD DUP6 DUP3 PUSH2 0x45EF JUMP JUMPDEST DUP7 SSTORE POP PUSH2 0x4A45 JUMP JUMPDEST PUSH1 0x1F NOT DUP5 AND PUSH2 0x49F3 DUP7 PUSH2 0x4226 JUMP JUMPDEST PUSH1 0x0 JUMPDEST DUP3 DUP2 LT ISZERO PUSH2 0x4A1B JUMPI DUP5 DUP10 ADD MLOAD DUP3 SSTORE PUSH1 0x1 DUP3 ADD SWAP2 POP PUSH1 0x20 DUP6 ADD SWAP5 POP PUSH1 0x20 DUP2 ADD SWAP1 POP PUSH2 0x49F6 JUMP JUMPDEST DUP7 DUP4 LT ISZERO PUSH2 0x4A38 JUMPI DUP5 DUP10 ADD MLOAD PUSH2 0x4A34 PUSH1 0x1F DUP10 AND DUP3 PUSH2 0x45D1 JUMP JUMPDEST DUP4 SSTORE POP JUMPDEST PUSH1 0x1 PUSH1 0x2 DUP9 MUL ADD DUP9 SSTORE POP POP POP JUMPDEST POP POP POP POP POP POP JUMP JUMPDEST PUSH1 0x0 PUSH10 0xFFFFFFFFFFFFFFFFFFFF DUP3 AND SWAP1 POP SWAP2 SWAP1 POP JUMP JUMPDEST PUSH2 0x4A6C DUP2 PUSH2 0x4A4D JUMP JUMPDEST DUP2 EQ PUSH2 0x4A77 JUMPI PUSH1 0x0 DUP1 REVERT JUMPDEST POP JUMP JUMPDEST PUSH1 0x0 DUP2 MLOAD SWAP1 POP PUSH2 0x4A89 DUP2 PUSH2 0x4A63 JUMP JUMPDEST SWAP3 SWAP2 POP POP JUMP JUMPDEST PUSH1 0x0 DUP2 SWAP1 POP SWAP2 SWAP1 POP JUMP JUMPDEST PUSH2 0x4AA2 DUP2 PUSH2 0x4A8F JUMP JUMPDEST DUP2 EQ PUSH2 0x4AAD JUMPI PUSH1 0x0 DUP1 REVERT JUMPDEST POP JUMP JUMPDEST PUSH1 0x0 DUP2 MLOAD SWAP1 POP PUSH2 0x4ABF DUP2 PUSH2 0x4A99 JUMP JUMPDEST SWAP3 SWAP2 POP POP JUMP JUMPDEST PUSH1 0x0 DUP2 MLOAD SWAP1 POP PUSH2 0x4AD4 DUP2 PUSH2 0x380B JUMP JUMPDEST SWAP3 SWAP2 POP POP JUMP JUMPDEST PUSH1 0x0 DUP1 PUSH1 0x0 DUP1 PUSH1 0x0 PUSH1 0xA0 DUP7 DUP9 SUB SLT ISZERO PUSH2 0x4AF6 JUMPI PUSH2 0x4AF5 PUSH2 0x33C3 JUMP JUMPDEST JUMPDEST PUSH1 0x0 PUSH2 0x4B04 DUP9 DUP3 DUP10 ADD PUSH2 0x4A7A JUMP JUMPDEST SWAP6 POP POP PUSH1 0x20 PUSH2 0x4B15 DUP9 DUP3 DUP10 ADD PUSH2 0x4AB0 JUMP JUMPDEST SWAP5 POP POP PUSH1 0x40 PUSH2 0x4B26 DUP9 DUP3 DUP10 ADD PUSH2 0x4AC5 JUMP JUMPDEST SWAP4 POP POP PUSH1 0x60 PUSH2 0x4B37 DUP9 DUP3 DUP10 ADD PUSH2 0x4AC5 JUMP JUMPDEST SWAP3 POP POP PUSH1 0x80 PUSH2 0x4B48 DUP9 DUP3 DUP10 ADD PUSH2 0x4A7A JUMP JUMPDEST SWAP2 POP POP SWAP3 SWAP6 POP SWAP3 SWAP6 SWAP1 SWAP4 POP JUMP JUMPDEST PUSH1 0x0 PUSH2 0x4B60 DUP3 PUSH2 0x4A8F JUMP JUMPDEST SWAP2 POP PUSH2 0x4B6B DUP4 PUSH2 0x4A8F JUMP JUMPDEST SWAP3 POP DUP3 DUP3 MUL PUSH2 0x4B79 DUP2 PUSH2 0x4A8F JUMP JUMPDEST SWAP2 POP PUSH32 0x8000000000000000000000000000000000000000000000000000000000000000 DUP5 EQ PUSH1 0x0 DUP5 SLT AND ISZERO PUSH2 0x4BB1 JUMPI PUSH2 0x4BB0 PUSH2 0x42D5 JUMP JUMPDEST JUMPDEST DUP3 DUP3 SDIV DUP5 EQ DUP4 ISZERO OR PUSH2 0x4BC6 JUMPI PUSH2 0x4BC5 PUSH2 0x42D5 JUMP JUMPDEST JUMPDEST POP SWAP3 SWAP2 POP POP JUMP JUMPDEST PUSH32 0x45524337323155524953746F726167653A2055524920736574206F66206E6F6E PUSH1 0x0 DUP3 ADD MSTORE PUSH32 0x6578697374656E7420746F6B656E000000000000000000000000000000000000 PUSH1 0x20 DUP3 ADD MSTORE POP JUMP JUMPDEST PUSH1 0x0 PUSH2 0x4C29 PUSH1 0x2E DUP4 PUSH2 0x379F JUMP JUMPDEST SWAP2 POP PUSH2 0x4C34 DUP3 PUSH2 0x4BCD JUMP JUMPDEST PUSH1 0x40 DUP3 ADD SWAP1 POP SWAP2 SWAP1 POP JUMP JUMPDEST PUSH1 0x0 PUSH1 0x20 DUP3 ADD SWAP1 POP DUP2 DUP2 SUB PUSH1 0x0 DUP4 ADD MSTORE PUSH2 0x4C58 DUP2 PUSH2 0x4C1C JUMP JUMPDEST SWAP1 POP SWAP2 SWAP1 POP JUMP JUMPDEST PUSH32 0x4552433732313A207472616E736665722066726F6D20696E636F727265637420 PUSH1 0x0 DUP3 ADD MSTORE PUSH32 0x6F776E6572000000000000000000000000000000000000000000000000000000 PUSH1 0x20 DUP3 ADD MSTORE POP JUMP JUMPDEST PUSH1 0x0 PUSH2 0x4CBB PUSH1 0x25 DUP4 PUSH2 0x379F JUMP JUMPDEST SWAP2 POP PUSH2 0x4CC6 DUP3 PUSH2 0x4C5F JUMP JUMPDEST PUSH1 0x40 DUP3 ADD SWAP1 POP SWAP2 SWAP1 POP JUMP JUMPDEST PUSH1 0x0 PUSH1 0x20 DUP3 ADD SWAP1 POP DUP2 DUP2 SUB PUSH1 0x0 DUP4 ADD MSTORE PUSH2 0x4CEA DUP2 PUSH2 0x4CAE JUMP JUMPDEST SWAP1 POP SWAP2 SWAP1 POP JUMP JUMPDEST PUSH32 0x4552433732313A207472616E7366657220746F20746865207A65726F20616464 PUSH1 0x0 DUP3 ADD MSTORE PUSH32 0x7265737300000000000000000000000000000000000000000000000000000000 PUSH1 0x20 DUP3 ADD MSTORE POP JUMP JUMPDEST PUSH1 0x0 PUSH2 0x4D4D PUSH1 0x24 DUP4 PUSH2 0x379F JUMP JUMPDEST SWAP2 POP PUSH2 0x4D58 DUP3 PUSH2 0x4CF1 JUMP JUMPDEST PUSH1 0x40 DUP3 ADD SWAP1 POP SWAP2 SWAP1 POP JUMP JUMPDEST PUSH1 0x0 PUSH1 0x20 DUP3 ADD SWAP1 POP DUP2 DUP2 SUB PUSH1 0x0 DUP4 ADD MSTORE PUSH2 0x4D7C DUP2 PUSH2 0x4D40 JUMP JUMPDEST SWAP1 POP SWAP2 SWAP1 POP JUMP JUMPDEST PUSH32 0x4552433732313A20617070726F766520746F2063616C6C657200000000000000 PUSH1 0x0 DUP3 ADD MSTORE POP JUMP JUMPDEST PUSH1 0x0 PUSH2 0x4DB9 PUSH1 0x19 DUP4 PUSH2 0x379F JUMP JUMPDEST SWAP2 POP PUSH2 0x4DC4 DUP3 PUSH2 0x4D83 JUMP JUMPDEST PUSH1 0x20 DUP3 ADD SWAP1 POP SWAP2 SWAP1 POP JUMP JUMPDEST PUSH1 0x0 PUSH1 0x20 DUP3 ADD SWAP1 POP DUP2 DUP2 SUB PUSH1 0x0 DUP4 ADD MSTORE PUSH2 0x4DE8 DUP2 PUSH2 0x4DAC JUMP JUMPDEST SWAP1 POP SWAP2 SWAP1 POP JUMP JUMPDEST PUSH32 0x4552433732313A207472616E7366657220746F206E6F6E204552433732315265 PUSH1 0x0 DUP3 ADD MSTORE PUSH32 0x63656976657220696D706C656D656E7465720000000000000000000000000000 PUSH1 0x20 DUP3 ADD MSTORE POP JUMP JUMPDEST PUSH1 0x0 PUSH2 0x4E4B PUSH1 0x32 DUP4 PUSH2 0x379F JUMP JUMPDEST SWAP2 POP PUSH2 0x4E56 DUP3 PUSH2 0x4DEF JUMP JUMPDEST PUSH1 0x40 DUP3 ADD SWAP1 POP SWAP2 SWAP1 POP JUMP JUMPDEST PUSH1 0x0 PUSH1 0x20 DUP3 ADD SWAP1 POP DUP2 DUP2 SUB PUSH1 0x0 DUP4 ADD MSTORE PUSH2 0x4E7A DUP2 PUSH2 0x4E3E JUMP JUMPDEST SWAP1 POP SWAP2 SWAP1 POP JUMP JUMPDEST PUSH1 0x0 DUP2 MLOAD SWAP1 POP SWAP2 SWAP1 POP JUMP JUMPDEST PUSH1 0x0 DUP3 DUP3 MSTORE PUSH1 0x20 DUP3 ADD SWAP1 POP SWAP3 SWAP2 POP POP JUMP JUMPDEST PUSH1 0x0 PUSH2 0x4EA8 DUP3 PUSH2 0x4E81 JUMP JUMPDEST PUSH2 0x4EB2 DUP2 DUP6 PUSH2 0x4E8C JUMP JUMPDEST SWAP4 POP PUSH2 0x4EC2 DUP2 DUP6 PUSH1 0x20 DUP7 ADD PUSH2 0x356A JUMP JUMPDEST PUSH2 0x4ECB DUP2 PUSH2 0x3594 JUMP JUMPDEST DUP5 ADD SWAP2 POP POP SWAP3 SWAP2 POP POP JUMP JUMPDEST PUSH1 0x0 PUSH1 0x80 DUP3 ADD SWAP1 POP PUSH2 0x4EEB PUSH1 0x0 DUP4 ADD DUP8 PUSH2 0x3877 JUMP JUMPDEST PUSH2 0x4EF8 PUSH1 0x20 DUP4 ADD DUP7 PUSH2 0x3877 JUMP JUMPDEST PUSH2 0x4F05 PUSH1 0x40 DUP4 ADD DUP6 PUSH2 0x3886 JUMP JUMPDEST DUP2 DUP2 SUB PUSH1 0x60 DUP4 ADD MSTORE PUSH2 0x4F17 DUP2 DUP5 PUSH2 0x4E9D JUMP JUMPDEST SWAP1 POP SWAP6 SWAP5 POP POP POP POP POP JUMP JUMPDEST PUSH1 0x0 DUP2 MLOAD SWAP1 POP PUSH2 0x4F31 DUP2 PUSH2 0x33F9 JUMP JUMPDEST SWAP3 SWAP2 POP POP JUMP JUMPDEST PUSH1 0x0 PUSH1 0x20 DUP3 DUP5 SUB SLT ISZERO PUSH2 0x4F4D JUMPI PUSH2 0x4F4C PUSH2 0x33C3 JUMP JUMPDEST JUMPDEST PUSH1 0x0 PUSH2 0x4F5B DUP5 DUP3 DUP6 ADD PUSH2 0x4F22 JUMP JUMPDEST SWAP2 POP POP SWAP3 SWAP2 POP POP JUMP JUMPDEST PUSH32 0x4552433732313A206D696E7420746F20746865207A65726F2061646472657373 PUSH1 0x0 DUP3 ADD MSTORE POP JUMP JUMPDEST PUSH1 0x0 PUSH2 0x4F9A PUSH1 0x20 DUP4 PUSH2 0x379F JUMP JUMPDEST SWAP2 POP PUSH2 0x4FA5 DUP3 PUSH2 0x4F64 JUMP JUMPDEST PUSH1 0x20 DUP3 ADD SWAP1 POP SWAP2 SWAP1 POP JUMP JUMPDEST PUSH1 0x0 PUSH1 0x20 DUP3 ADD SWAP1 POP DUP2 DUP2 SUB PUSH1 0x0 DUP4 ADD MSTORE PUSH2 0x4FC9 DUP2 PUSH2 0x4F8D JUMP JUMPDEST SWAP1 POP SWAP2 SWAP1 POP JUMP JUMPDEST PUSH32 0x4552433732313A20746F6B656E20616C7265616479206D696E74656400000000 PUSH1 0x0 DUP3 ADD MSTORE POP JUMP JUMPDEST PUSH1 0x0 PUSH2 0x5006 PUSH1 0x1C DUP4 PUSH2 0x379F JUMP JUMPDEST SWAP2 POP PUSH2 0x5011 DUP3 PUSH2 0x4FD0 JUMP JUMPDEST PUSH1 0x20 DUP3 ADD SWAP1 POP SWAP2 SWAP1 POP JUMP JUMPDEST PUSH1 0x0 PUSH1 0x20 DUP3 ADD SWAP1 POP DUP2 DUP2 SUB PUSH1 0x0 DUP4 ADD MSTORE PUSH2 0x5035 DUP2 PUSH2 0x4FF9 JUMP JUMPDEST SWAP1 POP SWAP2 SWAP1 POP JUMP INVALID LOG2 PUSH5 0x6970667358 0x22 SLT KECCAK256 0x2C CALLVALUE PUSH12 0x9C0CDAEE8C39050787CB3BB7 0x4D MULMOD 0x4D CODESIZE 0xEC 0xFB 0xD8 0x26 0xC2 0xB8 DUP7 0x26 0xD1 PUSH10 0x3E963E64736F6C634300 ADDMOD EQ STOP CALLER "},"gasEstimates":{"creation":{"codeDepositCost":"4118800","executionCost":"infinite","totalCost":"infinite"},"external":{"allBlockPassList()":"infinite","approve(address,uint256)":"infinite","balanceOf(address)":"2987","blockPassList(uint256)":"infinite","blockPassesBookedByUser(address)":"infinite","bookedPassByUser(address,uint256)":"infinite","createNewPass(uint256,uint256,uint256,uint256,string,string)":"infinite","getApproved(uint256)":"5344","getByCategory(string)":"infinite","getPassById(uint256)":"infinite","getUserTokens(address)":"infinite","isApprovedForAll(address,address)":"infinite","name()":"infinite","ownerOf(uint256)":"3088","purchasePass(uint256)":"infinite","s_priceFeed()":"infinite","safeTransferFrom(address,address,uint256)":"infinite","safeTransferFrom(address,address,uint256,bytes)":"infinite","setApprovalForAll(address,bool)":"infinite","supportsInterface(bytes4)":"797","symbol()":"infinite","tokenOfOwnerByIndex(address,uint256)":"infinite","tokenURI(uint256)":"infinite","transferFrom(address,address,uint256)":"infinite"},"internal":{"updatePassPrice(struct BlockPass.BlockPassDetails storage pointer)":"infinite"}},"methodIdentifiers":{"allBlockPassList()":"1be59b75","approve(address,uint256)":"095ea7b3","balanceOf(address)":"70a08231","blockPassList(uint256)":"36a5af0d","blockPassesBookedByUser(address)":"03ebd8ad","bookedPassByUser(address,uint256)":"07825d3a","createNewPass(uint256,uint256,uint256,uint256,string,string)":"ed1dde69","getApproved(uint256)":"081812fc","getByCategory(string)":"8ea6b9c8","getPassById(uint256)":"47a9ec57","getUserTokens(address)":"519dc8d2","isApprovedForAll(address,address)":"e985e9c5","name()":"06fdde03","ownerOf(uint256)":"6352211e","purchasePass(uint256)":"14462eda","s_priceFeed()":"0ec3b027","safeTransferFrom(address,address,uint256)":"42842e0e","safeTransferFrom(address,address,uint256,bytes)":"b88d4fde","setApprovalForAll(address,bool)":"a22cb465","supportsInterface(bytes4)":"01ffc9a7","symbol()":"95d89b41","tokenOfOwnerByIndex(address,uint256)":"2f745c59","tokenURI(uint256)":"c87b56dd","transferFrom(address,address,uint256)":"23b872dd"}},"storageLayout":{"storage":[{"astId":71,"contract":"contracts/BlockPass.sol:BlockPass","label":"_name","offset":0,"slot":"0","type":"t_string_storage"},{"astId":73,"contract":"contracts/BlockPass.sol:BlockPass","label":"_symbol","offset":0,"slot":"1","type":"t_string_storage"},{"astId":77,"contract":"contracts/BlockPass.sol:BlockPass","label":"_owners","offset":0,"slot":"2","type":"t_mapping(t_uint256,t_address)"},{"astId":81,"contract":"contracts/BlockPass.sol:BlockPass","label":"_balances","offset":0,"slot":"3","type":"t_mapping(t_address,t_uint256)"},{"astId":85,"contract":"contracts/BlockPass.sol:BlockPass","label":"_tokenApprovals","offset":0,"slot":"4","type":"t_mapping(t_uint256,t_address)"},{"astId":91,"contract":"contracts/BlockPass.sol:BlockPass","label":"_operatorApprovals","offset":0,"slot":"5","type":"t_mapping(t_address,t_mapping(t_address,t_bool))"},{"astId":1137,"contract":"contracts/BlockPass.sol:BlockPass","label":"_tokenURIs","offset":0,"slot":"6","type":"t_mapping(t_uint256,t_string_storage)"},{"astId":2794,"contract":"contracts/BlockPass.sol:BlockPass","label":"tokenId","offset":0,"slot":"7","type":"t_struct(Counter)1634_storage"},{"astId":2818,"contract":"contracts/BlockPass.sol:BlockPass","label":"blockPass_count","offset":0,"slot":"8","type":"t_uint256"},{"astId":2821,"contract":"contracts/BlockPass.sol:BlockPass","label":"s_priceFeed","offset":0,"slot":"9","type":"t_contract(AggregatorV3Interface)45"},{"astId":2825,"contract":"contracts/BlockPass.sol:BlockPass","label":"blockPassList","offset":0,"slot":"10","type":"t_array(t_struct(BlockPassDetails)2815_storage)dyn_storage"},{"astId":2830,"contract":"contracts/BlockPass.sol:BlockPass","label":"getPassById","offset":0,"slot":"11","type":"t_mapping(t_uint256,t_struct(BlockPassDetails)2815_storage)"},{"astId":2836,"contract":"contracts/BlockPass.sol:BlockPass","label":"bookedPassByUser","offset":0,"slot":"12","type":"t_mapping(t_address,t_array(t_struct(BlockPassDetails)2815_storage)dyn_storage)"},{"astId":2841,"contract":"contracts/BlockPass.sol:BlockPass","label":"tokenOfOwnerByIndex","offset":0,"slot":"13","type":"t_mapping(t_address,t_array(t_uint256)dyn_storage)"}],"types":{"t_address":{"encoding":"inplace","label":"address","numberOfBytes":"20"},"t_array(t_struct(BlockPassDetails)2815_storage)dyn_storage":{"base":"t_struct(BlockPassDetails)2815_storage","encoding":"dynamic_array","label":"struct BlockPass.BlockPassDetails[]","numberOfBytes":"32"},"t_array(t_uint256)dyn_storage":{"base":"t_uint256","encoding":"dynamic_array","label":"uint256[]","numberOfBytes":"32"},"t_bool":{"encoding":"inplace","label":"bool","numberOfBytes":"1"},"t_contract(AggregatorV3Interface)45":{"encoding":"inplace","label":"contract AggregatorV3Interface","numberOfBytes":"20"},"t_mapping(t_address,t_array(t_struct(BlockPassDetails)2815_storage)dyn_storage)":{"encoding":"mapping","key":"t_address","label":"mapping(address => struct BlockPass.BlockPassDetails[])","numberOfBytes":"32","value":"t_array(t_struct(BlockPassDetails)2815_storage)dyn_storage"},"t_mapping(t_address,t_array(t_uint256)dyn_storage)":{"encoding":"mapping","key":"t_address","label":"mapping(address => uint256[])","numberOfBytes":"32","value":"t_array(t_uint256)dyn_storage"},"t_mapping(t_address,t_bool)":{"encoding":"mapping","key":"t_address","label":"mapping(address => bool)","numberOfBytes":"32","value":"t_bool"},"t_mapping(t_address,t_mapping(t_address,t_bool))":{"encoding":"mapping","key":"t_address","label":"mapping(address => mapping(address => bool))","numberOfBytes":"32","value":"t_mapping(t_address,t_bool)"},"t_mapping(t_address,t_uint256)":{"encoding":"mapping","key":"t_address","label":"mapping(address => uint256)","numberOfBytes":"32","value":"t_uint256"},"t_mapping(t_uint256,t_address)":{"encoding":"mapping","key":"t_uint256","label":"mapping(uint256 => address)","numberOfBytes":"32","value":"t_address"},"t_mapping(t_uint256,t_string_storage)":{"encoding":"mapping","key":"t_uint256","label":"mapping(uint256 => string)","numberOfBytes":"32","value":"t_string_storage"},"t_mapping(t_uint256,t_struct(BlockPassDetails)2815_storage)":{"encoding":"mapping","key":"t_uint256","label":"mapping(uint256 => struct BlockPass.BlockPassDetails)","numberOfBytes":"32","value":"t_struct(BlockPassDetails)2815_storage"},"t_string_storage":{"encoding":"bytes","label":"string","numberOfBytes":"32"},"t_struct(BlockPassDetails)2815_storage":{"encoding":"inplace","label":"struct BlockPass.BlockPassDetails","members":[{"astId":2796,"contract":"contracts/BlockPass.sol:BlockPass","label":"organizer","offset":0,"slot":"0","type":"t_address"},{"astId":2798,"contract":"contracts/BlockPass.sol:BlockPass","label":"metadata","offset":0,"slot":"1","type":"t_string_storage"},{"astId":2800,"contract":"contracts/BlockPass.sol:BlockPass","label":"category","offset":0,"slot":"2","type":"t_string_storage"},{"astId":2802,"contract":"contracts/BlockPass.sol:BlockPass","label":"blockPassId","offset":0,"slot":"3","type":"t_uint256"},{"astId":2804,"contract":"contracts/BlockPass.sol:BlockPass","label":"passesSold","offset":0,"slot":"4","type":"t_uint256"},{"astId":2806,"contract":"contracts/BlockPass.sol:BlockPass","label":"max_passes","offset":0,"slot":"5","type":"t_uint256"},{"astId":2808,"contract":"contracts/BlockPass.sol:BlockPass","label":"passPrice","offset":0,"slot":"6","type":"t_uint256"},{"astId":2810,"contract":"contracts/BlockPass.sol:BlockPass","label":"startTime","offset":0,"slot":"7","type":"t_uint256"},{"astId":2812,"contract":"contracts/BlockPass.sol:BlockPass","label":"salesEndTime","offset":0,"slot":"8","type":"t_uint256"},{"astId":2814,"contract":"contracts/BlockPass.sol:BlockPass","label":"bpEnded","offset":0,"slot":"9","type":"t_bool"}],"numberOfBytes":"320"},"t_struct(Counter)1634_storage":{"encoding":"inplace","label":"struct Counters.Counter","members":[{"astId":1633,"contract":"contracts/BlockPass.sol:BlockPass","label":"_value","offset":0,"slot":"0","type":"t_uint256"}],"numberOfBytes":"32"},"t_uint256":{"encoding":"inplace","label":"uint256","numberOfBytes":"32"}}},"userdoc":{"kind":"user","methods":{},"notice":"This contract is for creating and managing block passes.","version":1}}}}